:020000040800F2
:1000000000000820250A000881310008833100081B
:1000100085310008873100088931000800000000A0
:10002000000000000000000000000000C1D900082E
:100030008B3100080000000061DA0008C5DA000812
:10004000750A0008750A0008750A0008750A000894
:10005000750A0008750A0008750A0008750A000884
:10006000750A0008750A0008750A0008750A000874
:10007000750A0008750A0008750A0008750A000864
:10008000750A0008750A0008750A0008750A000854
:10009000750A0008750A0008750A0008750A000844
:1000A000750A0008750A0008750A0008750A000834
:1000B000750A0008750A0008750A0008750A000824
:1000C000750A0008750A0008750A0008750A000814
:1000D000750A0008750A0008750A0008750A000804
:1000E000750A0008750A0008750A0008750A0008F4
:1000F000750A0008750A0008750A0008750A0008E4
:10010000750A0008750A0008750A0008750A0008D3
:10011000750A0008750A00088D310008750A000884
:1001200099310008A5310008750A0008750A000811
:10013000B1310008750A0008750A0008750A000840
:10014000750A0008750A0008750A0008750A000893
:10015000BD310008750A0008750A0008750A000814
:10016000750A0008750A0008750A0008750A000873
:10017000750A0008750A0008750A000800000000EA
:10018000750A0008750A0008750A0008750A000853
:10019000750A0008750A0008750A0008750A000843
:1001A000C9310008750A0008D5310008750A000831
:1001B000750A0008750A0008750A0008E131000890
:1001C000750A0008750A0008ED310008F9310008C9
:1001D000750A0008750A0008750A0008053200084B
:1001E000750A0008750A0008750A0008750A0008F3
:0801F000750A0008750A0008F9
:1002000010B5054C237833B9044B13B10448AFF350
:1002100000800123237010BD400300200000000077
:100220007456030808B5034B1BB103490348AFF3E9
:10023000008008BD0000000044030020745603083D
:1002400001F0FF01102A2BDB10F0070F08D010F887
:10025000013B013A8B422DD010F0070F42B3F6D18B
:10026000F0B441EA012141EA014122F007047FF0A4
:1002700000070023F0E80256083C85EA010586EAFB
:10028000010685FA47F5A3FA87F586FA47F6A5FA37
:1002900087F68EB9EED1F0BC01F0FF0102F0070243
:1002A00032B110F8013B013A83EA010313B1F8D1EE
:1002B0000020704701387047002D06BF35460338CF
:1002C000073815F0010F07D1013015F4807F02BF08
:1002D000013015F4C03F0130F0BC0138704700BF59
:1002E00081F0004102E000BF83F0004330B54FEAE7
:1002F00041044FEA430594EA050F08BF90EA020F54
:100300001FBF54EA000C55EA020C7FEA645C7FEAE6
:10031000655C00F0E2804FEA5454D4EB5555B8BF09
:100320006D420CDD2C4480EA020281EA030382EA7A
:10033000000083EA010180EA020281EA0303362D0C
:1003400088BF30BD11F0004F4FEA01314FF4801CDF
:100350004CEA113102D0404261EB410113F0004FF1
:100360004FEA03334CEA133302D0524263EB4303A8
:1003700094EA050F00F0A780A4F10104D5F1200E46
:100380000DDB02FA0EFC22FA05F2801841F10001A1
:1003900003FA0EF2801843FA05F359410EE0A5F175
:1003A00020050EF1200E012A03FA0EFC28BF4CF0A6
:1003B000020C43FA05F3C01851EBE37101F000455C
:1003C00007D54FF0000EDCF1000C7EEB00006EEB69
:1003D0000101B1F5801F1BD3B1F5001F0CD34908F3
:1003E0005FEA30004FEA3C0C04F101044FEA44524A
:1003F00012F5800F80F09A80BCF1004F08BF5FEAD1
:10040000500C50F1000041EB045141EA050130BDB0
:100410005FEA4C0C404141EB0101013C28BFB1F5C2
:10042000801FE9D291F0000F04BF01460020B1FA0D
:1004300081F308BF2033A3F10B03B3F120020CDAE0
:100440000C3208DD02F1140CC2F10C0201FA0CF0BE
:1004500021FA02F10CE002F11402D8BFC2F1200C23
:1004600001FA02F120FA0CFCDCBF41EA0C019040D9
:10047000E41AA2BF01EB0451294330BD6FEA040422
:100480001F3C1CDA0C340EDC04F11404C4F120020D
:1004900020FA04F001FA02F340EA030021FA04F31F
:1004A00045EA030130BDC4F10C04C4F1200220FA76
:1004B00002F001FA04F340EA0300294630BD21FAB4
:1004C00004F0294630BD94F0000F83F4801306BF7A
:1004D00081F480110134013D4EE77FEA645C18BF6E
:1004E0007FEA655C29D094EA050F08BF90EA020F05
:1004F00005D054EA000C04BF1946104630BD91EAFD
:10050000030F1EBF0021002030BD5FEA545C05D1FF
:100510004000494128BF41F0004130BD14F580043E
:100520003CBF01F5801130BD01F0004545F0FE41B2
:1005300041F470014FF0000030BD7FEA645C1ABFE7
:10054000194610467FEA655C1CBF0B46024650EA1E
:10055000013406BF52EA033591EA030F41F400214A
:1005600030BD00BF90F0000F04BF0021704730B5D0
:100570004FF4806404F132044FF000054FF00001A5
:1005800050E700BF90F0000F04BF0021704730B566
:100590004FF4806404F1320410F0004548BF40423B
:1005A0004FF000013EE700BF42004FEAE2014FEA90
:1005B00031014FEA02701FBF12F07F4393F07F4F6B
:1005C00081F06051704732F07F4208BF704793F06E
:1005D0007F4F04BF41F40021704730B54FF4607481
:1005E00001F0004521F000411CE700BF50EA010284
:1005F00008BF704730B54FF000050AE050EA01022D
:1006000008BF704730B511F0004502D5404261EB9C
:1006100041014FF4806404F132045FEA915C3FF4DD
:10062000D8AE4FF003025FEADC0C18BF03325FEA7A
:10063000DC0C18BF033202EBDC02C2F1200300FA2B
:1006400003FC20FA02F001FA03FE40EA0E0021FA50
:1006500002F11444BDE600BF7BB972B90029BEBFE8
:1006600000204FF0004106E008BF00281CBF6FF0DB
:1006700000414FF0FF3000F0D3B9ADF1080C6DE947
:1006800004CE002909DB002B1ADB00F04DF8DDF861
:1006900004E0DDE9022304B07047404261EB410110
:1006A000002B1BDB00F040F8DDF804E0DDE902235D
:1006B00004B0404261EB4101524263EB4303704797
:1006C000524263EB430300F02FF8DDF804E0DDE96C
:1006D000022304B0404261EB41017047524263EB98
:1006E000430300F021F8DDF804E0DDE9022304B063
:1006F000524263EB4303704753B94AB9002908BF1C
:1007000000281CBF4FF0FF314FF0FF3000F088B9D8
:10071000ADF1080C6DE904CE00F006F8DDF804E058
:10072000DDE9022304B070472DE9F047089D8E46AD
:1007300004468846002B4AD18A42174662D9B2FA4B
:1007400082F64EB1C6F1200301FA06F820FA03F34F
:10075000B74043EA0808B4404FEA174E1FFA87FC37
:10076000B8FBFEF1230C0EFB118843EA084301FBA2
:100770000CF29A4209D9FB1801F1FF3080F0EA80AF
:100780009A4240F2E78002393B449A1AA3B2B2FB84
:10079000FEF00EFB102243EA024300FB0CFC9C45DA
:1007A00009D9FB1800F1FF3280F0D6809C4540F259
:1007B000D3803B44023840EA0140A3EB0C03002104
:1007C0001DB1F3400022C5E90032BDE8F0878B423D
:1007D00005D90DB1C5E9000100210846F5E7B3FAD6
:1007E00083F1002946D1734502D3824200F205818C
:1007F000841A6EEB030201209046002DE5D0C5E976
:100800000048E2E7002A00F09080B2FA82F6002E5B
:1008100040F0A4808A1A030C4FEA174E80B2BCB293
:100820000121B2FBFEFC0EFB1C2243EA024304FB47
:100830000CF29A4207D9FB180CF1FF3802D29A4207
:1008400000F2E080C4469B1AB3FBFEF20EFB1233AB
:1008500040EA034302FB04F49C4207D9FB1802F16F
:10086000FF3002D29C4200F2CA8002461B1B42EAC1
:100870000C40A5E7C1F120068B4022FA06F71F4382
:100880000EFA01F420FA06F32EFA06FE4FEA174993
:10089000234300FA01F81FFA87FCBEFBF9F01C0C99
:1008A00009FB10EE44EA0E4400FB0CFEA64502FADA
:1008B00001F209D93C1900F1FF3A80F09C80A6456D
:1008C00040F2998002383C44A4EB0E041FFA83FEE8
:1008D000B4FBF9F309FB13444EEA044403FB0CFC9C
:1008E000A44508D93C1903F1FF3E80F08280A4455D
:1008F0007FD9023B3C4443EA0040A4EB0C04A0FB3C
:1009000002EC64457346E14662D35FD05DB1B8EB5B
:10091000030264EB090404FA06F622FA01F31E430B
:10092000CC40C5E9006400214FE7B1FBF2FC010CAB
:1009300041EA0E4180B240EA01423B4638463C461D
:10094000B846BE462026B1FBF7F1A2EB080241EA09
:100950000C4166E7014618E710462CE7C6F1200275
:100960002EFA02F3B740B14020FA02F24FEA174ED6
:100970000A43B3FBFEF8BCB20EFB1833110C41EA7C
:10098000034108FB04F9B04089454FEA104380B2A7
:100990003ED9791808F1FF3C01D289451FD8A1EB57
:1009A0000901B1FBFEF909FB04F80EFB191192B223
:1009B00042EA0142424529D2BA1809F1FF31C4D2B4
:1009C0004245C2D2A9F102013A44BEE7F0459DD2A8
:1009D000BEEB02036CEB070C0138E14696E7A7EB90
:1009E00009094944A8F1020CB1FBFEF909FB04F81E
:1009F000DBE773467FE7504666E70846FDE63B4483
:100A0000023A33E7ACF1020C3B441CE749469CE751
:100A1000A1EB0901C446B1FBFEF909FB04F8C4E7E8
:100A2000704700BFDFF834D0002103E00C4B5B5867
:100A3000435004310B480C4B42189A42F6D30B4AF0
:100A400002E0002342F8043B094B9A42F9D306F036
:100A50002FF833F08DFF00F0E5FF7047000008200D
:100A600068A9030800000020340100204003002092
:100A700000340220FEE7000008B5034903480CF0EB
:100A8000D5FA034B187008BDC0070020E0560308D4
:100A9000C40700200020704708B513460A460146E7
:100AA000034809F099FD003818BF012008BD00BFB8
:100AB000C4BA002008B513460A460146034809F0A7
:100AC00017FE003818BF012008BD00BFC4BA0020BF
:100AD00008B503480AF09FF8043818BF012008BD84
:100AE000C4BA0020014601480AF083B8C4BA002005
:100AF000704708B5FFF7FCFF08BD08B500F00AF91C
:100B000008BD08B500F018F908BD012307B58DF838
:100B1000073000F017F808B98DF807009DF80700B6
:100B200003B05DF804FB000008B5FFF7EEFF0128F5
:100B300004D10348BDE808400AF040B8022008BDCF
:100B4000C4BA00204FF40041034808B507F0D6FBB3
:100B5000B0FA80F0400908BD00200240124B30B5C9
:100B60001C7889B0154614F0010419D1032919D84D
:100B7000DFE801F00D0208106846FFF7B3FF069B9F
:100B80002B6004E06846FFF7ADFF079B2B802046F3
:100B900009B030BD6846FFF7A5FF079B5B0AEFE78A
:100BA0000324F4E70424F2E70400002038B50CF035
:100BB000A7FA47F22F5504460CF0A2FA031BAB42EA
:100BC00002D94FF0FF3003E0FFF782FF0028F3D196
:100BD00038BD000073B50C4615461E46FFF7E6FF0C
:100BE000002802DA012002B070BD324629462046B4
:100BF000FFF760FF02460028F4D10E4847F2305359
:100C00000DF1060100680CF0F1FC0028EAD1BDF8F6
:100C10000630022BE6D10CF073FA47F22F5504464A
:100C20000CF06EFA031BAB42DCD8FFF751FF002833
:100C3000F6D1D8E7C807002073B50C4615461E4606
:100C4000FFF7B4FF002802DA012002B070BD32467F
:100C500029462046FFF720FF02460028F4D10E481F
:100C600047F230530DF1060100680CF0BFFC00287C
:100C7000EAD1BDF80630012BE6D10CF041FA47F27B
:100C80002F5504460CF03CFA031BAB42DCD8FFF7AF
:100C90001FFF0028F6D1D8E7C807002010B50123B0
:100CA000054C2370FFF714FF18B9237803F0FE03F7
:100CB0002370207810BD00BF0400002038B5134C0D
:100CC000012525700CF0ECF902281DD1FFF72CFF4F
:100CD00050B92570FFF7FCFE18B9237803F0FE0326
:100CE00023702378DBB223702378012B0CD0084DBE
:100CF0002A684AB902210A200CF0F0FB286018B9D2
:100D0000237843F001032370207838BD04000020CD
:100D1000C8070020022307B5ADF8063000230548B8
:100D20000DF106011A4600680CF01EFC03B05DF8D8
:100D300004FB00BFC8070020012307B5ADF806304B
:100D4000002305480DF106011A4600680CF00CFC62
:100D500003B05DF804FB00BFC80700207047002304
:100D6000F0B5934203DB002393420CDBF0BD30F976
:100D7000134004F11305ADB2262D98BF002421F8CD
:100D800013400133EDE70025581F9E1D2C46002817
:100D900005DB8242C2BF31F910700135E419013020
:100DA000B042F4D194FBF5F421F813400133DBE7B2
:100DB0002DE9F04F87B04FF0000B0EF0BFF9974BC5
:100DC00018600EF0BBF9964B1860964D4FF0FF324D
:100DD0000DF1070128680DF098FA0128F5D19DF86A
:100DE0000730002B71D1904C4FF480528F499048BE
:100DF000236009F037FB08B100F064FD4FF4805226
:100E00008C498D4809F0C2FA08B100F05BFD8B4EA9
:100E1000A6F580574FF0FF3101200EF087FA2368C6
:100E2000002BF7D023684FF400628549012B14BFD3
:100E300030463846FFF793FF824B834ABBF1000FE1
:100E400008BF1A460023901EB1F800C0083122F8EE
:100E500013C0023331F804CCB3F5806F20F813C00F
:100E6000F2D1DFF8F8914FF0000802A98BF0010BE6
:100E7000D9F80000CDE9022300234FF0FF320DF036
:100E80007AF842460DF107012868C4F800800DF099
:100E90003CFA0128BED19DF80720012ABAD14FF4AF
:100EA00000516A4807F030FA614809F025FA6248B3
:100EB00009F022FA43464FF0FF3204A9D9F80000A6
:100EC000CDE904880DF057F87FE7022B7FF47DAF62
:100ED00000265F4BDFF85C911E603546344637468E
:100EE0003346CA464FF0000807B18CB9594B4FF052
:100EF000FF3204A918680DF008FA01284FF000032A
:100F000006D1049AFAB10599E9B10C4617461D4677
:100F1000012C17D937F9152008F10408AAF8023076
:100F2000023CAAF8002007EB4502B8F5006F05F176
:100F30000205B2F902200AF1080A2AF8023C2AF84E
:100F4000042CD1D1002009EB480809F5805903E0B1
:100F50000126C6E728F8023BC845FBD1002856D138
:100F6000DFF8F490002EF3D04FF48052A9F58051B1
:100F7000314809F00BFA08B100F0A4FC4FF0FF3142
:100F800001200EF0D3F9324B00261A68324BA3F53C
:100F90008058012A18BF9846C14607B17CB92D4B2D
:100FA0004FF0FF3204A918680DF0AFF9012806D1FF
:100FB000049BF3B1059AE2B114461F460025012CAB
:100FC00029D937F9153000200436023CA9F8003041
:100FD00007EB4503A9F80200B6F5006FB3F902303C
:100FE00005F10205A9F8060009F1080929F8043CF1
:100FF000D3D108EB4606002308F5805801E026F817
:10100000023B4645FBD1124A13600028B6D00A487D
:1010100009F072F9D9E60020EBE700BFA4B900207F
:10102000A0B90020ACB90020D00700209C590020B6
:10103000940800209C390020180900209C69002099
:101040009C0900209C2900209C19002000240240BB
:10105000CC070020B4B900209C490020B8B900207A
:1010600010B5A4B0044690220021684633F0C6FBB8
:10107000684608F0E5FE42F611339C4207D045F27F
:1010800022639C4203D04AF644439C422BD14FF446
:10109000801300934FF48003109340F2AD1301933B
:1010A0000223039313236846099308F01BFC4FF0B7
:1010B0008053684600934FF08063239308F012FC3E
:1010C00008F0DCFB4FF47A73B0FBF3F005F0B0FDF1
:1010D000042005F00BFE00224FF0FF30114605F012
:1010E00055FD24B010BD4FF4801300934FF48003DE
:1010F00010934FF4AC730193072303930123D2E7BA
:10110000F0B5364C8BB070260327636C054605A9F5
:10111000334843F480036364636C03F480030193F6
:10112000019B236B43F040032363236B03F04003D5
:101130000293029B236B43F010032363236B03F0A2
:1011400010030393039B0223CDE9056306230026C6
:101150000993CDE9076706F053FF802305A92148CD
:10116000059306F04DFF236B2A6843F48003236345
:10117000236B03F480030493049B1B4B9A4222D1FC
:101180001A4C40234FF480624FF400514FF400306A
:10119000EC6666602663A563C4E902364FF400631B
:1011A000C4E904234FF48073C4E906130423C4E99B
:1011B00008030F4B2046C4E90A76236006F088F83E
:1011C000204606F007F800220E21392005F0DEFC4B
:1011D000392005F00DFD0BB0F0BD00BF0038024016
:1011E000001002400018024004580140340800205A
:1011F00028640240F0B53C4C8BB002270025636C9C
:10120000064605A9394843F480036364636C03F41C
:1012100080030193019B236B43F010032363236B33
:1012200003F010030293029B0823CDE90537062340
:10123000CDE90757099306F0E3FE236B05A92C4877
:1012400043F400732363236B03F400730393039B42
:101250004FF48053CDE90757CDE9053506F0D0FEB0
:10126000236B326843F480032363236B03F480030E
:101270000493049B1F4B9A4223D11F4C4FF00073E1
:101280004FF480624FF4005120463467E5602563D7
:10129000A663C4E901354FF40063C4E904234FF4A5
:1012A0008073C4E906134FF40033C4E908350323FF
:1012B000C4E90A35114B236006F00AF8204605F010
:1012C00089FF00220F213C2005F060FC3C2005F046
:1012D0008FFC00220F21282005F058FC282005F063
:1012E00087FC0BB0F0BD00BF003802400010024088
:1012F0000024024024580140D407002070640240BA
:101300002DE9F84F484F8046484C7B6ADFF828A10A
:10131000204623F48033464DC4F800A07B6208F0D9
:10132000CDFF7B68434E284623F480332E607B60DC
:1013300008F0C4FF4046FFF793FE20462E60C4F835
:1013400000A009F03FF928B92846FFF7D9FE20464A
:10135000FFF750FF7B6840222E60002623F4803385
:101360004FF4803B80214FF001097B604FF4005324
:101370002F482B6120236E62C5F81C806E606E6161
:101380002E63EE63AE60C5F81890EE602E62AE6517
:10139000C5E910234FF480230422C5E914360F2336
:1013A000C5E90D16C5E91723C5E90A66C5E912B6F0
:1013B00008F0A8FE2D68402280212868202340EAFA
:1013C0000B002860786AC4F800A020F480307862AE
:1013D0000320666260601548C4F81C80666126635D
:1013E000E663C4F808902661C4F81890E660A66227
:1013F0002662A665C4E91023C4E90D164FF48023C4
:101400001021C4E91436E1620F230421C4E912B6A5
:10141000C4E9171308F076FE2268136843EA0B0349
:101420001360BDE8F88F00BF005801409408002009
:1014300018090020045801402458014070B50446A2
:1014400086B00A4D0A4E2A8831462046531C2B800E
:1014500033F0DAF8694620460BF0A1FD18B92B8865
:10146000B3F57A7FEFD306B070BD00BF0C0000204B
:10147000F456030870B5124C1026049D246881614F
:10148000046005F12404514344600E4C5943C38267
:1014900024685343C9080674DB1084600A4C012693
:1014A00003842468094BC46000241B68447484745A
:1014B000C47406754475C16142844362856270BD1F
:1014C00002570308075703080C570308497B030812
:1014D000C36837B500932C3B0421044601930BF0FD
:1014E0004DFC08B100F0EEF9114D0422694620468A
:1014F0002B460BF0FBFA10B92B68042B01D000F03F
:10150000E1F9282120460BF039FC08B100F0DAF9A6
:101510000422074B20460DEB02010BF0E7FA10B94D
:101520002B68042B01D000F0CDF903B030BD00BF13
:101530009CB900202DE9F04FDFF89881A7B05E4DEF
:101540005E4E4FF0FF320DF10F01D8F800000CF0A5
:10155000DCFE01280246F4D19DF80F30002B63D148
:10156000294630460BF0BAF808B100F0ABF908A8EC
:10157000FFF764FF0A2208A951480BF0EFF808B101
:1015800000F0A0F90024102210A802234AF64441DA
:101590000094FFF76FFF0DEB020301462C22484831
:1015A00004940BF0A3FA10B9049B2C2B01D000F08B
:1015B00089F9444CDFF808914FF0FF3206A9206802
:1015C0000CF0A3FE0128F7D1069FFFB93C4C102276
:1015D0001BA84AF64441E3682C3B00930223FFF723
:1015E00049FF394620460BF0C9FB1BA905AB2C224D
:1015F00020460BF07BFA2046FFF76AFF20460BF0EF
:10160000A4FB2021304806F084FE9AE7079A04AB39
:101610003946484652000BF069FA10B9049B002B7A
:10162000CAD100F04FF9C7E7022B8AD129463046CC
:101630000BF054F808B100F045F901222349204885
:101640000BF08CF808B100F03DF90024DFF8889029
:10165000DFF888A02C21DFF868B019480BF08EFB6A
:1016600000234FF4005258469C4214BF4F46574641
:10167000109310AB39460BF073F908B100F022F962
:10168000134A109B10685BB15B084FF0FF321BA937
:101690001B971C93002384F001040CF06CFCDFE723
:1016A0004FF0FF321BA9CDE91B330CF064FC04485A
:1016B0000BF04BFB45E700BFC00700208C05002066
:1016C0005C030020B8B90020002402401157030831
:1016D000B4B90020B0B900209C7900209C9900206A
:1016E000014900200DF0A4BB4944000808B5064B91
:1016F0001868FFF705FE01F039FF044B1868BDE8D4
:1017000008400DF017BA00BF08000020CCB9002037
:1017100000B54FF4407395B041F2883217480C93EE
:10172000062306A906930023CDE90D330F930B93EF
:101730001393CDE9113307F07FFCE0B902230122B6
:101740004FF4800104900D48CDE900331023CDE91A
:10175000023205236A46CDE905134FF0407306A90E
:101760000F9341F2883307F067FD003818BF01205E
:1017700015B05DF804FB0120FAE700BF10BD0020A2
:1017800007B50E4B012220210D481A6006F0C1FD5D
:10179000002301A901930B4B18680DF0F9FD019B83
:1017A0004BB14FF0E0234FF08052C3F8042DBFF34C
:1017B0004F8FBFF36F8F03B05DF804FBCC070020A1
:1017C00000240240A0B9002007B50F4B02224FF4BD
:1017D00000510E481A6006F09CFD002301A90193F8
:1017E0000B4B18680DF0D4FD019B4BB14FF0E0237B
:1017F0004FF08052C3F8042DBFF34F8FBFF36F8FAC
:1018000003B05DF804FB00BFCC07002000240240B9
:10181000A0B9002007B50F4B02224FF400510E482B
:101820001A6006F076FD002301A901930B4B18689E
:101830000DF0AEFD019B4BB14FF0E0234FF0805215
:10184000C3F8042DBFF34F8FBFF36F8F03B05DF864
:1018500004FB00BFD007002000240240A4B90020F0
:10186000FFF7D8BF07B50E4B012220210D481A60A3
:1018700006F04FFD002301A901930B4B18680DF0F2
:1018800087FD019B4BB14FF0E0234FF08052C3F82E
:10189000042DBFF34F8FBFF36F8F03B05DF804FBD0
:1018A000D007002000240240A4B90020FFF7DABFCF
:1018B0000268034B9A4201D105F032B9704700BF6C
:1018C0000010004001224FF40051014806F01CBDF9
:1018D0000024024000B595B01022002109A832F082
:1018E0008DFF1422002102A832F088FF254B012031
:1018F0004FF0190C1A6C4FF0090E42F080521A6426
:101900001B6C03F080530093009B1F4B1A6842F43A
:1019100040421A604FF480021B6803F44043019375
:10192000019B4FF48033CDE90703022307A8CDE9DB
:101930000D3211934FF4D8720723CDE90FC2CDE9D0
:1019400012E307F00BFD08B1FFF7BCFF07F00EFA3A
:1019500008B1FFF7B7FF02230F22002102A8CDE94B
:1019600002234FF4A053CDE904134FF48053072111
:10197000069307F0E5FE08B1FFF7A4FF15B05DF888
:1019800004FB00BF003802400070004000B5A5B065
:101990007C22002105A832F031FF40F2AD134FF454
:1019A00000226846CDE9002302230493CDE90233E7
:1019B000132309934FF480130F9307F093FF08B19B
:1019C000FFF780FF25B05DF804FB000008B5124862
:1019D000124A134BC0E9002300230122C0E904335B
:1019E000C0E90232C0E90633036206F0CEFD08B159
:1019F000FFF768FF0021084806F0F5FF08B1FFF780
:101A000061FF0021044807F014F818B1BDE8084050
:101A1000FFF758BF08BD00BF04BE002000600040B3
:101A2000684740202DE9F043BBB0102200214FF061
:101A300000582CA8012432F0E1FE1C2605F00CF918
:101A4000CA4B2CA8ADF8B040032540F20117CDE9F0
:101A50002D83C74B2F9305F01DF94FF010438DF8E0
:101A6000B14000242CA82D938DF8B8608DF8BB40B0
:101A7000ADF8BE4005F00EF902232CA88DF8BB503E
:101A80008DF8B1301923ADF8BE708DF8B83005F07F
:101A900001F94FF040432CA88DF8B86004262D932F
:101AA0008DF8B1508DF8BB40ADF8BE4005F0F2F8AE
:101AB00017232CA88DF8B1608DF8B8308DF8BB5085
:101AC000ADF8BE7005F0E6F8304605F0D3F8BFF388
:101AD0004F8FBFF36F8FA74AC2F85042BFF34F8FAB
:101AE000BFF36F8F536943F400335361BFF34F8FDC
:101AF000BFF36F8FC2F88440BFF34F8FD2F88030AE
:101B000043F6E074C3F3C900C3F34E335B0103EA49
:101B10000406014646EA81750139C2F86052F9D2DD
:101B2000203B13F1200FF2D1BFF34F8F536943F4E1
:101B300080335361BFF34F8FBFF36F8F8E4C04F030
:101B4000DDFFFFF7C7FE0025FFF720FF142200216D
:101B50002CA832F053FE236B002242F2220143F004
:101B60001003864801264FF4004723634FF0030813
:101B7000236B03F010030393039B236B43F00803D1
:101B80002363236B03F008030493049B236B43F04C
:101B900002032363236B03F002030593059B236B6E
:101BA00043F040032363236B03F040030693069B3B
:101BB000236B43F400732363236B03F400730793D5
:101BC000079B236B43F004032363236B03F004039D
:101BD0000893089B236B43F480732363236B03F404
:101BE00080730993099B236B43F020032363236BCA
:101BF00003F020030A930A9B236B43F080032363C3
:101C0000236B03F080030B930B9B06F07DFB0122FB
:101C10004FF40041594806F077FB0022C021584894
:101C200006F072FB00224021564806F06DFB42F29E
:101C300020032CA95148CDE92C36CDE92E5506F0CC
:101C4000DFF94FF480532CA94C482E95CDE92C3563
:101C500006F0D6F92CA94948CDE92C76CDE92E66B7
:101C600006F0CEF92CA948482E95CDE92C7506F042
:101C7000C7F9C0232CA942482E95CDF8BC80CDE9E8
:101C80002C3606F0BDF940232CA93E48CDE92C3670
:101C9000CDE92E5806F0B4F902232CA93748CDE936
:101CA0002C36CDE92E5806F0ABF9236B2A460521D8
:101CB00043F4800338202363236B03F480030293EF
:101CC000029B04F063FF382004F092FF2A460521AE
:101CD000392004F05BFF392004F08AFF2A460521F1
:101CE0003C2004F053FF3C2004F082FF2A460521EB
:101CF000442004F04BFF442004F07AFFFFF766FE17
:101D00002A4639461D4806F0FFFA142004F01AFF4F
:101D100032463946194806F0F7FA0A2004F012FF55
:101D20002422294615A80E9532F068FD182229466E
:101D30000FA832F063FD342229462CA832F05EFD54
:101D400029462C221EA832F059FD1048104B4FF0A6
:101D5000640E0CA9C0E900350423C0E9023605234E
:101D6000CDE90CE305F0C0FD14E000BF1200000354
:101D70000100010100ED00E00038024000240240B3
:101D800000080240001402400020024058BE00201B
:101D9000006C014008B1FFF795FD15A9C7481D95D6
:101DA000CDE91565CDE91755CDE91955CDE91B5597
:101DB00006F006F808B1FFF785FD21231C274FF038
:101DC0000F0C0FA9BD48CDE90F731923CDE911C33D
:101DD0000023CDE9133305F0B6FF08B1FFF772FD1C
:101DE0000421B64805F09EFF08B1FFF76BFD42F2F3
:101DF0001071B24806F0EEF808B1FFF763FD4FF43A
:101E00008071AE4805F00DFD08B1FFF75BFD4FF4A2
:101E100000734FF480724FF480614FF480504FF4A0
:101E200080444FF400354FF40026CDE92C234FF4C5
:101E30000063CDE92E134FF400532CA9CDE93003F4
:101E40004FF480339D48CDE932434FF48023CDE9F0
:101E500034534FF08073CDE936630223389305F095
:101E60002DFF08B1FFF72EFD002310224FF0C80808
:101E70004FF0040922931EA927939048CDE91E3301
:101E8000CDE92082CDE9253302220123CDE9239239
:101E9000289305F0A1FE08B1FFF714FD0021874843
:101EA00005F089FE08B1FFF70DFD342200211EA8C0
:101EB000834D32F0A3FC0024824B4FF0CA0C4FF04C
:101EC000CB0E28462C61AC8685F83640C5E9003437
:101ED0000123C5E905330223C5E907334FF4F17344
:101EE000C5E909C340F2E313C5E90244C5E90BE3C0
:101EF00006F042FE08B1FFF7E5FC4FF4F073022153
:101F0000C8224FF480676E481E942993ADF8A8400C
:101F10008DF8AA40CDE92131FF21CDE92314052117
:101F2000CDE91F24CDE92571CDE927421EA9002264
:101F300006F0EEFE08B1FFF7C5FC2A6800245F48F2
:101F40004FF40066936923F00103936105F09EFF4F
:101F50000121022004F06AFB28231522214657485C
:101F6000009405F0C6FF2CA954483694CDE92C44C2
:101F7000CDE92E44CDE93044CDE93244CDE93444B5
:101F800005F09CFE2A68504804219369402584602E
:101F900043F00103936107224C4BC4618462C0E9A2
:101FA00000342023C0E903134FF4C073C0E9055384
:101FB0004FF48053C0E908630223CDE92C32CDE908
:101FC00030330323CDE92E122CA9329308F08AFF77
:101FD00008B1FFF777FC012610254FF6FF721EA906
:101FE00039480F94CDE91E65CDE9206408F09AFFC9
:101FF000304604F0A7FD02234FF6FF721EA93248B7
:10200000CDE91E35CDE9206408F08CFF03234FF69F
:10201000FF721EA92C48CDE91E350823CDE92034D6
:1020200008F080FF4FF40C734FF6FF721EA90F9358
:10203000042325482096CDE91E350F9B219308F0F7
:1020400071FF40F22A71204808F08BFF4FF02043C7
:1020500043F2D2021E481A6003F580530462C0E9BD
:102060000036C0E9025519234FF44075C0E9064413
:10207000C0E9043506F08EFF08B1FFF723FC00230A
:10208000662641F288322CA9114832952C96359358
:1020900031933993CDE93333CDE9373306F0CCFFB3
:1020A000002800F00382FFF70DFC4FF4807341F22B
:1020B00088322CA90648329335230BE058BE002005
:1020C0005CBD002000680140D0B90020400100A0A4
:1020D00010BD00202C930023CDE933333593319389
:1020E0003993CDE9373306F0A7FF002800F08C8242
:1020F000FFF7E8FBB7234FF440741E9300232494AA
:10210000279323932B93CDE92533CDE92933FFF78B
:10211000FFFA20BB41F288321EA9BA4806F08CFFB4
:10212000E8B905233190399015AA2C934FF04073EC
:1021300015902CA93593012332941693CDE91830CC
:10214000102317934FF48003CDE93300CDE9370016
:102150001A9341F28833AB4807F06EF808B1FFF7E5
:10216000B1FB05234FF440764FF0407401252C93CA
:10217000002341F288322CA9A2483296359431933B
:10218000CDE93333CDE93653CDE9383306F054FF8A
:10219000002800F05A82FFF795FB05234FF44076A4
:1021A0004FF0407401252C93002341F288322CA972
:1021B0009448329635943193CDE93333CDE9365393
:1021C000CDE9383306F038FF002800F0A182FFF790
:1021D00079FB4FF440734FF040722CA98948329339
:1021E000EC232C934FF4406333934FF440532F93DD
:1021F0000023CDE934320A22399331921EAACDE967
:102200003733CDE91E3307F068F808B1FFF75AFB02
:102210007D480023DFF88082C0E90233C0E90083F3
:10222000C0E90E33C0E91033C0E9123305F0C8F934
:1022300008B1FFF747FB0121734805F081FA08B1A7
:10224000FFF740FBFEF78AFD7048714B03600023E7
:102250008380C0E905330123036204F053FD08B114
:10226000FFF730FB00246B4B6B4A01279C61C3E9ED
:102270000024C3E90244C3E90444FEF7FDFB6748B8
:10228000674B4FF0400C4FF0040E04630360802353
:102290004460C4638460C460C4628465C0E90D3472
:1022A0004FF40053C0E904344AF64443C0E90673CE
:1022B0002023C0E910C34FF48033C0E912340F2348
:1022C000C0E90944C0E91444C0E917E307F01AFF64
:1022D00008B1FFF7F7FA53480322534B40254260F9
:1022E00080220360002304260363C3630361C36089
:1022F0008365C0E90D230122826082611022C262DF
:102300002022C0E910524FF48032C0E90933C0E9FD
:102310001223C0E914330F23C0E9176307F0F2FE5C
:1023200008B1FFF7CFFA00244048414B0125C461B2
:102330000581C0E900344023C0E9083504F0E0FD20
:102340003C483D4B0471036002238460C0E90334C0
:10235000C0E90544C0E90744C0E90945C0E90B44A8
:1023600004F058FD08B1FFF7ADFA01222F481146DD
:1023700004F038FE01F0FFFA01F0FCFA0AF076FEF4
:102380002E4A002101200AF0BFFF2D4B08212D4AC3
:10239000186008460BF0A2F82B4B08212B4A186056
:1023A00008460BF09BF82A4B2A4A012118600420AA
:1023B0000BF094F8284B294A0121186004200BF0F7
:1023C0008DF8274B274A0021186027480AF0ACFEF9
:1023D000264B274A0021186026480AF0A5FE264B06
:1023E000264A0021186026480AF09EFE254B264A00
:1023F0000021186025480AF097FE254B254A002148
:1024000018604BE010BD002074BE002058BF0020B3
:1024100000300240C4BA0020001C01408CBC0020E7
:102420000458014008BC00202458014004BF00208B
:1024300000750140CCBE002000740140B88703083D
:10244000A8B9002010880308B8B90020F88703084D
:10245000B4B90020C8870308ACB90020E08703089E
:10246000B0B90020B8880308ED160008CCB90020E8
:102470009488030885390008C8B9002070880308CB
:10248000D5590008C4B900204C880308B10D0008D4
:10249000C0B900202888030800B0024099480AF01B
:1024A00043FE994B18600AF00BFEFEE7992441F2B7
:1024B00088322CA995482C9406F0BEFD00287FF4A4
:1024C000F2AD4FF4807541F288322CA98F483295D5
:1024D0002C9606F0B1FD00287FF4E5AD41F288327C
:1024E0002CA98A482C9406F0A7FD064600287FF404
:1024F000DAAD01244FF47A7004F024FB4FF0100998
:102500004FF4800805271E9641F288331EAA2CA995
:102510007E481F94CDF88090CDF88C8032952C9712
:10252000CDE921464FF08076359606F085FE0028ED
:102530007FF4B9AD319041F288322CA932952C97B5
:102540003596CDE93300CDE93640CDE938006F4806
:1025500006F072FD00287FF4A6AD41F2883215A97D
:102560006A4806F009FE00287FF49DAD06233590E9
:10257000319041F2883239902CA932952C93CDE9D3
:102580003300CDE93700614806F056FD00287FF49E
:102590008AAD02231EAA2CA9CDF88090CDF88C809C
:1025A0002C973596CDE91E33CDE9214041F2883391
:1025B000564806F041FE00287FF475AD9DF8543072
:1025C00041F2883231902CA943F0400332952C948B
:1025D00035968DF85430CDE93300CDE93640CDE95C
:1025E00038004A4806F028FD00287FF45CAD41F22F
:1025F000883215A9454806F063FD00287FF453ADE5
:10260000282004F09FFA50E541234FF0400C4FF092
:10261000010E22901EAA2CA93C48CDE91EC310230E
:10262000CDE9203E4FF4800323934FF4407332935F
:1026300005232C934FF04073359341F2883306F015
:10264000FBFD00283FF456AD52E541F288321EA949
:102650002E4806F091FD00287FF49DAD15233190A2
:1026600041F288322CA932962C933594CDE933006F
:10267000CDE93650CDE93800244806F0DDFC0028CD
:102680007FF489AD41F288320DF179011F4806F0DF
:1026900073FD00287FF47FADFFF73AF800287FF440
:1026A0007AAD0223C02232962C9535943190CDE933
:1026B0003300CDE93630CDE9380092FAA2F2032199
:1026C0009DF87930B2FA82F2104803F03F0301FA24
:1026D00002F22CA9134341F288328DF8793006F0CA
:1026E000ABFC00287FF457AD41F288321EA90748A1
:1026F00006F0E6FC00287FF44EAD282004F022FA14
:102700004BE500BF35150008BCB9002010BD002006
:1027100041F288321EA92B4806F02EFD00287FF4D6
:1027200056AD1523319041F288322CA932962C9364
:102730003594CDE93300CDE93650CDE93800214854
:1027400006F07AFC00287FF442AD41F288320DF1A8
:1027500079011C4806F010FD00287FF438ADFEF723
:10276000D7FF00287FF433AD0223072232962C9541
:1027700035943190CDE93300CDE93630CDE93800DC
:1027800092FAA2F206219DF87930B2FA82F20D484F
:1027900023F0070301FA02F22CA9134341F2883215
:1027A0008DF8793006F048FC00287FF410AD41F236
:1027B00088321EA9034806F083FC00283FF409ADC7
:1027C00005E500BF10BD0020FFF77CB80D4B82B0BF
:1027D0000F216FF001001A6C42F080521A641A6CDB
:1027E00002F080520092009A5A6C42F480425A647D
:1027F00000225B6C03F480430193019B02B004F060
:10280000C5B900BF00380240026882B0084B9A4246
:102810000BD1D3F8302803F5006342F480521A63D9
:102820001B6B03F480530193019B02B0704700BF00
:102830000030024030B5ADB014220021244C03A872
:1028400031F0DCFF9022002108A831F0D7FF236887
:10285000002B3AD14FF0006308A8089307F042F824
:1028600008B1FFF72FF81B4A13680133012B1360DF
:1028700009D1194B5A6C42F000525A645B6C03F058
:1028800000530193019B144B002503A913481A6BB5
:1028900042F008021A6318221B6B03F0080302932C
:1028A000029B0223CDE903230623CDE905550793B7
:1028B00005F0A6FB2A460521632004F067F9632092
:1028C00004F096F92368013323602DB030BD00BFBA
:1028D00084BF002088BF002000380240000C024066
:1028E00010B5ACB014220021204C03A831F086FFB3
:1028F0009022002108A831F081FF2368002B32D1FB
:102900004FF0006308A8089306F0ECFF08B1FEF74B
:10291000D9FF174A13680133012B136009D1154BF6
:102920005A6C42F000525A645B6C03F000530193FE
:10293000019B104B03A910481A6B42F008021A635E
:1029400018221B6B03F008030293029B0223CDE9BC
:1029500003230023CDE905330623079305F050FB3D
:102960002368013323602CB010BD00BF84BF00205A
:1029700088BF002000380240000C02400E4B07B513
:1029800002689A4215D1A3F5F04305215A201A6B2B
:1029900042F400021A6300221B6B03F4000301934C
:1029A000019B04F0F3F85A2003B05DF804EB04F047
:1029B0001FB903B05DF804FB00B0024010B588B049
:1029C00004461422002103A831F018FF2268154B99
:1029D0009A4225D103F54C4303A913485A6C42F09F
:1029E00000625A645A6C02F000620192019A1A6BFA
:1029F00042F400721A6304221B6B03F40073029307
:102A0000029B0223CDE903230D23079305F0F8FA77
:102A100062200022052104F0B9F8622004F0E8F8F1
:102A200008B010BD006C014000240240F0B5ADB00C
:102A300004461422002103A831F0E0FE9022002178
:102A400008A831F0DBFE2268254B9A4246D14FF4AC
:102A5000003308A8089306F045FF08B1FEF732FFDF
:102A6000204C122701260325236B03A91E4843F09F
:102A700002032363236B03F002030093009B236B89
:102A800043F008032363236B03F008030193019BC6
:102A90008023CDE903370B23CDE90565079305F0C6
:102AA000AFFA4FF4805303A91048CDE9033704234C
:102AB000CDE90565079305F0A3FA236C5F2000229A
:102AC000052143F080732364236C03F08073029329
:102AD000029B04F05BF85F2004F08AF82DB0F0BD93
:102AE000006000400038024000040240000C024038
:102AF000026808B50B4B9A4212D10B4A80210B4851
:102B0000136C23F08073136405F05EFB08484FF4E8
:102B1000805105F059FB5F20BDE8084004F076B80D
:102B200008BD00BF006000400038024000040240C1
:102B3000000C024010B5A6B004469022002102A865
:102B400031F05CFE2268144B9A4222D10823072000
:102B500002934FF4C07307930223CDE90830012399
:102B600002A80C9306F0BEFE08B1FEF7ABFE0B4BBD
:102B7000582003215A6C42F080625A6400225B6C38
:102B800003F080630193019B04F000F8582004F0E7
:102B90002FF826B010BD00BF006801400038024089
:102BA000142200212DE9F0418AB004460DEB020009
:102BB00031F024FE22683A4B9A426ED1394B0225FD
:102BC000032409269A694FF0040805A9364842F003
:102BD000020200279A619A6922F002029A619A6BB6
:102BE00042F002029A639A6B02F002020092009A8B
:102BF0001A6B42F010021A631A6B02F01002019273
:102C0000019A1A6B42F002021A631A6B02F0020276
:102C10000292029A1A6B42F004021A631A6B02F0D3
:102C200004020392039A1A6B42F008021A631B6BA8
:102C300003F008030493049BCDE90585CDE908461C
:102C400005F0DEF9402305A91848CDE90535012333
:102C5000CDE907340A23099305F0D2F94FF4C06394
:102C600005A913480996CDE90535CDE9077405F0A6
:102C7000C7F905A90D480996CDE90585CDE9077481
:102C800005F0BEF94FF4005305A90A480996CDE9AD
:102C90000535CDE9077405F0B3F90AB0BDE8F08158
:102CA000001000A000380240001002400004024062
:102CB00000080240000C02402DE9F041ACB005468E
:102CC0001422002103A831F099FD9022002108A8C8
:102CD00031F094FD2A684E4B9A4240F095804FF0B7
:102CE000846308A8089306F0FDFD08B1FEF7EAFD2D
:102CF000484B00264FF0020803275A6C0B2403A907
:102D0000454842F080025A645A6C02F080020092F8
:102D1000009A1A6B42F008021A631A6B02F008025A
:102D20000192019A1A6B42F040021A631B6B0794DE
:102D300003F040030293029BC023CDE90567CDE970
:102D4000033805F05DF94FF4007303A93348079485
:102D5000334CCDE90338CDE9056705F051F94FF063
:102D6000B053DFF8C8E04FF480684FF480424FF46E
:102D7000000120462662C4E900E34FF48053C4E911
:102D800004832023C4E906230423C4E909374FF44C
:102D90000013C4E90266C4E90B1304F01BFA08B17E
:102DA000FEF790FD1F4A4FF0B0532C644021A563FD
:102DB0004FF480601C4C04274FF480464FF4000C05
:102DC000C4E9002300234FF48052C4E902132362B4
:102DD0000323C4E90402C4E9097320224FF4001359
:102DE0002046C4E90662C4E90BC304F0F3F908B154
:102DF000FEF768FD672000220521EC63A56303F060
:102E0000C5FE672003F0F4FE2CB0BDE8F08100BFE2
:102E1000001C014000380240000C02400018024033
:102E200064BA00208864024004BA002010640240A2
:102E3000F0B5002387B003932A4B1E68002E4FD1B4
:102E40000122022703250C241A6001A9264B2748DA
:102E50009A6B42F001029A639B6B03F001030093AB
:102E6000009B4FF68373CDE90454CDE9013705F09B
:102E7000C7F848F2331301A91D480594CDE901377D
:102E8000CDE9036505F0BCF84CF2037301A91948BC
:102E90000594CDE90137CDE9036505F0B1F840F2BD
:102EA000FF6301A914480594CDE90137CDE9036515
:102EB00005F0A6F84FF63F0301A910480594CDE9A7
:102EC0000137CDE9036505F09BF84FF62C7301A996
:102ED0000B480594CDE90137CDE9036505F090F87D
:102EE00007B0F0BD80BF0020003802400010024053
:102EF00000180240000C0240002002400014024072
:102F0000001C024002684A4B9A42F0B5054689B05F
:102F10004AD1484803684BB9474A516C41F4800193
:102F20005164526C02F480020192019A013300262E
:102F3000062402270360702303A940480794CDE9C3
:102F40000337CDE9056605F05BF880233C4803A90B
:102F500007943C4CCDE90337CDE9056605F050F800
:102F6000394B4FF4806C4FF4804E4FF400322046C2
:102F70002663C4E900364023C4E902364FF40063F7
:102F8000C4E904C34FF48073C4E906E30423C4E92D
:102F900008230323C4E90A3604F01CF908B1FEF73C
:102FA00091FC2C67A563EC662A68284B9A423CD1B9
:102FB000204803684BB9204A516C41F480015164A8
:102FC000526C02F480020292029A01330822002617
:102FD00003A90360022319484FF400571C4CCDE9A4
:102FE00003230623CDE90566079305F009F84FF0A2
:102FF000007318494FF48060C4E900134FF4006374
:10300000C4E904034FF480732046C4E906734FF407
:103010000033C4E90266C4E9083604F0DBF808B1FD
:10302000FEF750FC2C67A563EC6609B0F0BD00BF4D
:10303000045801407CBF00200038024000100240CC
:1030400000180240A8BB0020286402402458014018
:1030500048BB00207064024002681C4B9A4210B5C5
:10306000044617D11A4A1368013B136023B9194A61
:10307000536C23F4800353647021174805F0A4F8BF
:103080008021164805F0A0F8206F04F021F9E06EC9
:1030900004F01EF92268124B9A4215D10C4A1368AB
:1030A000013B136023B90B4A536C23F48003536430
:1030B0000821094805F088F8206F04F009F9E06E4E
:1030C000BDE8104004F004B910BD00BF0458014031
:1030D0007CBF00200038024000100240001802406F
:1030E00024580140214B1A6C42F0100270B588B090
:1030F0001A641B6C054601A903A803F01003029390
:10310000029B06F0D1FB069B4BBB06F0BDFB184EA5
:10311000184B336040F2E733F360174BB0FBF3F327
:10312000013B3046736000233361B360B36108F044
:103130006BF8044680B9304607F02CFF044658B9B6
:10314000362003F055FD0F2D0DD822462946362096
:1031500003F01CFD094B1D60204608B070BD06F051
:1031600093FB4000D3E70124F6E700BF003802409C
:103170008CBF00200010004040420F004C00002097
:103180007047FEE7FEE7FEE7FEE77047014807F0FD
:1031900043BF00BF8CBF0020014804F051B900BFFD
:1031A00064BA0020014804F04BB900BFA8BB00205E
:1031B000014804F045B900BF48BB0020014804F0B5
:1031C0003FB900BF04BA0020014805F044BD00BF6C
:1031D0005CBD0020014804F029BA00BF74BE002085
:1031E000014805F0F9BB00BF04BE0020014804F00F
:1031F00070BC00BF58BE0020014803F015BF00BFDF
:1032000004BF0020014807F06BBD00BFC4BA002016
:103210000120704708B531F0A5FB162303604FF07D
:10322000FF3008BD08B531F09DFB16230360FEE7B3
:1032300070B50D4614460E46731B9C4201DC2046B9
:1032400070BDAFF3008006F8010BF5E770B50D46D1
:1032500014460E46731B9C4201DC204670BD16F8D6
:10326000010BAFF30080F5E74FF0FF3070474FF4EC
:10327000005300204B6070470120704700207047CA
:103280000A4A116808B5034609B90949116010686E
:10329000694603448B4206D931F064FB0C2303607A
:1032A0004FF0FF3008BD1360FCE700BFD8BF00201F
:1032B0000034022070B5304D88B0304C00262846CE
:1032C00005F0B8F92E4A2F4B4FF480510220C5E982
:1032D00000230123C5E90466C5E90263C5E9076661
:1032E000236B43F008032363236B03F0080300936D
:1032F000009B236B43F002032363236B059603F0CB
:1033000002030193019B1223CDE90313042303A9B4
:10331000CDE906031C4804F073FE802303A91B4873
:1033200003930B23079304F06BFE236C32460F21AB
:103330005F2043F080732364236C03F08073029357
:10334000029B236A43F080732362236A23F0807315
:10335000236203F01BFC5F2003F04AFC32460F217E
:10336000602003F013FC602003F042FC284605F0C7
:103370000CF908B070BD00BF04BE00200038024048
:103380000060004032279140000C024000040240DF
:1033900010B51C0A86B0DBB28DF814404FF47A7475
:1033A0008DF815300223CDE9013405AC009405F009
:1033B0005BF9044608B1FFF77DFF204606B010BD5B
:1033C00038B5154B1C68BCB10129C5B216D14FF4F4
:1033D00000734FF4846229461048FFF7D9FF041E9A
:1033E0004FF4007318BF012440F2224229460B48D3
:1033F000FFF7CEFF00B10134204638BD00234FF463
:10340000846229460548FFF7C3FF041E4FF00003FE
:1034100018BF0124E8E700BFE0BF002004BE002081
:1034200064292DE9F04198BFC1EB81134FF0640787
:1034300006460D469CBFB3FBF7F3DFB2484B1C6852
:103440008CB33E2F29D9F7B20021FFF7B9FF40F224
:103450007F1304461C2239464248FFF799FF00B10A
:10346000013440F27F131D2239463E48FFF790FF9A
:1034700000B1013440F27F13262239463948FFF764
:1034800087FF00B1013440F27F13272239463548C7
:10349000FFF77EFF38B1013405E000293BD101215F
:1034A000FFF78EFF0446304B1B688BB3632DF6B2DB
:1034B0004FF480622B489ABFC5EB05156423EF25B6
:1034C00031469EBF2D01B5FBF3F5EDB245F4807595
:1034D0002B46FFF75DFF00B101342B4640F201425D
:1034E00031462048FFF754FF00B101342B4640F22B
:1034F000044231461B48FFF74BFF00B101342B4615
:1035000040F2054231461748FFF742FF00B101344F
:103510002046BDE8F0815FFA86F80021FFF750FFF2
:103520003B4604461C2241460E48FFF731FF00B1DE
:10353000013447F4A0771D2241460A483B46FFF775
:1035400027FF00B101343B46262241460548FFF7DC
:103550001FFF00B101343B4640F22242414696E74C
:10356000E0BF002004BE0020DCBF00200023342187
:10357000A9481A4670B5A94DA94E2B603360FFF7D4
:1035800007FF041E4FF003034FF481724FF0340124
:10359000A14818BF0124FFF7FBFE00B1013400234E
:1035A00040F6170234219C48FFF7F2FE08B10134BF
:1035B000E4B200234FF4817234219748FFF7E8FE0C
:1035C00008B10134E4B26C23392234219248FFF768
:1035D000DFFE08B10134E4B21323012234218E4806
:1035E000FFF7D6FE08B10134E4B201233220336084
:1035F00003F0A8FA40F20333052234218648FFF78E
:10360000C7FE08B10134E4B2012340F20162342163
:103610008148FFF7BDFE08B10134E4B2012340F256
:10362000026234217C48FFF7B3FE08B10134E4B2F2
:10363000002340F2046234217748FFF7A9FE08B165
:103640000134E4B2002340F2056234217248FFF7EE
:103650009FFE08B10134E4B20123282234216E48D0
:103660002B601123FFF794FE08B10134E4B220234C
:10367000292234216848FFF78BFE08B10134E4B2F7
:1036800020232A2234216448FFF782FE08B1013446
:10369000E4B240F20333042234215F48FFF778FE9E
:1036A00008B10134E4B2DB234FF4886234215A4874
:1036B000FFF76EFE08B10134E4B246F25033022245
:1036C00034215548FFF764FE08B10134E4B2022307
:1036D00040F2066234215048FFF75AFE08B1013427
:1036E000E4B2022340F2076234214B48FFF750FE58
:1036F00008B10134E4B20D234FF4E06234214648AE
:10370000FFF746FE08B10134E4B273234FF40472AC
:1037100034214148FFF73CFE08B10134E4B244F2E1
:1037200010034FF4407234213B48FFF731FE08B1DB
:103730000134E4B2002340F2023234213648FFF76C
:1037400027FE08B10134E4B20A234FF40272342197
:103750003148FFF71DFE08B10134E4B201234FF4F4
:10376000007234212C48FFF713FE08B10134E4B293
:103770004FF44073032234212748FFF709FE08B1B4
:103780000134E4B20023222234212348FFF700FE53
:1037900008B10134E4B20023232234211E48FFF78C
:1037A000F7FD08B10134E4B24FF4407336223421FE
:1037B0001948FFF7EDFD08B10134E4B243F2030309
:1037C000012234211448FFF7E3FD08B10134E4B2CB
:1037D0000523512234211048FFF7DAFD08B10134E6
:1037E000E4B243F20333012234210B48FFF7D0FD4A
:1037F00008B10134E4B22223602234210648FFF7E5
:10380000C7FD08B10134E4B249F625734C223421D6
:103810000148FFF7BDFD05E004BE0020DCBF00202D
:10382000E0BF002008B10134E4B20F2003F08AF9B0
:1038300001232D2234214C48FFF7AAFD08B10134A1
:10384000E4B201232E2234214748FFF7A1FD08B13D
:103850000134E4B24FF44C73032234214248FFF7A1
:1038600097FD08B10134E4B23323542234213E4899
:10387000FFF78EFD08B10134E4B240F2011003F00D
:1038800061F9EE23602234213748FFF781FD08B14A
:103890000134E4B2C0234FF4C26234213248FFF74E
:1038A00077FD08B10134E4B2C02340F21162342143
:1038B0002D48FFF76DFD08B10134E4B200234FF449
:1038C000846234212848FFF763FD08B10134E4B273
:1038D000C02340F2126234212348FFF759FD08B19A
:1038E0000134E4B2C02340F2136234211E48FFF7D2
:1038F0004FFD08B10134E4B2002340F222423421EA
:103900001948FFF745FD08B10134E4B2174D3420E2
:103910002978FFF785FD0B23182234211248FFF781
:1039200037FD08B10134E4B20B231A2234210E48CA
:10393000FFF72EFD08B10134E4B24FF4F0434FF429
:10394000826234210848FFF723FD08B10134E4B254
:1039500029783420FFF764FD24B14FF40051044866
:1039600004F0D7FC204670BD04BE002005000020F6
:1039700000240240704708B501F0A8FCBDE80840EB
:1039800001F02CBC01F0A4BC174B1A6B42F00102F1
:1039900010B586B01A631B6B03F001030093009B04
:1039A00059B9012303911148CDE90131022301A93D
:1039B000049304F025FB06B010BD0129FBD10024BF
:1039C0000223019101A90948CDE903434FF488136B
:1039D000029304F015FB22460F21062003F0D6F8CF
:1039E000062003F005F9E6E7003802400000024037
:1039F000002108B50846FFF7C7FF08BD01210248AE
:103A000008B504F07BFC08BD0000024008B50020AA
:103A1000FFF7F4FF08BD4068704741607047000041
:103A20004FF0E022D2F8FC3D43F08073C2F8FC3D39
:103A3000054B064AD3F8B01F0A43C3F8B02F1A68E3
:103A400042F001021A607047001000E055CEACC58C
:103A5000521A02EB5302B2FBF3F07047014B586865
:103A6000704700BF001000E0704710B504460C21FD
:103A700030F08DF8204610BD036810B51B69044670
:103A800031B19847A26863689B1A0344636010BD14
:103A90009847A060FBE770477047000008B5FFF744
:103AA000A7FF024B00221A6008BD00BFE4BF002040
:103AB00070B50D46FFF7AAFF0B4AC4B2937856784B
:103AC000117813F00100D3709670517014700AD001
:103AD00016F0010007D011F0010004D0E30756BF33
:103AE00001200020287070BDE4BF002010B50446FE
:103AF000042130F04CF8204610BD704710B5044644
:103B0000042130F044F8204610BD70477FB50123F2
:103B10008DF817204FF47A72CDE901320DF11702BA
:103B200000920A460146064804F09EFD20B1044872
:103B300004F080FDFDF74AFF07B05DF804FB00BF0D
:103B400004BE00207FB500230A464FF47A718DF839
:103B500017300123CDE901310DF117010091014624
:103B6000064804F05BFE20B1044804F063FDFDF755
:103B70002DFF9DF8170007B05DF804FB04BE002080
:103B80001FB54FF47A7400920A4601460748CDE902
:103B90000134012304F042FE044620B1034804F03E
:103BA00049FDFDF713FF204604B010BD04BE002000
:103BB000F8B5134D0646134C0F462B6820789847EE
:103BC0006B6854209847C0B2112809D06B687020E8
:103BD00098477023C0B22370112803D00320F8BD8A
:103BE00054232370084BBE422CBF0C26012620789C
:103BF0001E70AB6898472078EB6898470020EEE786
:103C00001C000020F9BF0020FABF002008B54FF4C7
:103C1000F0714FF44870FFF7CBFF074B10B901224A
:103C20001A7008BD1B78002BFBD1044B6A21044A93
:103C3000044830F025FB00BFF8BF0020B45703084C
:103C4000C7570308F15703082DE9F04F344A0546DA
:103C5000DFF8DCA085B01078DAF8103098472870CB
:103C600050B1304FA946304E03AC0DF1080B4FF068
:103C700000082B78984503D3002005B0BDE8F08FED
:103C8000274822465946DAF81430007808F101082E
:103C90009847264BBC46B6461B78043704361907AE
:103CA00041BFBBF8002021882280ABF800109A07A2
:103CB00041BFBBF80020C2F547720332ABF80020C9
:103CC0005B0757F8042C48BF23883BF8020B42BF20
:103CD000C3F5EF730133238093B2904234F8021B93
:103CE0008CBFC31A1B1A9BB2019356F8043C9AB2BC
:103CF0009942019B8CBF8A1A521A92B21344052B27
:103D0000C8BF47F8040CDCF80030C8BF46F8041CF4
:103D100029F8023FDEF80030A9F80430A9E700BF17
:103D2000F9BF0020F0BF0020E8BF0020FABF00204C
:103D30001C0000207FB50B4B0E4615461C781CB9A5
:103D40000024204604B070BD01A8FFF77DFF9DF858
:103D50000430002BF4D0BDF806303360BDF80A30D3
:103D60002B60EEE7F8BF0020032823D8DFE800F03F
:103D7000020B121A104B40211A68B2FA82F2520951
:103D80000E4804F0C1BA0C4B80215A68B2FA82F294
:103D90005209F5E7084B022109489A68B2FA82F203
:103DA0005209EEE7044B40210648DA68B2FA82F283
:103DB0005209E6E7704700BFFCBF00200008024040
:103DC0000024024000140240032823D8DFE800F05A
:103DD000020B121A104B40211A68003A18BF012238
:103DE0000E4804F091BA0C4B80215A68003A18BF73
:103DF0000122F5E7084B022109489A68003A18BFEA
:103E00000122EEE7044B40210648DA68003A18BF69
:103E10000122E6E7704700BFFCBF00200008024017
:103E2000002402400014024003280FD8DFE800F00D
:103E30000206080B4021064804F06BBA8021FAE71D
:103E400002210448F8E740210348F5E7704700BF26
:103E500000080240002402400014024008B5032874
:103E600013D8DFE800F0020A0C0F4021084804F0E4
:103E700045FA431E5842584108BD8021F6E7022109
:103E80000448F4E740210448F1E70020F1E700BFCF
:103E900000080240002402400014024070B5084DA2
:103EA00000240126E0B2FFF7D9FF18B12B68012BDF
:103EB00018BF2E6001340435052CF3D170BD00BF4E
:103EC000FCBF0020012380F8781080F8793070471B
:103ED0000020704741640039024B18BF012119705E
:103EE000704700BFBF26022000207047836B0BB1D4
:103EF0000846184770474FF6FF70704740680368E0
:103F00009B691847014B1868704700BF20C000200C
:103F100070470000F0B40023104CC4F88430BFF3A5
:103F20004F8FD4F8803043F6E076C3F3C905C3F36E
:103F30004E335B0103EA060C2A464CEA8277013ACB
:103F4000C4F87472F9D2203B13F1200FF2D1BFF301
:103F50004F8FBFF36F8FF0BC01F0D0BA00ED00E0DF
:103F600008B501F04DFA024B0422DA6008BD00BF2B
:103F700000E100E010B5044601F0D0FB94F84B30AE
:103F800013B1024B01221A7010BD00BF0E000020B9
:103F9000014B196001F03DBA20C0002010B5044665
:103FA00019F0F2FC23682046D3F8AC30BDE810408D
:103FB000184718F055BF10B504467C212FF0E7FDD7
:103FC000204610BD024B00221A7018F085BF00BFBA
:103FD0000E00002038B50446074D01F067FA0023B3
:103FE000284684F84A30FFF71BFD0123256184F839
:103FF0007030024B636138BD14C0002010C0002037
:104000000368044607B5D3F88030984723682046F4
:104010009B6F984700F084FA236820461B6F9847EF
:104020000021292315220548009103F062FF00F0CA
:1040300077FA236820461B6F9847F8E758BE0020A0
:1040400008B501F0D5F9002207215A2002F09EFDA3
:10405000002207216220BDE8084002F097BD000061
:1040600090F834100D4B10B590F878401A788C42C7
:1040700009D03AB90A490B4A0888148810800122ED
:104080000C801A7010BD002AFCD0064A044914881E
:1040900008880C8010800022F3E700BFB8260220B9
:1040A000B6260220B426022008B5094B1B888B4295
:1040B00003D8084B1B88934205D9074B9E21074A1A
:1040C000074830F0DDF8074B1980074B1A8008BD10
:1040D000B4260220B62602203C5803089F58030845
:1040E000E2580308BA260220BC26022008B501F0D7
:1040F00047FB044B0422C3F88C20BFF34F8FBFF360
:104100006F8F08BD00E100E0034690F87A0018B117
:10411000586803681B6818477047000070B50D4663
:1041200019460B4B1D6035B90A4B40F2D2210A4AA1
:104130000A4830F0A5F8C0E90F52003A084B18BF02
:1041400001221A700368BDE87040D3F88C3018471C
:1041500020C00020275903085F590308E2580308CC
:10416000BE26022070B5C0E90112C3604FF4807210
:104170000023BDF81050BDF81460038580F82A3084
:10418000B542C362038680F85830436680F87030C9
:10419000C0E91223144AC0E91A23144AC0E90433BF
:1041A000C0E90633C0E90833C0E90E33C0E9103373
:1041B000C0E91433C0E91733436782670C4A1060C3
:1041C0000C4A15800C4A158028BF00250B4A38BFC1
:1041D000012516800A4A80F834501680094A137067
:1041E000094B036070BD00BF010000010000010128
:1041F000C0260220B4260220BA260220B6260220BB
:10420000BC260220B82602204089030802F09ABC8E
:104210000128034607B50AD84B78152208480093B1
:104220000B78002103F065FE03B05DF804FB0191FB
:104230000A5C002102480092392203F06BFEF3E78A
:1042400058BE00200C4B012213B51A70DF220B4C14
:1042500000215A70392201934423204600930223FF
:1042600003F058FE0021352315222046009103F06B
:1042700040FE02B010BD00BF0CC0002058BE0020A0
:1042800010B50446FFF7DEFF0F4B022220461B68E5
:10429000C3F810240122C3F81024D3F8082442F0F4
:1042A0000102C3F80824D3F8082442F00202C3F83C
:1042B0000824064B1A68536B43F00303BDE8104013
:1042C000536301F0A5B800BF58BE00205CBD0020BC
:1042D000F0B589B0294B064604AA03F1100715462C
:1042E0001868083353F8041C1446BB4203C4224622
:1042F000F6D1234C05EB86052A23392201950021AE
:104300000093204604234FF4C87503F003FE23688E
:1043100000201C490290D3F80424096822F0080206
:10432000C3F80424D3F8042402F008020292029A8B
:10433000154A126805FB0211144AC2F8AC10144960
:10434000116101F1011151611249C2F8881012493D
:10435000C2F8B0100121516203902046D3F8042422
:1043600042F00802C3F80424D3F8043403F008032D
:104370000393039B03F0ADFD09B0F0BD9056030815
:1043800058BE002020C0002024C00020006801404A
:10439000E201CA000300CA009301400638B5124C7E
:1043A000226892F86A30013382F86A3000F0ACF883
:1043B0000E4B1A780E4B1AB92268197882F84A10F7
:1043C0001B787BB10B4D287860B9FFF7CDFC2068D6
:1043D00008B119F0D9FA084B00201860FFF778FFF0
:1043E00001232B7038BD00BFC0260220BE2602204C
:1043F0000E00002028C0002024C0002008B50E4B6D
:104400001868022806DC01301860C0B2BDE8084018
:10441000FFF75EBF094B00221A70094B186828B1DC
:10442000084B1B7813B903681B6A98470020BDE846
:104430000840FFF7C9BC00BF24C0002028C00020EE
:10444000C0260220BE260220014608B5034B18688C
:1044500001B1012119F0B2FA012008BDC0260220E5
:10446000054B002205485A609A60054A1A60054BC0
:104470000360FFF713BB00BF14C0002010C0002072
:10448000E48803080C8903080121002208B50846C6
:1044900008F03AFF0A4B186028B90A4B28210A4A4B
:1044A0000A482FF0EDFE00220421012009F016F841
:1044B000074B186018B9074B2C21034AF0E708BDD9
:1044C00030C00020AD590308F6590308255A0308E7
:1044D0002CC00020705A0308024B4FF0FF311868BF
:1044E00008F06ABF30C00020014B186808F0A0BF78
:1044F00030C00020024B0021186808F05DBF00BFEB
:1045000030C00020FFF7F0BF0023034803491A46DC
:10451000006809F029B800BF2CC00020100000205E
:1045200013B50023074C01A91A46206809F05EF86C
:104530004FF0FF33002201A9206809F057F802B0BC
:1045400010BD00BF2CC0002003685B6C1847012021
:10455000704703689B6A1847FEE700000E4B82B065
:104560001A6B42F400021A631A6B02F40002019201
:10457000019A1A6942F400021A611A6922F40002CF
:104580001A61064B064A9A61064ADA614FF0806268
:10459000054B9A6002B070470038024074BE00209C
:1045A000354800085945000800E100E040F2EF30CE
:1045B00070470000054B4FF080620360044BC3F866
:1045C0008820BFF34F8FBFF36F8F7047188A03089F
:1045D00000E100E010B504464FF45A61FFF7EAFF2E
:1045E00020462FF0D4FA204610BD000008B50A2856
:1045F00009D8DFE800F006100E08080808101010AF
:104600001000022008BD054B9021054A05482FF0F7
:1046100037FE0020F6E70120F4E700BFB25A030896
:10462000CD5A0308185B030838B50C46887FFFF79E
:10463000DDFF174BA58AE28A586342EA05422169E9
:104640005A64628BD963521B1A642568082D0ED1F7
:104650009A611A6158620F4A207F42EA0062DA6169
:10466000E2681A620C4A5961D9601A6038BD0022AA
:10467000D8611A61E1680A0A4809C1F3C40102F469
:10468000784200F4FC6002430A439A63034AECE771
:1046900000B00240090001000123020001230300D1
:1046A00008B50B280BD8DFE800F00612100A0A0A3A
:1046B0000A0808080808022008BD0520FCE7054B89
:1046C0006F21054A05482FF0DBFD0020F4E70120AB
:1046D000F2E700BFB25A0308615B0308185B0308E6
:1046E0002DE9F04191F81D800C464046FFF7D8FFB8
:1046F000A77F05463846FFF7D3FF06463846FFF743
:1047000075FFA18A628B434B521A1A649A61228BFD
:10471000521A1A61E28A586342EA014221695A64D4
:104720006268D963DA602068802828D0227F0FD899
:10473000202866D0402864D004281AD045EA0265B3
:10474000344BB84545F40035DD6160D0324A44E071
:10475000B0F5807F04D0B0F5007FEFD12F4800E0A6
:104760002F4840EA0262DA61E2681A625E625961C9
:1047700032E045EA026242F40032DA61F6E7A0680C
:10478000021DDA62227F45EA026545F40035DD61EB
:104790005E625961017841B1012921D0214B4FF46A
:1047A0008D71214A21482FF06BFDDA69418822F48E
:1047B0007F42013922F0100242EA01220121DA612E
:1047C000144BDA6942F02002DA61DA699206FCD40D
:1047D00010229A600029B9D0154A1A60BDE8F0810C
:1047E000B2F1FF01DA69408822F47F4218BF01214B
:1047F000013822F0100242EA002242F01002DA618F
:10480000DEE745EA0262034B42F40032B5E742F2CA
:104810000132E2E700B0024001230100090002007A
:104820000A000200AB5B0308C55B0308185B0308C2
:1048300001230200024B1B68586803685B69184734
:10484000C026022070B504460A4B0C3000262546CF
:10485000602260602672667245F8203B294619F096
:1048600003FA04F55A63EE6024359D42FBD12046DD
:1048700070BD00BF188A0308034B1A68D207FCD426
:1048800023229A60704700BF00B00240094B5A696A
:10489000D2030AD5BFF34F8F08440029A0EB0102D1
:1048A00004DCBFF34F8FBFF36F8F70472039C3F81D
:1048B0006822F2E700ED00E030B5104C2568ED0706
:1048C000FCD423250904FF2BA56041F001014FF022
:1048D000020565636164E0630AD00949656241EAE3
:1048E0000363E361074B22626061E060236030BDD7
:1048F000E561039BA363044BF8E700BF00B00240EF
:1049000009000100010002000100030030B50F4C56
:104910002568ED07FCD423251204FF2BA56042F087
:1049200001024FF0020565636264E063E16008D054
:104930001B0643F00213E361054B6562606123606F
:1049400030BD044BE3610123F9E700BF00B0024032
:1049500001000200020002FF30B50B4C2568ED0794
:10496000FCD4232512041B06A56042F00102022597
:1049700043F4003365636264E063E160E361034B29
:1049800065626061236030BD00B00240010002003A
:104990004069704790F844007047036B23B9C06AC0
:1049A000003818BF012070470120704780687047A9
:1049B000043010B50C460FC884E80F0010BD7047D6
:1049C00008B5034A40F21221024B03482FF058FC6D
:1049D000035C0308FF7203085E5C030810B504461D
:1049E00048212FF0D4F8204610BD00002DE9F043F7
:1049F0001C46436BADF51F7D05460E461746002B42
:104A000037D0002203A8DFF8A890CDE9013210F0DA
:104A10007BFF4FF4F4725021249024A80AF043FF46
:104A20003A46314624A80BF08DFE012124A80BF054
:104A300035F8022324A88DF8D8300BF0D0F8BDF853
:104A400098322B9ABDF89C629342A89F28BF1346C8
:104A5000419A964203EB4308A7EB430728BF16464B
:104A6000479B9E4209D824A80BF03AF824A80AF0E4
:104A700067FF0DF51F7DBDE8F083012201A924A881
:104A80000BF0F6F86B6B03EB0800984201D83C443E
:104A9000E6E759789A78C90009EA022201F4FC6134
:104AA0000A4313F8031B42EAD10224F8022BECE775
:104AB00000F8FFFF0A4A02600022C0E90522C0E9AF
:104AC0000722C0E90922C0E90B22C0E90D12C0E9A2
:104AD0000F2280F84420C0E90322C0E90122704778
:104AE000688A030810B40C4611461A46036B3BB1A2
:104AF000036C806BE41A20445DF8044B2FF086BEF3
:104B0000C06AF8E7036B10B573B1036C826BC91A06
:104B10005318525C98785C780004DB7840EA0420F3
:104B2000104340EA036010BDC36A5858FBE7036BAB
:104B300043B1036CC91A836B5A18585C527840EA27
:104B400002207047C36A585A7047000070B5044687
:104B5000006B0D461646D8B1E36B934208D2092389
:104B60000D4A65210D4884F844300D4B2FF088FB29
:104B70000368DB689847206B3246A16B03681B69AA
:104B8000984710B90D2384F84430A06B256470BD9C
:104B9000E06A0844FBE700BFC65C03085E5C0308EC
:104BA000B35C03082DE9F843436904462BB9234B52
:104BB000AA21234A23482FF063FB08228169FFF7CB
:104BC000C5FFA16943F2300646F26437043120463E
:104BD000FFF798FFA3691844A36A00F108029A42FC
:104BE00006D3012300206361236AA361BDE8F88333
:104BF000636909300822013320F001012046636116
:104C0000A161FFF7A3FFD4F8189020464946FFF7AB
:104C10008EFF09F1020180462046FFF788FF09F167
:104C2000040105462046FFF76DFFB045D2D1BD42D5
:104C3000D0D10028CED00120D8E700BF085D0308FE
:104C4000515D03085E5C03082DE9F04F0446ADF5A5
:104C50001F7D8A461646816908229846FFF776FF2F
:104C6000A7692046391DFFF74DFF07F108010246ED
:104C700005462046FFF76AFF636B074633B93C4B96
:104C800040F2AB113B4A3C482FF0FAFA002203A84D
:104C9000CDE9013210F038FE4FF4F4725021249027
:104CA00024A80AF000FE2A46394624A80BF04AFD43
:104CB000012124A80AF0F2FE022324A88DF8D8309E
:104CC0000AF08DFFBAF90250479BAB4229D3BAF9DB
:104CD00000904FEA4808BAF804702B9B08FB056661
:104CE0004F44BAF80250DFF894B03FB29F4228BF59
:104CF0001F46BAF8063009EB490A1D44419B2DB204
:104D00009D4228BF1D46479B9D4210D824A80AF00B
:104D1000E7FE24A80AF014FE01200DF51F7DBDE872
:104D2000F08F012201A924A80AF0A2FFCCE70122FA
:104D300001A924A80AF09CFF626B49465244B9427B
:104D400002F1030201D34644DDE712F8020C12F827
:104D5000013CC0000BEA032300F4FC60034312F89B
:104D6000030C43EAD00326F811300131E7E700BF16
:104D7000845D0308DA5D03085E5C030800F8FFFF4A
:104D80000129036838BF0121DB6A70B50D4604466E
:104D90009847A84204D223682046DB6A9847054614
:104DA0006B1EE6691022204606EB031606F1080189
:104DB000FFF7CCFE06F110012046FFF7A3FE236AA1
:104DC000043B0344C4E9055370BD000000214822A0
:104DD0002DE9F0410446816180F84410FFF7B6FEEA
:104DE000A6690423624A31462046FFF77BFE40B1A4
:104DF0000323604AF22184F844305F4B5F482FF070
:104E00003FFA06F1080104235D4A2046A161FFF73D
:104E100069FE30B10423574AFA2184F84430594BD3
:104E2000ECE706F10C010423574A2046A161FFF785
:104E300059FE074638B105234E4A40F2011184F865
:104E40004430524BDAE706F110012046FFF75AFED4
:104E5000054620B94E4B40F20711464ACEE706F10F
:104E6000140804234B4A20464146FFF73BFE002826
:104E700049D0062384F844300423474A06F1180138
:104E80002046FFF72FFE00283FD0072384F8443048
:104E90004544424F0C2220462946FFF757FE05F1B4
:104EA000080604233A4620463146FFF71BFE94F8D5
:104EB0004430002848D0002B48D1A36AAB4249D8DF
:104EC00005F10C0304352046A3612946FFF71AFEBD
:104ED0003044294660622046FFF714FE064404224F
:104EE00020463146FFF732FE04232D4A3146204644
:104EF000FFF7F8FD002838D10123E6616361A3695B
:104F00002362BDE8F0810127B6E7002FC0D006F18B
:104F100020012046FFF7F6FD4FF47A7306F13001C9
:104F2000B0FBF3F060602046FFF7ECFD06F14001B6
:104F3000A0602046FFF7E6FD06F14401E060204650
:104F4000FFF7E0FD2061A3E7002BB9D00A2384F826
:104F50004430D6E7291D2046FFF7D4FD85190C22E1
:104F600020462946FFF7F2FD99E70B23EFE700BF44
:104F7000025703084D5E0308345E03085E5C0308B5
:104F80007A5E03087F5E0308975E03089C5E030851
:104F9000B25E0308BE5E0308C35E0308C85E030872
:104FA000CD5E0308C0E90A2100220263FFF70EBFAD
:104FB00010B5002304460846E3620B6821639B6832
:104FC0009847A0622046BDE81040FFF7FFBEF0B44E
:104FD000069FBDF81050BDF8146032B12BB1049596
:104FE000CDE90567F0BCFFF701BDF0BC70470000DC
:104FF0002DE9F04F9946436985B004460F46904627
:105000002BB9294B7721294A29482FF039F9082251
:105010008169FFF79BFDA66920463146FFF787FDB2
:10502000B11C83462046FFF782FD311D8246204693
:10503000FFF768FD06F10801A36A05460A189A42BF
:1050400026D243F230039B4517D146F264339A458A
:1050500013D190B10246A1612046FFF777FD0E9B68
:1050600001462A462046CDF80080CDE901933B4613
:10507000FFF7ADFF636901336361A3692B4405B991
:1050800008330133626A23F001039342A36109D11B
:10509000012301206361236AA36180F0010005B050
:1050A000BDE8F08F0020F8E7085D0308D25E030832
:1050B0005E5C0308012070470C2070470C2303FB43
:1050C0000100083070470C2303FB010008307047D3
:1050D000012070474FF4AE7070474FF4AE7303FB7E
:1050E0000100083070474FF4AE7303FB0100083035
:1050F0007047012070471020704700EB0110083006
:10510000704700EB011008307047084600F036BECB
:10511000034B10B50446036017F0F8FB204610BDA2
:10512000108B030810B50446FFF7F2FF1421204648
:105130002EF02DFD204610BD034B10B50446036034
:1051400017F0E4FB204610BDDC8A030810B50446C6
:10515000FFF7F2FF4FF4B27120462EF018FD204603
:1051600010BD0000034B10B50446036017F0CEFBE2
:10517000204610BDA88A030810B50446FFF7F2FFC9
:10518000182120462EF003FD204610BD084B10B517
:105190000446036000F5C870FFF7BAFF04F12C0065
:1051A000FFF7CAFF04F11400FFF7DCFF204610BD33
:1051B000448B030808B50248FFF7E8FF08BD00BFAD
:1051C00004CF002010B50446FFF7E0FF4FF4417113
:1051D00020462EF0DCFC204610BD00002DE9F341F6
:1051E00000F04EFC0024054600F04EFC234601462C
:1051F0002246284600941FF0B3FB274B274A20463F
:10520000274D1A6001F08CF8264B274A27489A60F0
:105210001FF00EFB2B68BFF35B8FDB0735D42846EE
:105220002EF0B7FC88B3224C224B04F5D47604F15F
:10523000140004F12C0804F5C87723606060C4F8FA
:105240000880E760266117F063FB1B4B40466361F3
:1052500017F05EFB194B3846E36217F059FB184B09
:1052600004F5D270C4F8903101F01EF9224604F51D
:10527000D271304601F0C0F8304600F07FFD114891
:105280002FF01CF828462EF090FC0F4802B0BDE825
:10529000F041FEF79FBE00BF24270220B0C00020CF
:1052A00000CF0020D0C00020B4C000201400002097
:1052B00004CF0020448B0308A88A0308DC8A030873
:1052C000108B0308B551000834C00020704700005F
:1052D0000148FEF795BE00BF34C0002073B50E4CE8
:1052E0000E4B0F4E20460F4D3360FFF7ABFA2846AA
:1052F00024F048FC0C481DF081FC4FF448734FF437
:10530000F07221460948CDE9003233462A46FEF7BD
:1053100029FF02B070BD00BF5CC1002028890308CE
:10532000FCCE0020D0C00020B4C0002034C000203B
:105330000148FFF73FB900BF5CC100200020704763
:1053400081807047C18070470181704741817047FB
:105350007047704770477047704710B4C48803683F
:10536000121B84885B6D091B12B25DF8044B09B2F5
:1053700018474FF6FF7383814FF0FF3303621368C2
:10538000C36110607047002070478B8883800120C4
:105390007047704780F82610704790F826007047D5
:1053A00010B50022B1F90840B1F90A10028042801C
:1053B0008480C18010BD0022028042808280C28031
:1053C00070470177704780ED080A704780F8241015
:1053D000704780F82510704701207047983070475B
:1053E0008C307047843070477047704770470000BA
:1053F000024B902283F85A23704700BF00E100E07F
:10540000024B4FF080629A60704700BF00E100E0FD
:1054100070477047124A5369DB0370B51ED50023ED
:10542000C2F88430BFF34F8FD2F8803043F6E07477
:10543000C3F3C900C3F34E335B0103EA040601461C
:1054400046EA81750139C2F87452F9D2203B13F152
:10545000200FF2D1BFF34F8FBFF36F8F70BD00BF2E
:1054600000ED00E00163C0E90D217047704700EBDB
:105470008100114640680368DB68184780F83C10DB
:10548000704710B5044648212EF081FB204610BD20
:1054900010B504462C212EF07AFB204610BD10B525
:1054A0000446BC212EF073FB204610BD38B50446DF
:1054B00017F02BFD23685D6E1CF072FA0146204642
:1054C000A8472368074A2046D3F888500023064996
:1054D000A847064B064A5A60064A1A639A63064A68
:1054E0005A6338BD007017C000B80BC0C8D2002086
:1054F00010D30020000000C000B80B0017F0B6BCAD
:1055000017F017BE38B504460D46406C4FF0FF311A
:1055100007F09EFE606C07F0CBFE242303FB0545DD
:10552000002385F8283094F828300BB9236BA36347
:1055300038BD90F8252012B103685B6918477047A1
:1055400008B531B1044B4FF4B871044A04482EF049
:1055500097FE90F8290008BD2D5F0308415F0308FE
:10556000CB60030810B531B1064B4FF4B571064A54
:1055700006482EF085FE406811460368BDE81040DD
:105580001B6B18472D5F03080E610308CB600308EF
:1055900008B529B1034B7921034A04482EF070FE67
:1055A000C06808BD2D5F0308BC620308CB60030818
:1055B00010B5044629B1194BA221194A19482EF0F9
:1055C0005FFE052A15D8DFE802F0031115171C222B
:1055D000406803681B69984758B1012384F8293053
:1055E00084F82C300023C4E9043302E0002380F85F
:1055F000293010BD0362F5E70362012380F82A30E9
:10560000F0E7002380F8293001230362F1E7003B33
:1056100018BF012380F82D30EBE700BF2D5F030892
:1056200071640308CB60030810B50C4611461A4696
:105630002CB1064B9021064A06482EF021FEC4608C
:1056400040680368BDE810409B6818472D5F030859
:1056500045660308CB60030808B529B1054B8221D4
:10566000054A06482EF00CFEC0E90411C0E90632D6
:1056700008BD00BF2D5F030820680308CB60030846
:1056800090F83D3010B5044653B14FF0FF31406CF7
:1056900007F0DEFD002384F83D30012384F83E301E
:1056A00010BD90F825201AB190F8242002B118609E
:1056B0007047000010B50446104629B1134BD021A5
:1056C000134A14482EF0DCFD94F8293033B1124B04
:1056D0001B6893F86B2063691344636194F82B3063
:1056E0000BB9012010BDA368036303685B69984789
:1056F000002394F82C0084F82B300028F1D194F882
:105700002D30002BEED184F82900EBE72D5F030844
:10571000DC690308CB600308C026022010B5174CD3
:1057200017F0E6FB94F8293013B994F82A30ABB19E
:10573000E169D4E90532534322694A4393420DD3C8
:1057400094F83C0038B19B1AB3FBF1F2994298BF30
:1057500002F1FF326262012384F82E300123206CB3
:1057600084F83D3007F064FE94F83E302BB1606C55
:1057700007F09EFD002384F83E3010BDC8D2002003
:10578000044B4FF08062C3F88820BFF34F8FBFF304
:105790006F8F704700E100E0034690F8280070B575
:1057A000D8B901229D6BD8609A624FF4807218615B
:1057B0009A8505F53B22586102F500629861D8612F
:1057C0001862586283F82E00D3E90C463444A24292
:1057D0000AD90B4B52210B4A03E00B4B40F2C51187
:1057E0000A4A0B482EF04CFD9D609A634FF44873B3
:1057F00081F83400CB864FF4F07308630B8770BDDB
:10580000346D03086F6D03087D6B0308AD6B0308EF
:10581000CB600308002370B5124E05468380124BFF
:105820000360336893F858200AB1D86C00B99868BF
:105830000368DB6A98473368B0FA80F4D86C64096F
:1058400030B10368DB6A9847002808BF44F00104C0
:105850002CB9064B2C21064A06482EF011FD28468D
:1058600070BD00BFC0260220588B0308126F0308CA
:10587000706F0308A96F030870B5244E3568BFF335
:105880005B8F15F001053FD130462EF082F90028DC
:105890003AD01F4C1F4B04F134002561E584A5620A
:1058A000A585C4E90035C4E902551DF006FC04F1E4
:1058B000580019F0D7FD184B2046A365174B40F848
:1058C000843BFFF7A7FF164B1648C4F884302433F7
:1058D000C4F89050C4F88C306423C4F89C50C4F8C9
:1058E000A850C4E928350023C4F8AC30C4F8B0305F
:1058F000C4F8B430C4F8B8300B4BC4F898302EF06C
:10590000DDFC30462EF051F9014870BD08D2002070
:105910000CD20020D4A00308788B0308F08B030876
:1059200088A00308ED53000868A003082DE9F74399
:10593000044601264FF4C8674FF0FF31206C07F092
:105940003BFD4FF0FF31606C07F082FC94F82E3085
:1059500043B36568D4F820802B6884F82B60B8F1D5
:10596000000F23D05B6A41462846984700232362F4
:105970002B684FF4487200972846D3F814804FF4F0
:10598000F073A168C047236984F82C0001332361B8
:10599000F0B12B6828469B6A984701380023E060E5
:1059A00084F82E30606C07F083FCC5E7626A002A39
:1059B000DED02846D3E909939847616A0144284616
:1059C000C8472369626AC4F8248013442361CFE77F
:1059D0000120E3E7014808B5FFF7A8FFC8D200207F
:1059E00038B5154900251548FFF764F8144C154BD8
:1059F0002A462946012023604FF48073A563A387BC
:105A0000A38584F83E5084F82E50C4E90C55C4E9AF
:105A10001055C4E90155C4E90355C4E90555C4E965
:105A20000755C4E9095507F06FFC2064284607F0C4
:105A3000CBFB606438BD00BF58D3002010D30020DA
:105A4000C8D200203C8C0308704710B504460421DE
:105A50002EF09DF8204610BD012908B506D0022978
:105A600008D059B900F09AFC006808BD00F096FC17
:105A70004068FAE700F092FC8068F6E70020F4E75F
:105A8000004870478C8C03080820704713B5002429
:105A900051B1036801AA01948DF803409C680DF18F
:105AA0000303A04702B010BD0846FBE7C08970475A
:105AB000008A7047C088704780887047807A00F0FD
:105AC0007F007047807AC00970470020704700004F
:105AD0009FED010A704700BF00000000704770474B
