:020000040800F2
:100000000000082015640008995800089B58000853
:100010009D5800089F580008A158000800000000E3
:1000200000000000000000000000000081D6000871
:10003000A35800080000000021D7000885D7000859
:10004000656400086564000865640008656400086C
:10005000656400086564000865640008656400085C
:10006000656400086564000865640008656400084C
:10007000656400086564000865640008656400083C
:10008000656400086564000865640008656400082C
:10009000656400086564000865640008656400081C
:1000A000656400086564000865640008656400080C
:1000B00065640008656400086564000865640008FC
:1000C00065640008656400086564000865640008EC
:1000D00065640008656400086564000865640008DC
:1000E00065640008656400086564000865640008CC
:1000F00065640008656400086564000865640008BC
:1001000065640008656400086564000865640008AB
:100110006564000865640008A55800086564000867
:10012000B1580008BD5800086564000865640008FF
:10013000C958000865640008656400086564000823
:10014000656400086564000865640008656400086B
:10015000D5580008656400086564000865640008F7
:10016000656400086564000865640008656400084B
:10017000656400086564000865640008000000000C
:10018000656400086564000865640008656400082B
:10019000656400086564000865640008656400081B
:1001A000E158000865640008ED580008656400081F
:1001B000656400086564000865640008F958000873
:1001C00065640008656400080559000811590008B5
:1001D0006564000865640008656400081D5900082E
:1001E00065640008656400086564000865640008CB
:0801F000656400086564000865
:1002000010B5054C237833B9044B13B10448AFF350
:1002100000800123237010BD400300200000000077
:100220004453030808B5034B1BB103490348AFF31C
:10023000008008BD00000000440300204453030870
:1002400001F0FF01102A2BDB10F0070F08D010F887
:10025000013B013A8B422DD010F0070F42B3F6D18B
:10026000F0B441EA012141EA014122F007047FF0A4
:1002700000070023F0E80256083C85EA010586EAFB
:10028000010685FA47F5A3FA87F586FA47F6A5FA37
:1002900087F68EB9EED1F0BC01F0FF0102F0070243
:1002A00032B110F8013B013A83EA010313B1F8D1EE
:1002B0000020704701387047002D06BF35460338CF
:1002C000073815F0010F07D1013015F4807F02BF08
:1002D000013015F4C03F0130F0BC0138704700BF59
:1002E00081F0004102E000BF83F0004330B54FEAE7
:1002F00041044FEA430594EA050F08BF90EA020F54
:100300001FBF54EA000C55EA020C7FEA645C7FEAE6
:10031000655C00F0E2804FEA5454D4EB5555B8BF09
:100320006D420CDD2C4480EA020281EA030382EA7A
:10033000000083EA010180EA020281EA0303362D0C
:1003400088BF30BD11F0004F4FEA01314FF4801CDF
:100350004CEA113102D0404261EB410113F0004FF1
:100360004FEA03334CEA133302D0524263EB4303A8
:1003700094EA050F00F0A780A4F10104D5F1200E46
:100380000DDB02FA0EFC22FA05F2801841F10001A1
:1003900003FA0EF2801843FA05F359410EE0A5F175
:1003A00020050EF1200E012A03FA0EFC28BF4CF0A6
:1003B000020C43FA05F3C01851EBE37101F000455C
:1003C00007D54FF0000EDCF1000C7EEB00006EEB69
:1003D0000101B1F5801F1BD3B1F5001F0CD34908F3
:1003E0005FEA30004FEA3C0C04F101044FEA44524A
:1003F00012F5800F80F09A80BCF1004F08BF5FEAD1
:10040000500C50F1000041EB045141EA050130BDB0
:100410005FEA4C0C404141EB0101013C28BFB1F5C2
:10042000801FE9D291F0000F04BF01460020B1FA0D
:1004300081F308BF2033A3F10B03B3F120020CDAE0
:100440000C3208DD02F1140CC2F10C0201FA0CF0BE
:1004500021FA02F10CE002F11402D8BFC2F1200C23
:1004600001FA02F120FA0CFCDCBF41EA0C019040D9
:10047000E41AA2BF01EB0451294330BD6FEA040422
:100480001F3C1CDA0C340EDC04F11404C4F120020D
:1004900020FA04F001FA02F340EA030021FA04F31F
:1004A00045EA030130BDC4F10C04C4F1200220FA76
:1004B00002F001FA04F340EA0300294630BD21FAB4
:1004C00004F0294630BD94F0000F83F4801306BF7A
:1004D00081F480110134013D4EE77FEA645C18BF6E
:1004E0007FEA655C29D094EA050F08BF90EA020F05
:1004F00005D054EA000C04BF1946104630BD91EAFD
:10050000030F1EBF0021002030BD5FEA545C05D1FF
:100510004000494128BF41F0004130BD14F580043E
:100520003CBF01F5801130BD01F0004545F0FE41B2
:1005300041F470014FF0000030BD7FEA645C1ABFE7
:10054000194610467FEA655C1CBF0B46024650EA1E
:10055000013406BF52EA033591EA030F41F400214A
:1005600030BD00BF90F0000F04BF0021704730B5D0
:100570004FF4806404F132044FF000054FF00001A5
:1005800050E700BF90F0000F04BF0021704730B566
:100590004FF4806404F1320410F0004548BF40423B
:1005A0004FF000013EE700BF42004FEAE2014FEA90
:1005B00031014FEA02701FBF12F07F4393F07F4F6B
:1005C00081F06051704732F07F4208BF704793F06E
:1005D0007F4F04BF41F40021704730B54FF4607481
:1005E00001F0004521F000411CE700BF50EA010284
:1005F00008BF704730B54FF000050AE050EA01022D
:1006000008BF704730B511F0004502D5404261EB9C
:1006100041014FF4806404F132045FEA915C3FF4DD
:10062000D8AE4FF003025FEADC0C18BF03325FEA7A
:10063000DC0C18BF033202EBDC02C2F1200300FA2B
:1006400003FC20FA02F001FA03FE40EA0E0021FA50
:1006500002F11444BDE600BF7BB972B90029BEBFE8
:1006600000204FF0004106E008BF00281CBF6FF0DB
:1006700000414FF0FF3000F0D3B9ADF1080C6DE947
:1006800004CE002909DB002B1ADB00F04DF8DDF861
:1006900004E0DDE9022304B07047404261EB410110
:1006A000002B1BDB00F040F8DDF804E0DDE902235D
:1006B00004B0404261EB4101524263EB4303704797
:1006C000524263EB430300F02FF8DDF804E0DDE96C
:1006D000022304B0404261EB41017047524263EB98
:1006E000430300F021F8DDF804E0DDE9022304B063
:1006F000524263EB4303704753B94AB9002908BF1C
:1007000000281CBF4FF0FF314FF0FF3000F088B9D8
:10071000ADF1080C6DE904CE00F006F8DDF804E058
:10072000DDE9022304B070472DE9F047089D8E46AD
:1007300004468846002B4AD18A42174662D9B2FA4B
:1007400082F64EB1C6F1200301FA06F820FA03F34F
:10075000B74043EA0808B4404FEA174E1FFA87FC37
:10076000B8FBFEF1230C0EFB118843EA084301FBA2
:100770000CF29A4209D9FB1801F1FF3080F0EA80AF
:100780009A4240F2E78002393B449A1AA3B2B2FB84
:10079000FEF00EFB102243EA024300FB0CFC9C45DA
:1007A00009D9FB1800F1FF3280F0D6809C4540F259
:1007B000D3803B44023840EA0140A3EB0C03002104
:1007C0001DB1F3400022C5E90032BDE8F0878B423D
:1007D00005D90DB1C5E9000100210846F5E7B3FAD6
:1007E00083F1002946D1734502D3824200F205818C
:1007F000841A6EEB030201209046002DE5D0C5E976
:100800000048E2E7002A00F09080B2FA82F6002E5B
:1008100040F0A4808A1A030C4FEA174E80B2BCB293
:100820000121B2FBFEFC0EFB1C2243EA024304FB47
:100830000CF29A4207D9FB180CF1FF3802D29A4207
:1008400000F2E080C4469B1AB3FBFEF20EFB1233AB
:1008500040EA034302FB04F49C4207D9FB1802F16F
:10086000FF3002D29C4200F2CA8002461B1B42EAC1
:100870000C40A5E7C1F120068B4022FA06F71F4382
:100880000EFA01F420FA06F32EFA06FE4FEA174993
:10089000234300FA01F81FFA87FCBEFBF9F01C0C99
:1008A00009FB10EE44EA0E4400FB0CFEA64502FADA
:1008B00001F209D93C1900F1FF3A80F09C80A6456D
:1008C00040F2998002383C44A4EB0E041FFA83FEE8
:1008D000B4FBF9F309FB13444EEA044403FB0CFC9C
:1008E000A44508D93C1903F1FF3E80F08280A4455D
:1008F0007FD9023B3C4443EA0040A4EB0C04A0FB3C
:1009000002EC64457346E14662D35FD05DB1B8EB5B
:10091000030264EB090404FA06F622FA01F31E430B
:10092000CC40C5E9006400214FE7B1FBF2FC010CAB
:1009300041EA0E4180B240EA01423B4638463C461D
:10094000B846BE462026B1FBF7F1A2EB080241EA09
:100950000C4166E7014618E710462CE7C6F1200275
:100960002EFA02F3B740B14020FA02F24FEA174ED6
:100970000A43B3FBFEF8BCB20EFB1833110C41EA7C
:10098000034108FB04F9B04089454FEA104380B2A7
:100990003ED9791808F1FF3C01D289451FD8A1EB57
:1009A0000901B1FBFEF909FB04F80EFB191192B223
:1009B00042EA0142424529D2BA1809F1FF31C4D2B4
:1009C0004245C2D2A9F102013A44BEE7F0459DD2A8
:1009D000BEEB02036CEB070C0138E14696E7A7EB90
:1009E00009094944A8F1020CB1FBFEF909FB04F81E
:1009F000DBE773467FE7504666E70846FDE63B4483
:100A0000023A33E7ACF1020C3B441CE749469CE751
:100A1000A1EB0901C446B1FBFEF909FB04F8C4E7E8
:100A2000704700BF7047704708B501F0A9FCBDE8EA
:100A3000084001F02DBC01F0A5BC0000174B1A6B5B
:100A400042F0010210B586B01A631B6B03F001037C
:100A50000093009B59B9012303911148CDE901315D
:100A6000022301A9049307F013F906B010BD012970
:100A7000FBD100240223019101A90948CDE90343D8
:100A80004FF48813029307F003F922460F21062042
:100A900005F0EEFF062006F01DF8E6E700380240FC
:100AA00000000240002108B50846FFF7C7FF08BD57
:100AB0000121024808B507F069FA08BD00000240AC
:100AC00008B50020FFF7F4FF08BD4068704741609B
:100AD000704700004FF0E022D2F8FC3D43F08073F5
:100AE000C2F8FC3D054B064AD3F8B01F0A43C3F8D1
:100AF000B02F1A6842F001021A607047001000E03F
:100B000055CEACC5521A02EB5302B2FBF3F070475C
:100B1000014B5868704700BF001000E0704710B5E7
:100B200004460C2132F093FE204610BD036810B538
:100B30001B69044631B19847A26863689B1A034455
:100B4000636010BD9847A060FBE7704770470000E6
:100B500008B5FFF7A7FF024B00221A6008BD00BFCF
:100B60005C03002070B50D46FFF7AAFF0B4AC4B224
:100B700093785678117813F00100D3709670517005
:100B800014700AD016F0010007D011F0010004D053
:100B9000E30756BF01200020287070BD5C030020D1
:100BA00010B50446042132F052FE204610BD7047B5
:100BB00010B50446042132F04AFE204610BD7047AD
:100BC0007FB501238DF817204FF47A72CDE90132F9
:100BD0000DF1170200920A460146064807F08CFB09
:100BE00020B1044807F06EFB03F060FB07B05DF82E
:100BF00004FB00BF34DA00207FB500230A464FF41F
:100C00007A718DF817300123CDE901310DF117010B
:100C100000910146064807F049FC20B1044807F05E
:100C200051FB03F043FB9DF8170007B05DF804FB90
:100C300034DA00201FB54FF47A7400920A46014658
:100C40000748CDE90134012307F030FC044620B108
:100C5000034807F037FB03F029FB204604B010BD22
:100C600034DA0020F8B5134D0646134C0F462B68B6
:100C7000207898476B6854209847C0B2112809D053
:100C80006B68702098477023C0B22370112803D07E
:100C90000320F8BD54232370084BBE422CBF0C2602
:100CA000012620781E70AB6898472078EB6898473B
:100CB0000020EEE71C0000207103002072030020DA
:100CC00008B54FF4F0714FF44870FFF7CBFF074BB6
:100CD00010B901221A7008BD1B78002BFBD1044B00
:100CE0006A21044A044833F02BF900BF7003002046
:100CF000F453030807540308315403082DE9F04F57
:100D0000344A0546DFF8DCA085B01078DAF81030F8
:100D10009847287050B1304FA946304E03AC0DF1C2
:100D2000080B4FF000082B78984503D3002005B03E
:100D3000BDE8F08F274822465946DAF8143000788B
:100D400008F101089847264BBC46B6461B78043785
:100D50000436190741BFBBF8002021882280ABF878
:100D600000109A0741BFBBF80020C2F5477203325A
:100D7000ABF800205B0757F8042C48BF23883BF8EA
:100D8000020B42BFC3F5EF730133238093B290424D
:100D900034F8021B8CBFC31A1B1A9BB2019356F87E
:100DA000043C9AB29942019B8CBF8A1A521A92B2A1
:100DB0001344052BC8BF47F8040CDCF80030C8BF4B
:100DC00046F8041C29F8023FDEF80030A9F8043088
:100DD000A9E700BF71030020680300206003002022
:100DE000720300201C0000207FB50B4B0E461546F9
:100DF0001C781CB90024204604B070BD01A8FFF780
:100E00007DFF9DF80430002BF4D0BDF80630336030
:100E1000BDF80A302B60EEE770030020032823D8CA
:100E2000DFE800F0020B121A104B40211A68B2FAE8
:100E300082F252090E4807F0AFB80C4B80215A6875
:100E4000B2FA82F25209F5E7084B022109489A6882
:100E5000B2FA82F25209EEE7044B40210648DA6802
:100E6000B2FA82F25209E6E7704700BF740300202D
:100E7000000802400024024000140240032823D846
:100E8000DFE800F0020B121A104B40211A68003AFA
:100E900018BF01220E4807F07FB80C4B80215A681A
:100EA000003A18BF0122F5E7084B022109489A6869
:100EB000003A18BF0122EEE7044B40210648DA68E9
:100EC000003A18BF0122E6E7704700BF7403002014
:100ED00000080240002402400014024003280FD8FA
:100EE000DFE800F00206080B4021064807F059B879
:100EF0008021FAE702210448F8E740210348F5E79A
:100F0000704700BF00080240002402400014024065
:100F100008B5032813D8DFE800F0020A0C0F4021BF
:100F2000084807F033F8431E5842584108BD802155
:100F3000F6E702210448F4E740210448F1E70020E5
:100F4000F1E700BF00080240002402400014024004
:100F500070B5084D00240126E0B2FFF7D9FF18B1A3
:100F60002B68012B18BF2E6001340435052CF3D1FA
:100F700070BD00BF74030020012380F8781080F852
:100F8000793070470020704741640039024B18BF28
:100F900001211970704700BF7F2602200020704792
:100FA000836B0BB10846184770474FF6FF707047C8
:100FB000406803689B691847014B1868704700BF79
:100FC0009803002070470000F0B40023104CC4F8D0
:100FD0008430BFF34F8FD4F8803043F6E076C3F30C
:100FE000C905C3F34E335B0103EA060C2A464CEAFB
:100FF0008277013AC4F87472F9D2203B13F1200FC2
:10100000F2D1BFF34F8FBFF36F8FF0BC01F0D0BAB6
:1010100000ED00E008B501F04DFA024B0422DA6061
:1010200008BD00BF00E100E010B5044601F0D0FBB0
:1010300094F84B3013B1024B01221A7010BD00BF5F
:1010400004000020014B196001F03DBA9803002014
:1010500010B504461CF0F6FA23682046D3F8AC30ED
:10106000BDE8104018471BF059BD10B504467C215F
:1010700032F0EDFB204610BD024B00221A701BF02F
:1010800089BD00BF0400002038B50446074D01F0BB
:1010900067FA0023284684F84A30FFF71BFD012336
:1010A000256184F87030024B636138BD8C030020E9
:1010B000880300200368044607B5D3F880309847BA
:1010C000236820469B6F984700F084FA23682046E7
:1010D0001B6F98470021292315220548009106F02F
:1010E00050FD00F077FA236820461B6F9847F8E719
:1010F00088DA002008B501F0D5F9002207215A202E
:1011000005F0B6FC002207216220BDE8084005F08A
:10111000AFBC000090F834100D4B10B590F878403B
:101120001A788C4209D03AB90A490B4A08881488BF
:10113000108001220C801A7010BD002AFCD0064AD3
:101140000449148808880C8010800022F3E700BF4F
:1011500078260220762602207426022008B5094B44
:101160001B888B4203D8084B1B88934205D9074B39
:101170009E21074A074832F0E3FE074B1980074BD0
:101180001A8008BD74260220762602207C540308AB
:10119000DF540308225503087A2602207C26022009
:1011A00008B501F047FB044B0422C3F88C20BFF3C1
:1011B0004F8FBFF36F8F08BD00E100E0034690F84A
:1011C0007A0018B1586803681B6818477047000018
:1011D00070B50D4619460B4B1D6035B90A4B40F2F0
:1011E000D2210A4A0A4832F0ABFEC0E90F52003A57
:1011F000084B18BF01221A700368BDE87040D3F88D
:101200008C30184798030020675503089F55030842
:10121000225503087E26022070B5C0E90112C36082
:101220004FF480720023BDF81050BDF814600385A0
:1012300080F82A30B542C362038680F8583043668E
:1012400080F87030C0E91223144AC0E91A23144A06
:10125000C0E90433C0E90633C0E90833C0E90E33FE
:10126000C0E91033C0E91433C0E91733436782671C
:101270000C4A10600C4A15800C4A158028BF0025C6
:101280000B4A38BF012516800A4A80F83450168070
:10129000094A1370094B036070BD00BF01000001D3
:1012A0000000010180260220742602207A260220F6
:1012B000762602207C26022078260220C08403089D
:1012C00005F0B2BB0128034607B50AD84B781522B2
:1012D000084800930B78002106F053FC03B05DF83A
:1012E00004FB01910A5C002102480092392206F0B9
:1012F00059FCF3E788DA00200C4B012213B51A7071
:10130000DF220B4C00215A703922019344232046DE
:101310000093022306F046FC0021352315222046C7
:10132000009106F02EFC02B010BD00BF8403002027
:1013300088DA002010B50446FFF7DEFF0F4B0222CB
:1013400020461B68C3F810240122C3F81024D3F8E8
:10135000082442F00102C3F80824D3F8082442F01C
:101360000202C3F80824064B1A68536B43F00303C8
:10137000BDE81040536301F0A5B800BF88DA002033
:101380008CD90020F0B589B0294B064604AA03F198
:10139000100715461868083353F8041C1446BB425E
:1013A00003C42246F6D1234C05EB86052A233922B5
:1013B000019500210093204604234FF4C87506F0E0
:1013C000F1FB236800201C490290D3F8042409682B
:1013D00022F00802C3F80424D3F8042402F008021F
:1013E0000292029A154A126805FB0211144AC2F8C9
:1013F000AC101449116101F1011151611249C2F897
:1014000088101249C2F8B0100121516203902046A1
:10141000D3F8042442F00802C3F80424D3F80434B7
:1014200003F008030393039B06F09BFB09B0F0BD98
:101430006053030888DA0020980300209C030020F2
:1014400000680140E201CA000300CA00930140069F
:1014500038B5124C226892F86A30013382F86A304B
:1014600000F0ACF80E4B1A780E4B1AB922681978B6
:1014700082F84A101B787BB10B4D287860B9FFF7D2
:10148000CDFC206808B11CF0DDF8084B0020186086
:10149000FFF778FF01232B7038BD00BF80260220A4
:1014A0007E26022004000020A00300209C030020D0
:1014B00008B50E4B1868022806DC01301860C0B26F
:1014C000BDE80840FFF75EBF094B00221A70094BC8
:1014D000186828B1084B1B7813B903681B6A984732
:1014E0000020BDE80840FFF7C9BC00BF9C030020F6
:1014F000A0030020802602207E260220014608B597
:10150000034B186801B101211CF0B6F8012008BD99
:1015100080260220054B002205485A609A60054A41
:101520001A60054B0360FFF713BB00BF8C0300205C
:1015300088030020B8530308E05303080121002268
:1015400008B508460BF028FD0A4B186028B90A4B6D
:1015500028210A4A0A4832F0F3FC00220421012023
:101560000BF004FE074B186018B9074B2C21034AF7
:10157000F0E708BDA8030020ED5503083656030820
:1015800065560308A4030020B0560308024B4FF031
:10159000FF3118680BF058BDA8030020014B1868F4
:1015A0000BF08EBDA8030020024B002118680BF041
:1015B0004BBD00BFA8030020FFF7F0BF0023034886
:1015C00003491A4600680BF017BE00BFA4030020B1
:1015D0000800002013B50023074C01A91A46206813
:1015E0000BF04CFE4FF0FF33002201A920680BF0F6
:1015F00045FE02B010BD00BFA403002003685B6C71
:1016000018470120704703689B6A1847FEE70000EF
:101610000E4B82B01A6B42F400021A631A6B02F48A
:1016200000020192019A1A6942F400021A611A69D1
:1016300022F400021A61064B064A9A61064ADA61F0
:101640004FF08062054B9A6002B07047003802404C
:10165000A4DA0020E91800080D16000800E100E0F7
:1016600040F2EF3070470000054B4FF0806203609E
:10167000044BC3F88820BFF34F8FBFF36F8F7047C1
:101680009885030800E100E010B504464FF45A6164
:10169000FFF7EAFF204632F0DAF8204610BD0000DE
:1016A00008B50A2809D8DFE800F006100E08080877
:1016B000081010101000022008BD054B9021054AAB
:1016C000054832F03DFC0020F6E70120F4E700BFBA
:1016D000F25603080D5703085857030838B50C464F
:1016E000887FFFF7DDFF174BA58AE28A586342EA3D
:1016F000054221695A64628BD963521B1A642568BA
:10170000082D0ED19A611A6158620F4A207F42EA71
:101710000062DA61E2681A620C4A5961D9601A60A3
:1017200038BD0022D8611A61E1680A0A4809C1F38C
:10173000C40102F4784200F4FC6002430A439A6355
:10174000034AECE700B00240090001000123020057
:101750000123030008B50B280BD8DFE800F00612C0
:10176000100A0A0A0A0808080808022008BD05200D
:10177000FCE7054B6F21054A054832F0E1FB0020EC
:10178000F4E70120F2E700BFF2560308A15703086F
:10179000585703082DE9F04191F81D800C4640464A
:1017A000FFF7D8FFA77F05463846FFF7D3FF064669
:1017B0003846FFF775FFA18A628B434B521A1A64B1
:1017C0009A61228B521A1A61E28A586342EA0142F4
:1017D00021695A646268D963DA602068802828D059
:1017E000227F0FD8202866D0402864D004281AD041
:1017F00045EA0265344BB84545F40035DD6160D0FB
:10180000324A44E0B0F5807F04D0B0F5007FEFD1DC
:101810002F4800E02F4840EA0262DA61E2681A626B
:101820005E62596132E045EA026242F40032DA61F6
:10183000F6E7A068021DDA62227F45EA026545F4F8
:101840000035DD615E625961017841B1012921D025
:10185000214B4FF48D71214A214832F071FBDA6936
:10186000418822F47F42013922F0100242EA01222B
:101870000121DA61144BDA6942F02002DA61DA6997
:101880009206FCD410229A600029B9D0154A1A6039
:10189000BDE8F081B2F1FF01DA69408822F47F42AD
:1018A00018BF0121013822F0100242EA002242F062
:1018B0001002DA61DEE745EA0262034B42F40032CD
:1018C000B5E742F20132E2E700B002400123010035
:1018D000090002000A000200EB570308055803083C
:1018E0005857030801230200024B1B68586803681D
:1018F0005B6918478026022070B504460A4B0C30FD
:1019000000262546602260602672667245F8203BFC
:1019100029461CF007F804F55A63EE6024359D4211
:10192000FBD1204670BD00BF98850308034B1A68A1
:10193000D207FCD423229A60704700BF00B0024057
:10194000094B5A69D2030AD5BFF34F8F08440029C7
:10195000A0EB010204DCBFF34F8FBFF36F8F704722
:101960002039C3F86822F2E700ED00E030B5104CF2
:101970002568ED07FCD423250904FF2BA56041F061
:1019800001014FF0020565636164E0630AD0094913
:10199000656241EA0363E361074B22626061E060D4
:1019A000236030BDE561039BA363044BF8E700BFF0
:1019B00000B0024009000100010002000100030024
:1019C00030B50F4C2568ED07FCD423251204FF2BFE
:1019D000A56042F001024FF0020565636264E063B6
:1019E000E16008D01B0643F00213E361054B65621A
:1019F0006061236030BD044BE3610123F9E700BF60
:101A000000B0024001000200020002FF30B50B4CA2
:101A10002568ED07FCD4232512041B06A56042F0BF
:101A20000102022543F4003365636264E063E16010
:101A3000E361034B65626061236030BD00B002402A
:101A4000010002004069704790F844007047036B42
:101A500023B9C06A003818BF0120704701207047C1
:101A600080687047043010B50C460FC884E80F003A
:101A700010BD704708B5034A40F21221024B0348DB
:101A800032F05EFA43580308446F03089E58030877
:101A900010B50446482131F0DAFE204610BD0000A2
:101AA0002DE9F0431C46436BADF51F7D05460E4600
:101AB0001746002B37D0002203A8DFF8A890CDE905
:101AC000013213F081FD4FF4F4725021249024A8C8
:101AD0000DF049FD3A46314624A80EF093FC012151
:101AE00024A80DF03BFE022324A88DF8D8300DF079
:101AF000D6FEBDF898322B9ABDF89C629342A89FFF
:101B000028BF1346419A964203EB4308A7EB4307CD
:101B100028BF1646479B9E4209D824A80DF040FED8
:101B200024A80DF06DFD0DF51F7DBDE8F0830122A9
:101B300001A924A80DF0FCFE6B6B03EB0800984292
:101B400001D83C44E6E759789A78C90009EA0222AC
:101B500001F4FC610A4313F8031B42EAD10224F8A2
:101B6000022BECE700F8FFFF0A4A02600022C0E9FE
:101B70000522C0E90722C0E90922C0E90B22C0E919
:101B80000D12C0E90F2280F84420C0E90322C0E909
:101B900001227047E885030810B40C4611461A4626
:101BA000036B3BB1036C806BE41A20445DF8044B7B
:101BB00032F0F7BBC06AF8E7036B10B573B1036C82
:101BC000826BC91A5318525C98785C780004DB78F1
:101BD00040EA0420104340EA036010BDC36A58582D
:101BE000FBE7036B43B1036CC91A836B5A18585C4B
:101BF000527840EA02207047C36A585A7047000082
:101C000070B50446006B0D461646D8B1E36B93429F
:101C100008D209230D4A65210D4884F844300D4B44
:101C200032F08EF90368DB689847206B3246A16B6F
:101C300003681B69984710B90D2384F84430A06BE2
:101C4000256470BDE06A0844FBE700BF065903083D
:101C50009E580308F35803082DE9F84343690446E6
:101C60002BB9234BAA21234A234832F069F90822D1
:101C70008169FFF7C5FFA16943F2300646F2643778
:101C800004312046FFF798FFA3691844A36A00F1C6
:101C900008029A4206D3012300206361236AA361EC
:101CA000BDE8F883636909300822013320F001019F
:101CB00020466361A161FFF7A3FFD4F81890204686
:101CC0004946FFF78EFF09F1020180462046FFF7E3
:101CD00088FF09F1040105462046FFF76DFFB04576
:101CE000D2D1BD42D0D10028CED00120D8E700BF4C
:101CF00048590308915903089E5803082DE9F04FED
:101D00000446ADF51F7D8A4616468169082298462D
:101D1000FFF776FFA7692046391DFFF74DFF07F152
:101D20000801024605462046FFF76AFF636B074637
:101D300033B93C4B40F2AB113B4A3C4832F000F91E
:101D4000002203A8CDE9013213F03EFC4FF4F472F7
:101D50005021249024A80DF006FC2A46394624A8D8
:101D60000EF050FB012124A80DF0F8FC022324A85A
:101D70008DF8D8300DF093FDBAF90250479BAB4275
:101D800029D3BAF900904FEA4808BAF804702B9B9F
:101D900008FB05664F44BAF80250DFF894B03FB232
:101DA0009F4228BF1F46BAF8063009EB490A1D4476
:101DB000419B2DB29D4228BF1D46479B9D4210D896
:101DC00024A80DF0EDFC24A80DF01AFC01200DF55F
:101DD0001F7DBDE8F08F012201A924A80DF0A8FD08
:101DE000CCE7012201A924A80DF0A2FD626B4946AF
:101DF0005244B94202F1030201D34644DDE712F82E
:101E0000020C12F8013CC0000BEA032300F4FC6052
:101E1000034312F8030C43EAD00326F811300131D2
:101E2000E7E700BFC45903081A5A03089E5803087D
:101E300000F8FFFF0129036838BF0121DB6A70B594
:101E40000D4604469847A84204D223682046DB6A20
:101E5000984705466B1EE6691022204606EB0316DE
:101E600006F10801FFF7CCFE06F110012046FFF74E
:101E7000A3FE236A043B0344C4E9055370BD00007C
:101E8000002148222DE9F0410446816180F8441088
:101E9000FFF7B6FEA6690423624A31462046FFF7E3
:101EA0007BFE40B10323604AF22184F844305F4B4B
:101EB0005F4832F045F806F1080104235D4A2046E8
:101EC000A161FFF769FE30B10423574AFA2184F873
:101ED0004430594BECE706F10C010423574A2046E5
:101EE000A161FFF759FE074638B105234E4A40F27B
:101EF000011184F84430524BDAE706F11001204614
:101F0000FFF75AFE054620B94E4B40F20711464AEC
:101F1000CEE706F1140804234B4A20464146FFF75A
:101F20003BFE002849D0062384F844300423474A66
:101F300006F118012046FFF72FFE00283FD00723A7
:101F400084F844304544424F0C2220462946FFF78E
:101F500057FE05F1080604233A4620463146FFF7AE
:101F60001BFE94F84430002848D0002B48D1A36AC7
:101F7000AB4249D805F10C0304352046A36129463C
:101F8000FFF71AFE3044294660622046FFF714FE30
:101F90000644042220463146FFF732FE04232D4A30
:101FA00031462046FFF7F8FD002838D10123E661CD
:101FB0006361A3692362BDE8F0810127B6E7002FC2
:101FC000C0D006F120012046FFF7F6FD4FF47A73EA
:101FD00006F13001B0FBF3F060602046FFF7ECFD46
:101FE00006F14001A0602046FFF7E6FD06F144013E
:101FF000E0602046FFF7E0FD2061A3E7002BB9D0A9
:102000000A2384F84430D6E7291D2046FFF7D4FD83
:1020100085190C2220462946FFF7F2FD99E70B238C
:10202000EFE700BF745A0308925A0308795A03086D
:102030009E580308BF5A0308C45A0308DC5A030811
:10204000E15A0308F75A0308035B0308085B030817
:102050000D5B0308125B0308C0E90A21002202633A
:10206000FFF70EBF10B5002304460846E3620B6875
:1020700021639B689847A0622046BDE81040FFF7A7
:10208000FFBEF0B4069FBDF81050BDF8146032B129
:102090002BB10495CDE90567F0BCFFF701BDF0BC9D
:1020A000704700002DE9F04F9946436985B004461A
:1020B0000F4690462BB9294B7721294A294831F000
:1020C0003FFF08228169FFF79BFDA6692046314644
:1020D000FFF787FDB11C83462046FFF782FD311DC7
:1020E00082462046FFF768FD06F10801A36A05460F
:1020F0000A189A4226D243F230039B4517D146F282
:1021000064339A4513D190B10246A1612046FFF78E
:1021100077FD0E9B01462A462046CDF80080CDE98A
:1021200001933B46FFF7ADFF636901336361A36928
:102130002B4405B908330133626A23F0010393424B
:10214000A36109D1012301206361236AA36180F0A7
:10215000010005B0BDE8F08F0020F8E748590308FA
:10216000175B03089E580308012070470C20704736
:102170000C2303FB0100083070470C2303FB010014
:1021800008307047012070474FF4AE7070474FF42D
:10219000AE7303FB0100083070474FF4AE7303FBCE
:1021A000010008307047012070471020704700EB95
:1021B00001100830704700EB0110083070470846E6
:1021C00000F038BE034B10B5044603601AF0FEF968
:1021D000204610BD9086030810B50446FFF7F2FFB5
:1021E0001421204631F033FB204610BD034B10B5BF
:1021F000044603601AF0EAF9204610BD5C86030825
:1022000010B50446FFF7F2FF4FF4B271204631F0EB
:102210001EFB204610BD0000034B10B504460360B2
:102220001AF0D4F9204610BD2886030810B50446DC
:10223000FFF7F2FF1821204631F009FB204610BDC0
:10224000084B10B50446036000F5C870FFF7BAFFED
:1022500004F12C00FFF7CAFF04F11400FFF7DCFFC4
:10226000204610BDC486030808B50248FFF7E8FF02
:1022700008BD00BF7C12002010B50446FFF7E0FF48
:102280004FF44171204631F0E2FA204610BD0000C3
:102290002DE9F34100F04EFC0024054600F04EFC11
:1022A0002346014622462846009422F0B9F9274BDE
:1022B000274A2046274D1A6001F08EF8264B274A00
:1022C00027489A6022F014F92B68BFF35B8FDB0775
:1022D00035D4284631F0BDFA88B3224C224B04F5A0
:1022E000D47604F1140004F12C0804F5C8772360B7
:1022F0006060C4F80880E76026611AF069F91B4B3A
:10230000404663611AF064F9194B3846E3621AF0EB
:102310005FF9184B04F5D270C4F8903101F01AF946
:10232000224604F5D271304601F0C2F8304600F082
:1023300081FD114831F022FE284631F096FA0F480F
:1023400002B0BDE8F041FEF79FBE00BFE4260220C8
:102350002804002078120020480400202C040020CB
:102360000C0000207C120020C48603082886030885
:102370005C8603089086030869220008AC030020ED
:10238000704700000148FEF795BE00BFAC03002077
:1023900073B50E4C0E4B0F4E20460F4D3360FFF7BA
:1023A000ABFA284627F04EFA0C4820F087FA4FF493
:1023B00048734FF4F07221460948CDE900323346A4
:1023C0002A46FEF729FF02B070BD00BFD4040020EA
:1023D000A884030874120020480400202C04002064
:1023E000AC0300200148FFF73FB900BFD404002030
:1023F0000020704781807047C1807047018170471D
:10240000418170477047704770477047704710B4FC
:10241000C4880368121B84885B6D091B12B25DF8C7
:10242000044B09B218474FF6FF7383814FF0FF3317
:1024300003621368C36110607047002070478B8887
:10244000838001207047704780F82610704790F80D
:102450002600704710B50022B1F90840B1F90A1002
:10246000028042808480C18010BD002202804280B0
:102470008280C28070470177704780ED080A7047FC
:1024800080F82410704780F82510704701207047AD
:10249000983070478C307047843070477047704771
:1024A00070470000024B902283F85A23704700BF08
:1024B00000E100E0024B4FF080629A60704700BF7D
:1024C00000E100E070477047124A5369DB0370B5C2
:1024D0001ED50023C2F88430BFF34F8FD2F880306E
:1024E00043F6E074C3F3C900C3F34E335B0103EA60
:1024F0000406014646EA81750139C2F87452F9D2E0
:10250000203B13F1200FF2D1BFF34F8FBFF36F8F3A
:1025100070BD00BF00ED00E00163C0E90D21704710
:10252000704700EB8100114640680368DB6818477C
:1025300080F83C10704710B50446482131F087F907
:10254000204610BD10B504462C2131F080F92046FC
:1025500010BD10B50446BC2131F079F9204610BDFC
:1025600038B504461AF02FFB23685D6E1FF078F82B
:1025700001462046A8472368074A2046D3F88850DA
:1025800000230649A847064B064A5A60064A1A63C2
:102590009A63064A5A6338BD007017C000B80BC072
:1025A0004016002088160020000000C000B80B0074
:1025B0001AF0BABA1AF01BBC38B504460D46406C86
:1025C0004FF0FF310AF08CFC606C0AF0B9FC242358
:1025D00003FB0545002385F8283094F828300BB913
:1025E000236BA36338BD90F8252012B103685B69A3
:1025F0001847704708B531B1044B4FF4B871044A1D
:10260000044831F09DFC90F8290008BD725B030876
:10261000865B0308105D030810B531B1064B4FF41B
:10262000B571064A064831F08BFC406811460368D4
:10263000BDE810401B6B1847725B0308535D03082D
:10264000105D030808B529B1034B7921034A0448FA
:1026500031F076FCC06808BD725B0308015F0308B7
:10266000105D030810B5044629B1194BA221194A7F
:10267000194831F065FC052A15D8DFE802F003118E
:1026800015171C22406803681B69984758B101233D
:1026900084F8293084F82C300023C4E9043302E0A4
:1026A000002380F8293010BD0362F5E7036201239F
:1026B00080F82A30F0E7002380F8293001230362F4
:1026C000F1E7003B18BF012380F82D30EBE700BF96
:1026D000725B0308B6600308105D030810B50C4672
:1026E00011461A462CB1064B9021064A064831F095
:1026F00027FCC46040680368BDE810409B68184729
:10270000725B03088A620308105D030808B529B1EB
:10271000054B8221054A064831F012FCC0E904113C
:10272000C0E9063208BD00BF725B03086564030898
:10273000105D030890F83D3010B5044653B14FF0DA
:10274000FF31406C0AF0CCFB002384F83D300123BC
:1027500084F83E3010BD90F825201AB190F824205E
:1027600002B118607047000010B50446104629B148
:10277000134BD021134A144831F0E2FB94F829306E
:1027800033B1124B1B6893F86B2063691344636188
:1027900094F82B300BB9012010BDA36803630368C4
:1027A0005B699847002394F82C0084F82B300028AC
:1027B000F1D194F82D30002BEED184F82900EBE70D
:1027C000725B030821660308105D0308802602205F
:1027D00010B5174C1AF0EAF994F8293013B994F8A7
:1027E0002A30ABB1E169D4E90532534322694A4347
:1027F00093420DD394F83C0038B19B1AB3FBF1F22D
:10280000994298BF02F1FF326262012384F82E30B0
:102810000123206C84F83D300AF052FC94F83E30DD
:102820002BB1606C0AF08CFB002384F83E3010BDA5
:1028300040160020044B4FF08062C3F88820BFF39D
:102840004F8FBFF36F8F704700E100E0034690F8B1
:10285000280070B5D8B901229D6BD8609A624FF4F8
:10286000807218619A8505F53B22586102F5006275
:102870009861D8611862586283F82E00D3E90C463B
:102880003444A2420AD90B4B52210B4A03E00B4BB2
:1028900040F2C5110A4A0B4831F052FB9D609A6321
:1028A0004FF4487381F83400CB864FF4F07308631B
:1028B0000B8770BD79690308B4690308C267030810
:1028C000F2670308105D0308002370B5124E054639
:1028D0008380124B0360336893F858200AB1D86C98
:1028E00000B998680368DB6A98473368B0FA80F4E7
:1028F000D86C640930B10368DB6A9847002808BFC8
:1029000044F001042CB9064B2C21064A064831F04C
:1029100017FB284670BD00BF80260220D88603081A
:10292000576B0308B56B0308EE6B030870B5244EB4
:102930003568BFF35B8F15F001053FD1304630F0AD
:1029400088FF00283AD01F4C1F4B04F1340025614A
:10295000E584A562A585C4E90035C4E9025520F0E7
:102960000CFA04F158001CF0DDFB184B2046A3655F
:10297000174B40F8843BFFF7A7FF164B1648C4F8E7
:1029800084302433C4F89050C4F88C306423C4F8E5
:102990009C50C4F8A850C4E928350023C4F8AC30D2
:1029A000C4F8B030C4F8B430C4F8B8300B4BC4F835
:1029B000983031F0E3FA304630F057FF014870BDEF
:1029C00080150020841500207C9D0308F8860308EC
:1029D00070870308309D0308A1240008109D030898
:1029E0002DE9F743044601264FF4C8674FF0FF3145
:1029F000206C0AF029FB4FF0FF31606C0AF070FA8E
:102A000094F82E3043B36568D4F820802B6884F89E
:102A10002B60B8F1000F23D05B6A414628469847E7
:102A2000002323622B684FF4487200972846D3F89E
:102A300014804FF4F073A168C047236984F82C0018
:102A400001332361F0B12B6828469B6A984701380F
:102A50000023E06084F82E30606C0AF071FAC5E75C
:102A6000626A002ADED02846D3E909939847616A52
:102A700001442846C8472369626AC4F82480134485
:102A80002361CFE70120E3E7014808B5FFF7A8FF7E
:102A90004016002038B5154900251548FFF764F8A1
:102AA000144C154B2A462946012023604FF48073AD
:102AB000A563A387A38584F83E5084F82E50C4E90B
:102AC0000C55C4E91055C4E90155C4E90355C4E9DE
:102AD0000555C4E90755C4E909550AF05DFA2064B3
:102AE00028460AF0B9F9606438BD00BFD01600204E
:102AF0008816002040160020BC870308704710B5D8
:102B00000446042130F0A3FE204610BD012908B57B
:102B100006D0022908D059B900F09CFC006808BD15
:102B200000F098FC4068FAE700F094FC8068F6E753
:102B30000020F4E7004870470C880308082070471D
:102B400013B5002451B1036801AA01948DF8034024
:102B50009C680DF10303A04702B010BD0846FBE7D7
:102B6000C0897047008A7047C08870478088704766
:102B7000807A00F07F007047807AC009704700209B
:102B8000704700009FED010A704700BF0000000081
:102B9000806A70477047704700F598730868496805
:102BA00003C3704770477047416070477047704774
:102BB000064BC0F84801C0F84C310023C0F8503132
:102BC00000F5A273C0F84031704700BF712C0008B7
:102BD000012303727047704710B441680346C2680E
:102BE0009B68541001EB6200D20748BF0A595DF898
:102BF000044B48BFD35818470346406830B19A6821
:102C00001AB9D86800F0010070470120704710B56C
:102C100004460C2130F01BFE204610BD10B50446C2
:102C2000102130F014FE204610BD10B504464FF4BC
:102C3000AE7130F00CFE204610BD10B51EF010FD38
:102C40000368BDE81040DB6B184710B50446D0F8A8
:102C5000400158B10368DB68984738B1D4F84001A7
:102C600003689B6898470023C4F8403110BD0000FA
:102C70002DE9F14FD0E9556A0746B06803681B6A31
:102C80009847B0F5AE7F05D2444BA321444A45484E
:102C900031F056F9706803681B6A98470F2803D80B
:102CA000414BA4213E4AF2E7F06803681B6A98474B
:102CB0000B2803D83D4BA521394AE8E7DFF8F4900B
:102CC0001EF0CEFC04301EF0F0FCD9F8000010B16C
:102CD0000368DB689847D9F8000010B103681B68E7
:102CE0009847DFF8D480D8F8000010B103685B691A
:102CF0009847D7F83C0110B103685B689847D8F84B
:102D0000000010B103681B689847D7F83C0110B168
:102D100003689B689847F06800214FF0000B036838
:102D20005B6A9847224B0446C0F804B080F808B0AC
:102D300059460360B06803685B6A9847054600F02F
:102D400045FC7068594603685B6A98470646294601
:102D500000F012FC331DC7F83C612846C9F800405A
:102D6000C8F80050CAF800302B68C6F808A0DB6825
:102D7000EE639847336830461B68984721462846DB
:102D800020F080FC236820461B6998472368204672
:102D90005B6901B0BDE8F04F184700BF506C0308F5
:102DA000DE6C0308B06D0308F76D03089A6E030824
:102DB00020890308C8260220C4260220044B1B6871
:102DC00093F858200AB1D86C00B99868704700BFD2
:102DD0008026022070B5164604460D461EF006FDFC
:102DE000104B00211C60104B2360104BC4E9513183
:102DF0000F4B1868C4E953110368C4E94F119B686D
:102E0000C4E955659847FFF7D9FF28F06EFBFFF737
:102E1000D5FF28F0E5FBFFF7D1FF28F0EDFB2046BA
:102E200070BD00BFD4260220CC880308B4880308F4
:102E300080260220064BC0F84801C0F84C31002320
:102E4000C0F8503100F5A273C0F84031704700BFA0
:102E5000712C0008406A7047806A704770478B8801
:102E6000C069DB0A0A6850F823001044704710B5A7
:102E70000446BAB1107B68B1537BD27A1B0203F4CB
:102E8000E0631A43236A03EB82031A888A4202D161
:102E900093F9020010BD05D80138043380B2002830
:102EA000F3D1F7E70020F5E710B504462C2130F008
:102EB000CEFC204610BD000030B58BB00446BDF8F6
:102EC00060500895BDF85C5007959DF850500695E8
:102ED0009DF84C5005959DF8485004959DF8445038
:102EE00003959DF8405002959DF83C500195BDF822
:102EF000385000951FF0FEFF064B20462360159BBF
:102F0000E361169B2362199B63621A9BA3620BB059
:102F100030BD00BF44890308704770477047704751
:102F2000704770477047704730B444680346C268C2
:102F30009B68551004EB6200D20748BF625930BC51
:102F400048BFD35818470346406830B19A681AB949
:102F5000D86800F0010070470120704710B50446A2
:102F6000102130F074FC204610BD10B504464FF41B
:102F7000AE7130F06CFC204610BD38B500F588739A
:102F800004460D46994202D1C06B00F002FB04F1E9
:102F9000D4039D4202D1E06B00F0F8FA04F19803EB
:102FA0009D4204D1E06BBDE8384000F0F5BA38BD71
:102FB000036870B504461B6B154698472368204686
:102FC00029465B6BBDE87040184770B504461D4646
:102FD000BDF91060FFF7ECFF2368294620469B6B84
:102FE0009847236831462046DB6BBDE870401847A0
:102FF0002DE9F04F89B0044620F098F9664B4FF068
:10300000000B04F16C05236007AF644B04F19809D1
:10301000394604F1D408C4F83CB02846C4F860B07E
:103020004FF4F07AC4F868B0261DC4E9103B4FF4A1
:103030008073A4F86430FF2384F866304FF6FF7382
:10304000C4E912BBC4E914BBC4E916BBADF81C301B
:103050001CF0D0F848461CF08BFB40461CF088FB67
:1030600004F58873184602931CF082FB4C4B04F164
:1030700040005A4659460390C4E95334494BC4E9C9
:10308000553BCDF800A04FF44873FFF79EFF4FF07B
:103090007F430398A3660146304619F0ABFA3946E0
:1030A0002846ADF81CB01CF08AFB4FF448735A4612
:1030B00059462846CDF800A0FFF787FF5946284615
:1030C0004FF01E0B1CF051F829463046012519F02F
:1030D00091FA4846C4227121FFF76AFF022304F5E2
:1030E000A67A05AAADF81830032304A94846ADF81E
:1030F0001C3006AB0097ADF81050ADF814501CF022
:1031000092FA49463046C4F8D0B0C4F8C0A019F0CD
:1031100071FA4046C4224FF4A571FFF749FF062318
:1031200005AA04A9ADF81830072340460097ADF86A
:103130001C3006ABADF81050ADF814501CF073FA0B
:1031400041463046C4F80CB1C4F8FCA019F052FA5C
:103150000298C42240F22721FFF72AFF042305AA80
:1031600004A9ADF8183005230298ADF81C3006AB61
:103170000097ADF81050ADF814501CF054FA3046DA
:103180000299C4F848B1C4F838A119F033FA2046BE
:1031900009B0BDE8F08F00BFC4890308B49E0308DE
:1031A000AC8903087B2F00087047000030B5164D2E
:1031B0008FB02C68BFF35B8F14F0010420D1284638
:1031C00030F047FBE0B13F23012210490993104B37
:1031D00010480893104B0A940594CDE90643042344
:1031E000CDE903320A23CDE90B440093CDE9014434
:1031F000FFF762FE094830F0C1FE284630F035FB8B
:1032000004480FB030BD00BF50230020C8F90C9017
:10321000CCA5030854230020D8A50308A931000831
:103220007047000030B5164D8FB02C68BFF35B8F30
:1032300014F0010420D1284630F00BFBE0B13F230D
:10324000012210490993104B10480893104B0A941F
:103250000594CDE906430423CDE903321423CDE9D7
:103260000B440093CDE90144FFF726FE094830F0F6
:1032700085FE284630F0F9FA04480FB030BD00BF93
:1032800080230020D8F90C90D0A5030884230020C7
:10329000DCA50308213200087047000030B5164D48
:1032A0008FB02C68BFF35B8F14F0010420D1284647
:1032B00030F0CFFAE0B13F23012210490993104BBF
:1032C00010480893104B0A940594CDE90643042353
:1032D000CDE903322823CDE90B440093CDE9014425
:1032E000FFF7EAFD094830F049FE284630F0BDFA04
:1032F00004480FB030BD00BFB0230020E8F90C90A7
:10330000D4A50308B4230020E0A5030899320008DF
:1033100000207047002070470EB403B503AB0021B6
:1033200053F8042B01931FF0E9F802B05DF804EBA9
:1033300003B070470CB407B504AB53F8042B0193EA
:103340001FF0DCF803B05DF804EB02B0704700003A
:10335000436C10B5044673B3038F2BB9184BC521CA
:10336000184A194830F0ECFDC38E00EB43035B8C28
:103370000BB320F081FE238F012B03D8134BCB21FD
:10338000134AEEE7E28E40F63F10531C9BB2092B26
:10339000194688BFA3F10A0104EB4101498C81421F
:1033A00009D10A2B04EB420228BF0023508C04EB06
:1033B0004303588451842046BDE8104020F05EBD90
:1033C0003D6F0308466F0308F16F03083B70030865
:1033D0004970030820F01BBD38B518BB124B1348C9
:1033E0001C681349B4B12268224402606268224416
:1033F0000A60A26814440F4B00221A8000F02AF8D9
:10340000054600F025F80C4B1C600C4B1D600C4B66
:10341000188007E00B4B03600B4B0B600B4B1C68D9
:10342000002CE8D138BD00BFEC230020E4230020AD
:10343000E0230020E8230020D8260220E0260220F6
:10344000DC260220FCF90C90F8F90C9000FA0C90A4
:103450000020704700487047F023002010B5054C4D
:10346000FFF7E0FE2060FFF719FF6060FFF79EFEA8
:10347000A06010BDF023002010B5002404600C6093
:1034800014601C6010BD704710B504464FF4AE7157
:1034900030F0DDF9204610BD10B50446D0F85801D3
:1034A00000F05BF82046BDE810401EF05BB900005C
:1034B00010B50446FFF78EFC014B2046236010BD7B
:1034C000F88903080023084810B5084C1A4600681C
:1034D000214609F091FE0023054821461A4600685E
:1034E000BDE8104009F088BEDCD50020FC23002098
:1034F000E0D500200023084810B5084C1A460068A3
:10350000214609F079FE0023054821461A46006845
:10351000BDE8104009F070BEDCD50020110000208D
:10352000E0D500200023084810B5084C1A46006872
:10353000214609F061FE0023054821461A4600682D
:10354000BDE8104009F058BEDCD500201000002076
:10355000E0D50020002202607047704770470438B1
:103560007047704710B50446102130F070F92046BE
:1035700010BDA0F10400F5E70022C1608260024A9C
:1035800002601832426070474C8A03088068FFF777
:1035900099BF8068FFF7AEBF8068FFF7C3BF704771
:1035A000034B10B504460360FFF7BCFC204610BD7A
:1035B000748A030810B50446FFF7F2FF4FF4AE71AA
:1035C000204630F044F9204610BD000010B50446F6
:1035D000FFF70EFD014B2046236010BD748A0308DF
:1035E000FFF7A1BC0023F0B5934203DB0023934215
:1035F0000CDBF0BD30F9134004F11305ADB2262DFC
:1036000098BF002421F813400133EDE70025581F2F
:103610009E1D2C46002805DB8242C2BF31F9107086
:103620000135E4190130B042F4D194FBF5F421F8EE
:1036300013400133DBE700002DE9F04F89B00BF0B8
:10364000DDFBA04B18600BF0D9FB9F4B18600023EB
:1036500001939E4E4FF0FF3300220DF10F013068B1
:1036600009F00CFE04460028F3D19DF80F80306865
:10367000B8F1000F75D1964F09F040FE954D3868AE
:1036800009F03CFE4FF4805293499448C5F80080FD
:1036900006F030FD08B100F085FD4FF480529049EE
:1036A000904806F0BBFC08B100F07CFDDFF85482C6
:1036B000A8F580594FF0FF3101200BF097FC2B68E3
:1036C000002BF7D02B684FF400628749012B14BF01
:1036D00040464846FFF786FF844B0198844A0028FD
:1036E00008BF1A460023901E0C88083122F81340A8
:1036F000023331F8044CB3F5806F20F81340F3D156
:10370000CDE9042304A94FF0FF330022386809F003
:1037100073FD019B0DF10F01306883F001030193EC
:1037200000231A462B6009F0A9FD04460028C1D1E8
:103730009DF80F20012ABDD14FF400516D4804F0CF
:103740002BFC664806F020FC664806F01DFC4FF096
:10375000FF33224606A93868CDE9064409F04CFD3E
:1037600077E7B8F1020F7FF474AF09F0C7FD264682
:10377000614B25462746DFF86891A3461C60CA4680
:103780004FF0000807B18DB95C484FF0FF330022BD
:1037900004A9006809F072FD40B9049B002B7AD09F
:1037A000059A002A77D015461F460646012D17D9DF
:1037B00037F9163008F10408AAF802B0023DAAF859
:1037C000003007EB4603B8F5006F06F10206B3F9C7
:1037D00002300AF1080A2AF802BC2AF8043CD1D1C6
:1037E000002359E00124CAE728F802BBC145FBD1F8
:1037F000002B5ED1DFF80891002CF3D04FF48052FB
:10380000A9F58051374806F009FC08B100F0CAFC60
:10381000DFF8E8A04FF0FF3101200BF0E7FB364B5B
:1038200000241A68364BA3F58058012A18BF984621
:10383000C14607B17DB94FF0FF33002204A9DAF881
:10384000000009F01BFD30B9049BB3B3059AA2B385
:1038500015461F460646012D31D937F9163007EBBC
:10386000460204340236A9F800300023B4F5006F94
:10387000A5F10205A9F8023009F10809B2F9022000
:1038800029F8023C29F8042CD3D108EB4404002287
:1038900008F5805807E0012309EB480809F580592D
:1038A000A4E724F8022B4445FBD113490A60002BFE
:1038B000B0D00C4806F068FBCBE60123E5E7002317
:1038C000E3E700BFD8D50020D4D50020DCD5002008
:1038D000E8D5002004240020D0750020C824002052
:1038E000D05500204C250020D0250020D0450020B8
:1038F000D03500200024024000240020E4D5002020
:10390000D0650020D085002000B5A5B09022002110
:10391000684630F03EFD684606F0DAF84FF4801352
:10392000684600934FF48003109340F2AD13019367
:10393000022303931323099305F01CFE4FF08053D9
:10394000684600934FF08063239305F013FE05F063
:10395000DDFD4FF47A73B0FBF3F003F0DBF80420E5
:1039600003F036F900224FF0FF30114603F080F8E3
:1039700025B05DF804FB0000F0B5364C8BB0702626
:103980000327636C054605A9334843F48003636449
:10399000636C03F480030193019B236B43F04003AA
:1039A0002363236B03F040030293029B236B43F0DA
:1039B00010032363236B03F010030393039B022381
:1039C000CDE90563062300260993CDE9076704F0D6
:1039D0005FF9802305A92148059304F059F9236B69
:1039E0002A6843F480032363236B03F48003049366
:1039F000049B1B4B9A4222D11A4C40234FF4806205
:103A00004FF400514FF40030EC6666602663A56306
:103A1000C4E902364FF40063C4E904234FF4807311
:103A2000C4E906130423C4E908030F4B2046C4E984
:103A30000A76236003F094FA204603F013FA00227A
:103A40000E21392003F014F8392003F043F80BB0AD
:103A5000F0BD00BF003802400010024000180240D4
:103A6000045801406824002028640240F0B53C4C12
:103A70008BB002270025636C064605A9394843F43C
:103A800080036364636C03F480030193019B236BE5
:103A900043F010032363236B03F010030293029B94
:103AA0000823CDE905370623CDE90757099304F02C
:103AB000EFF8236B05A92C4843F400732363236BB1
:103AC00003F400730393039B4FF48053CDE907572E
:103AD000CDE9053504F0DCF8236B326843F480034C
:103AE0002363236B03F480030493049B1F4B9A42CC
:103AF00023D11F4C4FF000734FF480624FF40051FC
:103B000020463467E5602563A663C4E901354FF4B8
:103B10000063C4E904234FF48073C4E906134FF42F
:103B20000033C4E908350323C4E90A35114B236087
:103B300003F016FA204603F095F900220F213C20ED
:103B400002F096FF3C2002F0C5FF00220F21282042
:103B500002F08EFF282002F0BDFF0BB0F0BD00BFC9
:103B60000038024000100240002402402458014066
:103B700008240020706402402DE9F84F4F4E07469C
:103B80004F4C736ADFF840A1204623F480334D4D3B
:103B9000C4F800A0736206F0D9F97368DFF82C81CD
:103BA000284623F48033C5F80080736006F0CEF910
:103BB0003846FFF7A9FE2046C5F80080C4F800A0EB
:103BC00006F048FB002873D13E48FFF7D5FE3C487D
:103BD000FFF74CFFC5F800804022DFF8E0800026A8
:103BE0004FF4803B8021D8F804304FF0010935486C
:103BF00023F48033C8F804304FF400536E622B6115
:103C00002023EF616E606E612E63EE63AE60C5F8D7
:103C10001890EE602E62AE65C5E910234FF4802344
:103C20000422C5E914360F23C5E90D16C5E917238B
:103C3000C5E90A66C5E912B606F0ACF82D6840225F
:103C400080212868202340EA0B002860D8F824004F
:103C5000C4F800A020F48030C8F824000320666275
:103C600060601748E76166612663E663C4F8089000
:103C70002661C4F81890E660A6622662A665C4E9CB
:103C80001023C4E90D164FF480231021C4E9143623
:103C9000E1620F230421C4E912B6C4E9171306F048
:103CA00079F82268136843EA0B031360BDE8F88FC4
:103CB000284606F0CFFA002886D08BE7005801404E
:103CC000C82400204C2500202458014004580140FD
:103CD00070B5044686B00A4D0A4E2A883146204601
:103CE000531C2B8030F0F0FA6946204608F09FFF05
:103CF00018B92B88B3F57A7FEFD306B070BD00BF3B
:103D0000120000201B71030830B5044687B001255E
:103D100010492A46204630F0D7FA6946204608F076
:103D200086FF58B1012D03D10023237007B030BDA9
:103D30006A1E0849204630F0C7FAF7E70135B5F5A5
:103D40007A7FE5D10449204607B0BDE8304030F025
:103D500002BC00BF1B7103082971030870B5124C27
:103D60001026049D24688161046005F124045143F8
:103D700044600E4C5943C38224685343C9080674F7
:103D8000DB1084600A4C012603842468094BC4605C
:103D900000241B6844748474C47406754475C1613E
:103DA00042844362856270BD745A03083671030809
:103DB0003B71030834780308C36837B500932C3B84
:103DC00004210446019308F021FE08B100F0EAF94D
:103DD000114D0422694620462B4608F0CFFC10B94D
:103DE0002B68042B01D000F0DDF92821204608F0D3
:103DF0000DFE08B100F0D6F90422074B20460DEB6A
:103E0000020108F0BBFC10B92B68042B01D000F0B4
:103E1000C9F903B030BD00BFD0D500202DE9F0476F
:103E2000644DAEB0644F4FF0FF3300220DF10F012F
:103E3000286809F023FA04460028F4D19DF80F30D1
:103E4000002B68D1286809F059FA01225B495C48C7
:103E500008F08CFA08B100F0A5F910A8FFF738FFB8
:103E60000A2210A9574808F0C1FA08B100F09AF9DF
:103E70000024102218A802234AF644410094FFF7B8
:103E80006DFF0DEB020301462C224E48049408F00E
:103E900075FC10B9049B2C2B01D000F083F94A4C1F
:103EA000DFF820814FF0FF33002206A9206809F0D7
:103EB000E5F90028F6D1069EFEB9424C102243498E
:103EC00023A8E3682C3B009302230968FFF746FF11
:103ED0003146204608F09AFD23A905AB2C22204646
:103EE00008F04CFC2046FFF767FF204608F075FD00
:103EF0002021374804F055F895E7079A04AB31467E
:103F00004046520008F03AFC10B9049B002BC9D17E
:103F100000F048F9C6E7022B85D1386809F0EEF9C0
:103F2000286809F0EBF901222449254808F01EFA17
:103F300008B100F037F908A8FFF7E6FE012208A94A
:103F4000204808F053FA08B100F02CF9214E2C213A
:103F5000DFF88480DFF86C901A4808F057FD0023E2
:103F60004FF4005248469C4214BFB246C2461893D2
:103F700018AB514608F03CFB08B100F013F9189A51
:103F8000386862B152084FF0FF3323A9CDF88CA0F6
:103F90002492002284F0010409F02EF9DFE74FF0AB
:103FA000FF3323A9CDE9232209F026F9054808F0BB
:103FB00014FD38E7E0D50020E4D500203CE00020E7
:103FC00008DE0020D8DB0020E8D5002074DB0020CC
:103FD00000240240D0950020D0B5002001490020E7
:103FE0000AF086BDFD14000810B54BF68030074C72
:103FF0002060FFF7C1FD2168642001F067FE044BDB
:10400000BDE8104018680AF0F5BB00BF74DB002063
:10401000FCD5002000B54FF4407395B041F28832D2
:1040200017480C93062306A906930023CDE90D3308
:104030000F930B931393CDE9113304F045FEE0B9D0
:10404000022301224FF4800104900D48CDE9003392
:104050001023CDE9023205236A46CDE905134FF05E
:10406000407306A90F9341F2883304F02DFF003806
:1040700018BF012015B05DF804FB0120FAE700BF6E
:1040800040D9002007B50C4B012201A91A6000237A
:1040900001930A4B18680AF0DBFF019B4BB14FF00C
:1040A000E0234FF08052C3F8042DBFF34F8FBFF3CE
:1040B0006F8F03B05DF804FB00240020D4D50020EE
:1040C00007B50C4B022201A91A60002301930A4B89
:1040D00018680AF0BDFF019B4BB14FF0E0234FF091
:1040E0008052C3F8042DBFF34F8FBFF36F8F03B01F
:1040F0005DF804FB00240020D4D5002007B50F4B49
:1041000002224FF400510E481A6003F04AFF0023C8
:1041100001A901930B4B18680AF09AFF019B4BB160
:104120004FF0E0234FF08052C3F8042DBFF34F8FC0
:10413000BFF36F8F03B05DF804FB00BF04240020C1
:1041400000240240D8D5002007B50E4B01222021C3
:104150000D481A6003F025FF002301A901930B4BC2
:1041600018680AF075FF019B4BB14FF0E0234FF048
:104170008052C3F8042DBFF34F8FBFF36F8F03B08E
:104180005DF804FB0424002000240240D8D5002060
:104190000268034B9A4201D102F034BC704700BF61
:1041A0000010004001224FF40051014803F0F4BE1A
:1041B0000024024000B595B01022002109A830F07B
:1041C000E8F81422002102A830F0E3F8254B012082
:1041D0004FF0190C1A6C4FF0090E42F080521A641D
:1041E0001B6C03F080530093009B1F4B1A6842F432
:1041F00040421A604FF480021B6803F4404301936D
:10420000019B4FF48033CDE90703022307A8CDE9D2
:104210000D3211934FF4D8720723CDE90FC2CDE9C7
:1042200012E304F0E3FE08B1FFF7BCFF04F0E6FB85
:1042300008B1FFF7B7FF02230F22002102A8CDE942
:1042400002234FF4A053CDE904134FF48053072108
:10425000069305F0BDF808B1FFF7A4FF15B05DF8AF
:1042600004FB00BF003802400070004000B5A5B05C
:104270007C22002105A830F08CF840F2AD134FF4F9
:1042800000226846CDE9002302230493CDE90233DE
:10429000132309934FF480130F9305F06BF908B1C2
:1042A000FFF780FF25B05DF804FB000008B5124859
:1042B000124A134BC0E9002300230122C0E9043352
:1042C000C0E90232C0E90633036203F0A6FF08B179
:1042D000FFF768FF0021084804F0CDF908B1FFF7A7
:1042E00061FF0021044804F0ECF918B1BDE8084072
:1042F000FFF758BF08BD00BF34DA0020006000405F
:104300006847402080B5BAB0102200214FF0005815
:104310002CA8012430F03DF81C2602F00FFCCA4BFB
:104320002CA8ADF8B040032540F20117CDE92D834C
:10433000C64B2F9302F020FC4FF010438DF8B14094
:1043400000242CA82D938DF8B8608DF8BB40ADF8F3
:10435000BE4002F011FC02232CA88DF8BB508DF852
:10436000B1301923ADF8BE708DF8B83002F004FCFE
:104370004FF040432CA88DF8B86004262D938DF89B
:10438000B1508DF8BB40ADF8BE4002F0F5FB1723ED
:104390002CA88DF8B1608DF8B8308DF8BB50ADF811
:1043A000BE7002F0E9FB304602F0D6FBBFF34F8F40
:1043B000BFF36F8FA64AC2F85042BFF34F8FBFF3CF
:1043C0006F8F536943F400335361BFF34F8FBFF3D3
:1043D0006F8FC2F88440BFF34F8FD2F8803043F61E
:1043E000E074C3F3C900C3F34E335B0103EA040670
:1043F000014646EA81750139C2F86052F9D2203B84
:1044000013F1200FF2D1BFF34F8F536943F4803380
:104410005361BFF34F8FBFF36F8F8E4C02F0E0FA02
:10442000FFF7C8FE0025FFF721FF142200212CA86A
:104430002FF0AFFF236B002242F2220143F0100362
:10444000854801264FF4004723634FF00308236B90
:1044500003F010030393039B236B43F008032363D0
:10446000236B03F008030493049B236B43F00203C4
:104470002363236B03F002030593059B236B43F037
:1044800040032363236B03F040030693069B236BD7
:1044900043F400732363236B03F400730793079BB8
:1044A000236B43F004032363236B03F0040308939B
:1044B000089B236B43F480732363236B03F48073A3
:1044C0000993099B236B43F020032363236B03F0C1
:1044D00020030A930A9B236B43F080032363236B1F
:1044E00003F080030B930B9B03F056FD01224FF466
:1044F0000041594803F050FD0022C021574803F005
:104500004BFD00224021564803F046FD42F22003B5
:104510002CA95148CDE92C36CDE92E5503F0B8FB36
:104520004FF480532CA94C482E95CDE92C3503F03F
:10453000AFFB2CA94848CDE92C76CDE92E6603F0D7
:10454000A7FB2CA947482E95CDE92C7503F0A0FBBD
:10455000C0232CA941482E95CDF8BC80CDE92C363E
:1045600003F096FB40232CA93D48CDE92C36CDE93C
:104570002E5803F08DFB02232CA93748CDE92C36A9
:10458000CDE92E5803F084FB236B2A46052143F422
:10459000800338202363236B03F480030293029B80
:1045A00002F066FA382002F095FA2A4605213920F1
:1045B00002F05EFA392002F08DFA2A4605213C20ED
:1045C00002F056FA3C2002F085FA2A4605214420E2
:1045D00002F04EFA442002F07DFAFFF767FE2A4609
:1045E00039461D4803F0D8FC142002F01DFA32466B
:1045F0003946194803F0D0FC0A2002F015FA2422AB
:10460000294615A80E952FF0C4FE182229460FA89A
:104610002FF0BFFE342229462CA82FF0BAFE2946DF
:104620002C221EA82FF0B5FE0F48104B4FF0640E41
:104630000CA9C0E900350423C0E902360523CDE901
:104640000CE302F099FF13E01200000301000101E6
:1046500000ED00E000380240002402400008024063
:10466000001402400020024088DA0020006C014063
:1046700008B1FFF797FD15A9C7481D95CDE9156548
:10468000CDE91755CDE91955CDE91B5503F0E0F9F2
:1046900008B1FFF787FD21231C274FF00F0C0FA94E
:1046A000BD48CDE90F731923CDE911C30023CDE92E
:1046B000133303F090F908B1FFF774FD0421B648F5
:1046C00003F078F908B1FFF76DFD42F21071B248BE
:1046D00003F0C8FA08B1FFF765FD4FF48071AE48EA
:1046E00002F0E7FE08B1FFF75DFD4FF400734FF4F1
:1046F00080724FF480614FF480504FF480444FF447
:1047000000354FF40026CDE92C234FF40063CDE9AA
:104710002E134FF400532CA9CDE930034FF480330E
:104720009D48CDE932434FF48023CDE934534FF017
:104730008073CDE936630223389303F007F908B19B
:10474000FFF730FD002310224FF0C8084FF0040996
:1047500022931EA927939048CDE91E33CDE92082EC
:10476000CDE9253302220123CDE92392289303F0DA
:104770007BF808B1FFF716FD0021874803F063F8C6
:1047800008B1FFF70FFD342200211EA8834D2FF042
:1047900000FE0024824B4FF0CA0C4FF0CB0E28468F
:1047A0002C61AC8685F83640C5E900340123C5E9A3
:1047B00005330223C5E907334FF4F173C5E909C393
:1047C00040F2E313C5E90244C5E90BE304F01CF829
:1047D00008B1FFF7E7FC4FF4F0730221C8224FF451
:1047E00080676E481E942993ADF8A8408DF8AA40C2
:1047F000CDE92131FF21CDE923140521CDE91F2485
:10480000CDE92571CDE927421EA9002204F0C8F8A0
:1048100008B1FFF7C7FC2A6800245F484FF4006620
:10482000936923F00103936103F078F901210220D9
:1048300001F094FE2823152221465748009403F0E6
:10484000A0F92CA954483694CDE92C44CDE92E4446
:10485000CDE93044CDE93244CDE9344403F076F873
:104860002A685048042193694025846043F001037D
:10487000936107224C4BC4618462C0E90034202359
:10488000C0E903134FF4C073C0E905534FF48053DC
:10489000C0E908630223CDE92C32CDE9303303238C
:1048A000CDE92E122CA9329306F064F908B1FFF776
:1048B00079FC012610254FF6FF721EA939480F9486
:1048C000CDE91E65CDE9206406F074F9304602F0AA
:1048D000ABF802234FF6FF721EA93248CDE91E3510
:1048E000CDE9206406F066F903234FF6FF721EA996
:1048F0002C48CDE91E350823CDE9203406F05AF9BD
:104900004FF40C734FF6FF721EA90F930423254832
:104910002096CDE91E350F9B219306F04BF940F20E
:104920002A71204806F065F94FF0204343F2D20285
:104930001E481A6003F580530462C0E90036C0E9DE
:10494000025519234FF44075C0E90644C0E9043507
:1049500004F068F908B1FFF725FC0023662641F250
:1049600088322CA9114832952C963593319339937E
:10497000CDE93333CDE9373304F0A6F9002800F050
:10498000CD81FFF70FFC4FF4807341F288322CA9E0
:104990000648329335230BE088DA00208CD90020BA
:1049A0000068014000D60020400100A040D900204E
:1049B0002C930023CDE93333359331933993CDE9EB
:1049C000373304F081F9002800F05682FFF7EAFB44
:1049D000B7234FF440741E9300232494279323930A
:1049E0002B93CDE92533CDE92933FFF713FB20BB0A
:1049F00041F288321EA9A74804F066F9E8B90523F8
:104A00003190399015AA2C934FF0407315902CA932
:104A10003593012332941693CDE918301023179360
:104A20004FF48003CDE93300CDE937001A9341F20A
:104A30008833984804F048FA08B1FFF7B3FB052320
:104A40004FF440764FF0407401252C93002341F23F
:104A500088322CA98F48329635943193CDE933337F
:104A6000CDE93653CDE9383304F02EF9002800F0B3
:104A70002482FFF797FB05234FF440764FF04074F4
:104A800001252C93002341F288322CA981483296CB
:104A900035943193CDE93333CDE93653CDE938330D
:104AA00004F012F9002800F06482FFF77BFB4FF45A
:104AB00040734FF040722CA976483293EC232C932C
:104AC0004FF4406333934FF440532F930023CDE9C9
:104AD00034320A22399331921EAACDE93733CDE917
:104AE0001E3304F042FA08B1FFF75CFB6A4800236A
:104AF000DFF82482C0E90233C0E90083C0E90E3345
:104B0000C0E91033C0E9123302F0A2FB08B1FFF78D
:104B100049FB0121604802F05BFC08B1FFF742FB52
:104B2000FBF780FF5D485E4B036000238380C0E994
:104B300005330123036202F057F808B1FFF732FB97
:104B40000024584B584A01279C61C3E90024C3E95B
:104B50000244C3E9044401F0EBFA5448544B4FF0CB
:104B6000400C4FF0040E0463036080234460C46370
:104B70008460C460C4628465C0E90D344FF400539E
:104B8000C0E904344AF64443C0E906732023C0E96F
:104B900010C34FF48033C0E912340F23C0E9094435
:104BA000C0E91444C0E917E305F0F4F808B1FFF7D1
:104BB000F9FA40480322404B4025426080220360BE
:104BC000002304260363C3630361C3608365C0E9F4
:104BD0000D230122826082611022C2622022C0E97C
:104BE00010524FF48032C0E90933C0E91223C0E902
:104BF00014330F23C0E9176305F0CCF808B1FFF7B1
:104C0000D1FAFBF711FFFBF70EFF08F077F8082148
:104C10002A4A084608F0AAFA294B0821294A1860AE
:104C2000084608F0A3FA284B284A012118600420FE
:104C300008F09CFA264B274A01211860042008F04E
:104C400095FA254B254A00211860254808F0B4F84C
:104C5000244B254A00211860244808F0ADF8244B65
:104C6000244A00211860244808F0A6F8234B244A5F
:104C700000211860234808F09FF8234B234A0021A5
:104C80001860234808F098F8224B186008F060F884
:104C9000FEE700BF40D90020A4DA002050DB00204E
:104CA00000300240F4D60020001C0140BCD8002097
:104CB0000458014038D8002024580140E88A0308ED
:104CC000E8D50020D08A0308E4D50020A08A030894
:104CD000DCD50020B88A0308E0D50020908B0308BB
:104CE000E93F0008FCD500206C8B0308370A000858
:104CF000F8D50020488B0308892A0008F4D5002045
:104D0000248B030839360008F0D50020008B0308F7
:104D10001D3E0008ECD5002000B00240992441F26D
:104D200088322CA9BF482C9403F0CEFF00287FF4D2
:104D300028AE4FF4807541F288322CA9B9483295DB
:104D40002C9603F0C1FF00287FF41BAE41F288329D
:104D50002CA9B4482C9403F0B7FF064600287FF432
:104D600010AE01244FF47A7001F05EFE4FF010098E
:104D70004FF4800805271E9641F288331EAA2CA9FD
:104D8000A8481F94CDF88090CDF88C8032952C9750
:104D9000CDE921464FF08076359604F095F800284D
:104DA0007FF4EFAD319041F288322CA932952C97E7
:104DB0003596CDE93300CDE93640CDE93800994844
:104DC00003F082FF00287FF4DCAD41F2883215A9A0
:104DD000944804F019F800287FF4D3AD06233590E9
:104DE000319041F2883239902CA932952C93CDE93B
:104DF0003300CDE937008B4803F066FF00287FF4CD
:104E0000C0AD02231EAA2CA9CDF88090CDF88C80CD
:104E10002C973596CDE91E33CDE9214041F28833F8
:104E2000804804F051F800287FF4ABAD9DF8543071
:104E300041F2883231902CA943F0400332952C94F2
:104E400035968DF85430CDE93300CDE93640CDE9C3
:104E50003800744803F038FF00287FF492AD41F227
:104E6000883215A96F4803F073FF00287FF489ADDD
:104E7000282001F0D9FD86E541234FF0400C4FF08A
:104E8000010E22901EAA2CA96648CDE91EC310234C
:104E9000CDE9203E4FF4800323934FF440733293C7
:104EA00005232C934FF04073359341F2883304F07F
:104EB0000BF800283FF48CAD88E541F288321EA93A
:104EC000584803F0A1FF00287FF4D3AD152331909B
:104ED00041F288322CA932962C933594CDE93300D7
:104EE000CDE93650CDE938004E4803F0EDFE0028FC
:104EF0007FF4BFAD41F288320DF17901494803F0EA
:104F000083FF00287FF4B5ADFFF784F800287FF415
:104F1000B0AD0223C02232962C9535943190CDE964
:104F20003300CDE93630CDE9380092FAA2F2032100
:104F30009DF87930B2FA82F23A4803F03F0301FA61
:104F400002F22CA9134341F288328DF8793003F034
:104F5000BBFE00287FF48DAD41F288321EA9314896
:104F600003F0F6FE00287FF484AD282001F05CFDFC
:104F700081E541F288321EA92A4803F045FF002846
:104F80007FF493AD1523319041F288322CA93296EB
:104F90002C933594CDE93300CDE93650CDE9380076
:104FA000204803F091FE00287FF47FAD41F2883263
:104FB0000DF179011B4803F027FF00287FF475AD40
:104FC000FFF728F800287FF470AD022307223296FD
:104FD0002C9535943190CDE93300CDE93630CDE9CB
:104FE000380092FAA2F206219DF87930B2FA82F2E4
:104FF0000C4823F0070301FA02F22CA9134341F2F3
:1050000088328DF8793003F05FFE00287FF44DADD3
:1050100041F288321EA9034803F09AFE00283FF4AB
:1050200046AD42E540D90020FFF7BCB80D4B82B039
:105030000F216FF001001A6C42F080521A641A6C52
:1050400002F080520092009A5A6C42F480425A64F4
:1050500000225B6C03F480430193019B02B001F0DA
:1050600007BD00BF00380240026882B0084B9A4278
:105070000BD1D3F8302803F5006342F480521A6351
:105080001B6B03F480530193019B02B0704700BF78
:10509000003002400E4B07B502689A4215D1A3F5C5
:1050A000F04305215A201A6B42F400021A630022D1
:1050B0001B6B03F400030193019B01F0D9FC5A2000
:1050C00003B05DF804EB01F005BD03B05DF804FB2F
:1050D00000B0024010B588B004461422002103A895
:1050E0002FF057F92268154B9A4225D103F54C430E
:1050F00003A913485A6C42F000625A645A6C02F0D9
:1051000000620192019A1A6B42F400721A6304223F
:105110001B6B03F400730293029B0223CDE903236C
:105120000D23079302F0B4FD62200022052101F057
:105130009FFC622001F0CEFC08B010BD006C014065
:1051400000240240F0B5ADB004461422002103A8AB
:105150002FF01FF99022002108A82FF01AF92268D9
:10516000254B9A4246D14FF4003308A8089304F027
:1051700001FA08B1FFF716F8204C12270126032583
:10518000236B03A91E4843F002032363236B03F040
:1051900002030093009B236B43F008032363236BFC
:1051A00003F008030193019B8023CDE903370B2310
:1051B000CDE90565079302F06BFD4FF4805303A919
:1051C0001048CDE903370423CDE90565079302F0C4
:1051D0005FFD236C5F200022052143F08073236470
:1051E000236C03F080730293029B01F041FC5F206B
:1051F00001F070FC2DB0F0BD0060004000380240AE
:1052000000040240000C0240026808B50B4B9A42B1
:1052100012D10B4A80210B48136C23F08073136466
:1052200002F01AFE08484FF4805102F015FE5F208C
:10523000BDE8084001F05CBC08BD00BF0060004054
:105240000038024000040240000C024010B5A6B035
:1052500004469022002102A82FF09BF82268144BEC
:105260009A4222D10823072002934FF4C073079378
:105270000223CDE90830012302A80C9304F07AF947
:1052800008B1FEF78FFF0B4B582003215A6C42F0F8
:1052900080625A6400225B6C03F080630193019B7F
:1052A00001F0E6FB582001F015FC26B010BD00BF50
:1052B0000068014000380240142200212DE9F0412D
:1052C0008AB004460DEB02002FF063F822683A4BD7
:1052D0009A426ED1394B0225032409269A694FF070
:1052E000040805A9364842F0020200279A619A692B
:1052F00022F002029A619A6B42F002029A639A6B60
:1053000002F002020092009A1A6B42F010021A6335
:105310001A6B02F010020192019A1A6B42F002021B
:105320001A631A6B02F002020292029A1A6B42F09E
:1053300004021A631A6B02F004020392039A1A6BB6
:1053400042F008021A631B6B03F008030493049BEA
:10535000CDE90585CDE9084602F09AFC402305A970
:105360001848CDE905350123CDE907340A2309930F
:1053700002F08EFC4FF4C06305A913480996CDE9ED
:105380000535CDE9077402F083FC05A90D4809969F
:10539000CDE90585CDE9077402F07AFC4FF400539E
:1053A00005A90A480996CDE90535CDE9077402F04B
:1053B0006FFC0AB0BDE8F081001000A00038024088
:1053C000001002400004024000080240000C0240AD
:1053D0002DE9F041ACB005461422002103A82EF0BF
:1053E000D8FF9022002108A82EF0D3FF2A684E4B48
:1053F0009A4240F095804FF0846308A8089304F027
:10540000B9F808B1FEF7CEFE484B00264FF002086F
:1054100003275A6C0B2403A9454842F080025A64C2
:105420005A6C02F080020092009A1A6B42F0080255
:105430001A631A6B02F008020192019A1A6B42F089
:1054400040021A631B6B079403F040030293029B14
:10545000C023CDE90567CDE9033802F019FC4FF40C
:10546000007303A933480794334CCDE90338CDE9E1
:10547000056702F00DFC4FF0B053DFF8C8E04FF4C1
:1054800080684FF480424FF4000120462662C4E950
:1054900000E34FF48053C4E904832023C4E90623C6
:1054A0000423C4E909374FF40013C4E90266C4E9D0
:1054B0000B1301F0D7FC08B1FEF774FE1F4A4FF042
:1054C000B0532C644021A5634FF480601C4C04272A
:1054D0004FF480464FF4000CC4E9002300234FF43E
:1054E0008052C4E9021323620323C4E90402C4E91D
:1054F000097320224FF400132046C4E90662C4E970
:105500000BC301F0AFFC08B1FEF74CFE6720002290
:105510000521EC63A56301F0ABFA672001F0DAFA2C
:105520002CB0BDE8F08100BF001C014000380240F3
:10553000000C02400018024094D60020886402400B
:1055400034D6002010640240F0B5002387B00393E6
:105550002A4B1E68002E4FD10122022703250C245E
:105560001A6001A9264B27489A6B42F001029A6300
:105570009B6B03F001030093009B4FF68373CDE90F
:105580000454CDE9013702F083FB48F2331301A93B
:105590001D480594CDE90137CDE9036502F078FB9C
:1055A0004CF2037301A919480594CDE90137CDE9FF
:1055B000036502F06DFB40F2FF6301A914480594F6
:1055C000CDE90137CDE9036502F062FB4FF63F03F9
:1055D00001A910480594CDE90137CDE9036502F032
:1055E00057FB4FF62C7301A90B480594CDE9013701
:1055F000CDE9036502F04CFB07B0F0BD7CDB002079
:10560000003802400010024000180240000C024026
:105610000020024000140240001C024002684A4B75
:105620009A42F0B5054689B04AD1484803684BB95B
:10563000474A516C41F480015164526C02F480027B
:105640000192019A01330026062402270360702389
:1056500003A940480794CDE90337CDE9056602F078
:1056600017FB80233C4803A907943C4CCDE9033742
:10567000CDE9056602F00CFB394B4FF4806C4FF41A
:10568000804E4FF4003220462663C4E900364023A2
:10569000C4E902364FF40063C4E904C34FF48073D5
:1056A000C4E906E30423C4E908230323C4E90A3652
:1056B00001F0D8FB08B1FEF775FD2C67A563EC6619
:1056C0002A68284B9A423CD1204803684BB9204AAB
:1056D000516C41F480015164526C02F480020292D8
:1056E000029A01330822002603A903600223194805
:1056F0004FF400571C4CCDE903230623CDE9056682
:10570000079302F0C5FA4FF0007318494FF4806018
:10571000C4E900134FF40063C4E904034FF4807339
:105720002046C4E906734FF40033C4E90266C4E9B5
:10573000083601F097FB08B1FEF734FD2C67A5632E
:10574000EC6609B0F0BD00BF0458014078DB0020D2
:10575000003802400010024000180240D8D7002054
:10576000286402402458014078D700207064024029
:1057700002681C4B9A4210B5044617D11A4A1368A6
:10578000013B136023B9194A536C23F4800353641B
:105790007021174802F060FB8021164802F05CFB84
:1057A000206F01F0DDFBE06E01F0DAFB2268124BA6
:1057B0009A4215D10C4A1368013B136023B90B4A76
:1057C000536C23F4800353640821094802F044FB1E
:1057D000206F01F0C5FBE06EBDE8104001F0C0BBDA
:1057E00010BD00BF0458014078DB002000380240A3
:1057F000001002400018024024580140214B1A6C4E
:1058000042F0100270B588B01A641B6C054601A9FD
:1058100003A803F010030293029B03F08DFE069B86
:105820004BBB03F079FE184E184B336040F2E73360
:10583000F360174BB0FBF3F3013B3046736000237A
:105840003361B360B36105F027FB044680B930468D
:1058500005F0E8F9044658B9362001F03BF90F2D60
:105860000DD822462946362001F002F9094B1D6069
:10587000204608B070BD03F04FFE4000D3E701247E
:10588000F6E700BF0038024080DB00200010004037
:1058900040420F00480000207047FEE7FEE7FEE7A9
:1058A000FEE77047014805F0FFB900BF80DB00202C
:1058B000014801F00DBC00BF94D60020014801F062
:1058C00007BC00BFD8D70020014801F001BC00BFD1
:1058D00078D70020014801F0FBBB00BF34D6002080
:1058E000014803F000B800BF8CD90020014801F046
:1058F000E5BC00BFA4DA0020014802F0B5BE00BF3D
:1059000034DA0020014801F02CBF00BF88DA002003
:10591000014801F0D1B900BFFCDA0020014805F0D0
:1059200027B800BFF4D600200120704708B52EF03C
:10593000E5FD162303604FF0FF3008BD08B52EF0DB
:10594000DDFD16230360FEE770B50D4614460E46D6
:10595000731B9C4201DC204670BDAFF3008006F84B
:10596000010BF5E770B50D4614460E46731B9C42BD
:1059700001DC204670BD16F8010BAFF30080F5E79F
:105980004FF0FF3070474FF4005300204B607047DA
:1059900001207047002070470A4A116808B5034685
:1059A00009B9094911601068694603448B4206D958
:1059B0002EF0A4FD0C2303604FF0FF3008BD1360F0
:1059C000FCE700BFCCDB0020C03302200F490020E1
:1059D000D1F8883043F47003C1F888300C4B1A6852
:1059E00042F001021A6098601A6822F0847222F470
:1059F00080321A60074A5A601A6822F480221A60BC
:105A0000D8604FF000638B60704700BF00ED00E08E
:105A1000003802401030002470B5304D88B0304C52
:105A20000026284602F04EFC2E4A2F4B4FF48051A0
:105A30000220C5E900230123C5E90466C5E9026324
:105A4000C5E90766236B43F008032363236B03F068
:105A500008030093009B236B43F002032363236B33
:105A6000059603F002030193019B1223CDE9031372
:105A7000042303A9CDE906031C4802F009F9802399
:105A800003A91B4803930B23079302F001F9236C2E
:105A900032460F215F2043F080732364236C03F0B0
:105AA00080730293029B236A43F080732362236A0C
:105AB00023F08073236200F0DBFF5F2001F00AF81F
:105AC00032460F21602000F0D3FF602001F002F881
:105AD000284602F0A2FB08B070BD00BF34DA0020F7
