:020000040800F2
:1000000000000820250A0008D1250008D325000893
:10001000D5250008D7250008D925000800000000D4
:10002000000000000000000000000000D1AC00084B
:10003000DB2500080000000071AD0008D5AD000808
:10004000750A0008750A0008750A0008750A000894
:10005000750A0008750A0008750A0008750A000884
:10006000750A0008750A0008750A0008750A000874
:10007000750A0008750A0008750A0008750A000864
:10008000750A0008750A0008750A0008750A000854
:10009000750A0008750A0008750A0008750A000844
:1000A000750A0008750A0008750A0008750A000834
:1000B000750A0008750A0008750A0008750A000824
:1000C000750A0008750A0008750A0008750A000814
:1000D000750A0008750A0008750A0008750A000804
:1000E000750A0008750A0008750A0008750A0008F4
:1000F000750A0008750A0008750A0008750A0008E4
:10010000750A0008750A0008750A0008750A0008D3
:10011000750A0008750A0008DD250008750A000840
:10012000E9250008F5250008750A0008750A000889
:1001300001260008750A0008750A0008750A0008FB
:10014000750A0008750A0008750A0008750A000893
:100150000D260008750A0008750A0008750A0008CF
:10016000750A0008750A0008750A0008750A000873
:10017000750A0008750A0008750A000800000000EA
:10018000750A0008750A0008750A0008750A000853
:10019000750A0008750A0008750A0008750A000843
:1001A00019260008750A000825260008750A0008A7
:1001B000750A0008750A0008750A0008312600084B
:1001C000750A0008750A00083D260008492600083F
:1001D000750A0008750A0008750A00085526000807
:1001E000750A0008750A0008750A0008750A0008F3
:0801F000750A0008750A0008F9
:1002000010B5054C237833B9044B13B10448AFF350
:1002100000800123237010BD400300200000000077
:100220004C28030808B5034B1BB103490348AFF33F
:10023000008008BD00000000440300204C28030893
:1002400001F0FF01102A2BDB10F0070F08D010F887
:10025000013B013A8B422DD010F0070F42B3F6D18B
:10026000F0B441EA012141EA014122F007047FF0A4
:1002700000070023F0E80256083C85EA010586EAFB
:10028000010685FA47F5A3FA87F586FA47F6A5FA37
:1002900087F68EB9EED1F0BC01F0FF0102F0070243
:1002A00032B110F8013B013A83EA010313B1F8D1EE
:1002B0000020704701387047002D06BF35460338CF
:1002C000073815F0010F07D1013015F4807F02BF08
:1002D000013015F4C03F0130F0BC0138704700BF59
:1002E00081F0004102E000BF83F0004330B54FEAE7
:1002F00041044FEA430594EA050F08BF90EA020F54
:100300001FBF54EA000C55EA020C7FEA645C7FEAE6
:10031000655C00F0E2804FEA5454D4EB5555B8BF09
:100320006D420CDD2C4480EA020281EA030382EA7A
:10033000000083EA010180EA020281EA0303362D0C
:1003400088BF30BD11F0004F4FEA01314FF4801CDF
:100350004CEA113102D0404261EB410113F0004FF1
:100360004FEA03334CEA133302D0524263EB4303A8
:1003700094EA050F00F0A780A4F10104D5F1200E46
:100380000DDB02FA0EFC22FA05F2801841F10001A1
:1003900003FA0EF2801843FA05F359410EE0A5F175
:1003A00020050EF1200E012A03FA0EFC28BF4CF0A6
:1003B000020C43FA05F3C01851EBE37101F000455C
:1003C00007D54FF0000EDCF1000C7EEB00006EEB69
:1003D0000101B1F5801F1BD3B1F5001F0CD34908F3
:1003E0005FEA30004FEA3C0C04F101044FEA44524A
:1003F00012F5800F80F09A80BCF1004F08BF5FEAD1
:10040000500C50F1000041EB045141EA050130BDB0
:100410005FEA4C0C404141EB0101013C28BFB1F5C2
:10042000801FE9D291F0000F04BF01460020B1FA0D
:1004300081F308BF2033A3F10B03B3F120020CDAE0
:100440000C3208DD02F1140CC2F10C0201FA0CF0BE
:1004500021FA02F10CE002F11402D8BFC2F1200C23
:1004600001FA02F120FA0CFCDCBF41EA0C019040D9
:10047000E41AA2BF01EB0451294330BD6FEA040422
:100480001F3C1CDA0C340EDC04F11404C4F120020D
:1004900020FA04F001FA02F340EA030021FA04F31F
:1004A00045EA030130BDC4F10C04C4F1200220FA76
:1004B00002F001FA04F340EA0300294630BD21FAB4
:1004C00004F0294630BD94F0000F83F4801306BF7A
:1004D00081F480110134013D4EE77FEA645C18BF6E
:1004E0007FEA655C29D094EA050F08BF90EA020F05
:1004F00005D054EA000C04BF1946104630BD91EAFD
:10050000030F1EBF0021002030BD5FEA545C05D1FF
:100510004000494128BF41F0004130BD14F580043E
:100520003CBF01F5801130BD01F0004545F0FE41B2
:1005300041F470014FF0000030BD7FEA645C1ABFE7
:10054000194610467FEA655C1CBF0B46024650EA1E
:10055000013406BF52EA033591EA030F41F400214A
:1005600030BD00BF90F0000F04BF0021704730B5D0
:100570004FF4806404F132044FF000054FF00001A5
:1005800050E700BF90F0000F04BF0021704730B566
:100590004FF4806404F1320410F0004548BF40423B
:1005A0004FF000013EE700BF42004FEAE2014FEA90
:1005B00031014FEA02701FBF12F07F4393F07F4F6B
:1005C00081F06051704732F07F4208BF704793F06E
:1005D0007F4F04BF41F40021704730B54FF4607481
:1005E00001F0004521F000411CE700BF50EA010284
:1005F00008BF704730B54FF000050AE050EA01022D
:1006000008BF704730B511F0004502D5404261EB9C
:1006100041014FF4806404F132045FEA915C3FF4DD
:10062000D8AE4FF003025FEADC0C18BF03325FEA7A
:10063000DC0C18BF033202EBDC02C2F1200300FA2B
:1006400003FC20FA02F001FA03FE40EA0E0021FA50
:1006500002F11444BDE600BF7BB972B90029BEBFE8
:1006600000204FF0004106E008BF00281CBF6FF0DB
:1006700000414FF0FF3000F0D3B9ADF1080C6DE947
:1006800004CE002909DB002B1ADB00F04DF8DDF861
:1006900004E0DDE9022304B07047404261EB410110
:1006A000002B1BDB00F040F8DDF804E0DDE902235D
:1006B00004B0404261EB4101524263EB4303704797
:1006C000524263EB430300F02FF8DDF804E0DDE96C
:1006D000022304B0404261EB41017047524263EB98
:1006E000430300F021F8DDF804E0DDE9022304B063
:1006F000524263EB4303704753B94AB9002908BF1C
:1007000000281CBF4FF0FF314FF0FF3000F088B9D8
:10071000ADF1080C6DE904CE00F006F8DDF804E058
:10072000DDE9022304B070472DE9F047089D8E46AD
:1007300004468846002B4AD18A42174662D9B2FA4B
:1007400082F64EB1C6F1200301FA06F820FA03F34F
:10075000B74043EA0808B4404FEA174E1FFA87FC37
:10076000B8FBFEF1230C0EFB118843EA084301FBA2
:100770000CF29A4209D9FB1801F1FF3080F0EA80AF
:100780009A4240F2E78002393B449A1AA3B2B2FB84
:10079000FEF00EFB102243EA024300FB0CFC9C45DA
:1007A00009D9FB1800F1FF3280F0D6809C4540F259
:1007B000D3803B44023840EA0140A3EB0C03002104
:1007C0001DB1F3400022C5E90032BDE8F0878B423D
:1007D00005D90DB1C5E9000100210846F5E7B3FAD6
:1007E00083F1002946D1734502D3824200F205818C
:1007F000841A6EEB030201209046002DE5D0C5E976
:100800000048E2E7002A00F09080B2FA82F6002E5B
:1008100040F0A4808A1A030C4FEA174E80B2BCB293
:100820000121B2FBFEFC0EFB1C2243EA024304FB47
:100830000CF29A4207D9FB180CF1FF3802D29A4207
:1008400000F2E080C4469B1AB3FBFEF20EFB1233AB
:1008500040EA034302FB04F49C4207D9FB1802F16F
:10086000FF3002D29C4200F2CA8002461B1B42EAC1
:100870000C40A5E7C1F120068B4022FA06F71F4382
:100880000EFA01F420FA06F32EFA06FE4FEA174993
:10089000234300FA01F81FFA87FCBEFBF9F01C0C99
:1008A00009FB10EE44EA0E4400FB0CFEA64502FADA
:1008B00001F209D93C1900F1FF3A80F09C80A6456D
:1008C00040F2998002383C44A4EB0E041FFA83FEE8
:1008D000B4FBF9F309FB13444EEA044403FB0CFC9C
:1008E000A44508D93C1903F1FF3E80F08280A4455D
:1008F0007FD9023B3C4443EA0040A4EB0C04A0FB3C
:1009000002EC64457346E14662D35FD05DB1B8EB5B
:10091000030264EB090404FA06F622FA01F31E430B
:10092000CC40C5E9006400214FE7B1FBF2FC010CAB
:1009300041EA0E4180B240EA01423B4638463C461D
:10094000B846BE462026B1FBF7F1A2EB080241EA09
:100950000C4166E7014618E710462CE7C6F1200275
:100960002EFA02F3B740B14020FA02F24FEA174ED6
:100970000A43B3FBFEF8BCB20EFB1833110C41EA7C
:10098000034108FB04F9B04089454FEA104380B2A7
:100990003ED9791808F1FF3C01D289451FD8A1EB57
:1009A0000901B1FBFEF909FB04F80EFB191192B223
:1009B00042EA0142424529D2BA1809F1FF31C4D2B4
:1009C0004245C2D2A9F102013A44BEE7F0459DD2A8
:1009D000BEEB02036CEB070C0138E14696E7A7EB90
:1009E00009094944A8F1020CB1FBFEF909FB04F81E
:1009F000DBE773467FE7504666E70846FDE63B4483
:100A0000023A33E7ACF1020C3B441CE749469CE751
:100A1000A1EB0901C446B1FBFEF909FB04F8C4E7E8
:100A2000704700BFDFF834D0002103E00C4B5B5867
:100A3000435004310B480C4B42189A42F6D30B4AF0
:100A400002E0002342F8043B094B9A42F9D304F038
:100A500029FE31F079F800F0F7FA7047000008201D
:100A600080790308000000202801002040030020B6
:100A700048CE0120FEE7000008B50349034809F00D
:100A800081FC034B187008BD5C030020B8280308E4
:100A90006003002008B513460A460146034808F0E3
:100AA0006BFA003818BF012008BD00BF8855002030
:100AB00008B513460A460146034808F0E9FA00382B
:100AC00018BF012008BD00BF8855002008B50348A5
:100AD00008F071FD043818BF012008BD88550020BA
:100AE0000146014808F055BD88550020704708B5FB
:100AF000FFF7FCFF08BD08B500F00AF908BD08B50E
:100B000000F018F908BD012307B58DF8073000F093
:100B100017F808B98DF807009DF8070003B05DF8D5
:100B200004FB000008B5FFF7EEFF012804D10348DD
:100B3000BDE8084008F012BD022008BD885500201D
:100B40004FF40041034808B506F088F9B0FA80F088
:100B5000400908BD00200240124B30B51C7889B016
:100B6000154614F0010419D1032919D8DFE801F062
:100B70000D0208106846FFF7B3FF069B2B6004E0E8
:100B80006846FFF7ADFF079B2B80204609B030BDBC
:100B90006846FFF7A5FF079B5B0AEFE70324F4E72E
:100BA0000424F2E70400002038B509F039FC47F2CC
:100BB0002F55044609F034FC031BAB4202D94FF019
:100BC000FF3003E0FFF782FF0028F3D138BD0000BB
:100BD00073B50C4615461E46FFF7E6FF002802DAFD
:100BE000012002B070BD324629462046FFF760FF63
:100BF00002460028F4D10E4847F230530DF10601A9
:100C0000006809F07BFE0028EAD1BDF80630022B0F
:100C1000E6D109F005FC47F22F55044609F000FC27
:100C2000031BAB42DCD8FFF751FF0028F6D1D8E711
:100C30006403002073B50C4615461E46FFF7B4FF4B
:100C4000002802DA012002B070BD32462946204653
:100C5000FFF720FF02460028F4D10E4847F2305338
:100C60000DF10601006809F049FE0028EAD1BDF83F
:100C70000630012BE6D109F0D3FB47F22F5504468D
:100C800009F0CEFB031BAB42DCD8FFF71FFF0028A7
:100C9000F6D1D8E76403002010B50123054C23707A
:100CA000FFF714FF18B9237803F0FE0323702078B0
:100CB00010BD00BF0400002038B5134C012525707D
:100CC00009F07EFB02281DD1FFF72CFF50B92570DB
:100CD000FFF7FCFE18B9237803F0FE032370237896
:100CE000DBB223702378012B0CD0084D2A684AB957
:100CF00002210A2009F07AFD286018B9237843F010
:100D000001032370207838BD040000206403002014
:100D1000022307B5ADF80630002305480DF10601A2
:100D20001A46006809F0A8FD03B05DF804FB00BF97
:100D300064030020012307B5ADF806300023054801
:100D40000DF106011A46006809F096FD03B05DF842
:100D500004FB00BF64030020704700002DE9FF4141
:100D60000BF040FB444D454B454F18600BF072F8BB
:100D7000002304464FF0FF3138682B600AF0F1FC85
:100D80000128F3D14FF480523E493F4808F038F82B
:100D900008B100F087FF4FF480523C493C4807F00F
:100DA000C3FF30B100F07EFF04B0BDE8F0813549EB
:100DB00019E004F56A44DFF8EC80364E60344146B1
:100DC00001200BF007FC2B68002BF8D0012220211A
:100DD000314806F049F82B68012BE8D02B682F49E1
:100DE000022B18BF00212E4A0023A1F1040E104649
:100DF00031F823C00233043222F804CCB3F5806FFB
:100E00003EF823C022F802CCF2D1CDE900034FF026
:100E1000FF320023694630680AF035FA00232B6060
:100E20000BF018F8A042CAD30A24DFF86C80202106
:100E3000404606F01EF84FF4A57009F055FB20213E
:100E4000404606F016F8013CF1D10F4807F022FFAA
:100E50000F4807F01FFF22464FF400510E4806F0DE
:100E600003F823464FF0FF3202A93068CDE902446F
:100E70000AF009FA7AE700BF6803002074540020E2
:100E80007C540020743400206C0300207414002073
:100E9000F00300208054002000240240744400200D
:100EA0007404002036894100014900200BF014B978
:100EB000D931000808B5642009F016FBFBE70000F3
:100EC00000B54FF4407395B041F2883217480C9347
:100ED000062306A906930023CDE90D330F930B9348
:100EE0001393CDE9113306F057FEE0B90223012236
:100EF0004FF4800104900D48CDE900331023CDE973
:100F0000023205236A46CDE905134FF0407306A966
:100F10000F9341F2883306F03FFF003818BF0120DD
:100F200015B05DF804FB0120FAE700BFD45700209C
:100F300030B595B010220021022409A8072530F011
:100F400049FD1422002102A830F044FD1D4B192157
:100F500007A81A6C42F080521A641B6C03F080538D
:100F60000093009B184B1A6842F440421A60012219
:100F70001B68119403F440430193019B4FF48033A9
:100F8000CDE907234FF48003CDE90D434FF4D87327
:100F9000CDE90F130923CDE9123506F08FFF06F0D6
:100FA00095FC0F2300202946CDE902344FF4A053CD
:100FB000CDE904034FF4805302A8069307F070F9BB
:100FC00015B030BD003802400070004000B5A5B03B
:100FD00000217C2205A830F0FDFC4FF4002240F2F5
:100FE000AD136846CDE9002302230493CDE9023313
:100FF000132309934FF480130F9307F01DFA25B0C4
:101000005DF804FB38B50D4A00250D4C0D4B20460C
:101010002562C4E900230123C4E90455C4E902534D
:10102000C4E9065506F061F82946204606F08BFA19
:1010300029462046BDE8384006F0ABBA00600040C3
:10104000C8580020684740202DE98048BBB01022D6
:10105000002101242CA81C2630F0BCFC032504F040
:10106000E1FB4FF00050CB4B40F20117ADF8B04020
:10107000CDE92D03C84B2CA82F9304F0F1FB4FF0C2
:1010800010438DF8B14000242CA82D938DF8B86042
:101090008DF8BB40ADF8BE4004F0E2FB02232CA863
:1010A0008DF8BB508DF8B1301923ADF8BE708DF8B6
:1010B000B83004F0D5FB4FF040432CA88DF8B86051
:1010C00004262D938DF8B1508DF8BB40ADF8BE408D
:1010D00004F0C6FB17232CA88DF8B1608DF8B8304A
:1010E0008DF8BB50ADF8BE7004F0BAFB304604F08A
:1010F000A7FBBFF34F8FBFF36F8FA84AC2F85042D0
:10110000BFF34F8FBFF36F8F536943F400335361C5
:10111000BFF34F8FBFF36F8FC2F88440BFF34F8F81
:10112000D2F8803043F6E074C3F3C900C3F34E3302
:101130005B0103EA0406014646EA81750139C2F8FB
:101140006052F9D2203B13F1200FF2D1BFF34F8F41
:10115000536943F480335361BFF34F8FBFF36F8FF5
:101160008F4E04F0C5FAFFF7E3FE0024FFF72EFFD1
:10117000142200212CA830F02DFC336B002242F207
:10118000220143F01003874801254FF400473363E1
:101190004FF0030B336B4FF002084FF0040A4FF48B
:1011A000804903F010030393039B336B43F0080360
:1011B0003363336B03F008030493049B336B43F0F6
:1011C00002033363336B03F002030593059B336B18
:1011D00043F040033363336B03F040030693069BF5
:1011E000336B43F400733363336B03F4007307937F
:1011F000079B336B43F004033363336B03F0040347
:101200000893089B336B43F480733363336B03F4AD
:1012100080730993099B336B43F020033363336B73
:1012200003F020030A930A9B336B43F0800333637C
:10123000336B03F080030B930B9B05F015FE01222B
:101240004FF40041574805F00FFE0022C0215648D8
:1012500005F00AFE00224021544805F005FE42F246
:1012600020032CA94F48CDE92C35CDE92E4405F0BB
:1012700077FC4FF480532CA94A482E94CDE92C34A6
:1012800005F06EFC2CA94748CDE92C75CDE92E550B
:1012900005F066FC2CA946482E94CDE92C7405F087
:1012A0005FFCC0232CA940482E94CDF8BCB0CDE9FA
:1012B0002C3505F055FC40232CA93C48CDE92C35B4
:1012C000CDE92E4B05F04CFC2CA93648CDE92C85F8
:1012D000CDE92E4B05F044FC336B2246052143F447
:1012E000800338203363336B4FF4807603F480033C
:1012F0000293029B04F044FA382004F073FA224669
:101300000521392004F03CFA392004F06BFA22461A
:1013100005213C2004F034FA3C2004F063FA224614
:101320000521442004F02CFA442004F05BFA3946ED
:1013300022461C4805F098FD142004F0FDF93946BA
:101340002A46184805F090FD0A2004F0F5F92422F9
:10135000214615A80E9430F03DFB182221460FA817
:10136000144F30F037FB342221462CA830F032FBEA
:101370002C2221461EA830F02DFB0F4B64220CA915
:101380003846C7E900340523C7E902A5CDE90C2397
:1013900014E000BF120000030100010100ED00E0B5
:1013A00000380240002402400008024000140240BD
:1013B000002002401C590020006C014005F044F858
:1013C00015A938461D94CDE91554CDE91744CDE94A
:1013D0001944CDE91B4405F0A3FA1C2121230F2059
:1013E000CDE90F1319230FA9CDE911033846CDE933
:1013F000134405F058FA5146384605F043FA42F2D4
:101400001071384605F096FB4FF48071384604F0B1
:10141000B8FF4FF400734FF4806C4FF4805E4FF4CC
:1014200000324FF400213846CDF8E080CDE92C633E
:101430004FF40063CE4ECDE92EC34FF40053CDE9F7
:1014400030E34FF48033CDE932934FF480234FF0F3
:101450001009CDE934234FF08073CDE936132CA960
:1014600005F0DCF9C8231EA938462895CDE92039B6
:10147000CDE91E44CDE9224ACDE92484CDE92644B4
:1014800005F05AF92146384605F045F9214634223F
:101490001EA830F09FFAB74ACA204FF0CB0CC6F80E
:1014A0002080B48686F83640C6E900244FF4F172F5
:1014B000C6E9090240F2E3123046C6E90BC2C6E9AA
:1014C0000244C6E90445C6E9065806F005F9FF21BD
:1014D0004FF4806E4FF4F072C823304629921E9468
:1014E000ADF8A8408DF8AA40CDE923140521CDE937
:1014F0002128CDE925E122461EA9CDE91F34CDE9F9
:10150000274306F0B5F932683846936923F00103A2
:10151000936105F06BFA2946404603F081FE2823CB
:10152000152221463846009405F093FA2CA9384636
:1015300036944FF44077CDE92C44CDE92E44CDE9E3
:101540003044CDE93244CDE9344405F067F93268DE
:10155000894E4FF40061936930462B4393612022FA
:10156000864BB462CDF8B080C6E900344023C6E9AA
:1015700004234FF4C073C6E906344FF48053C6E920
:10158000081307232CA9CDE92D3ACDE92F38C6E958
:10159000024ACDE9318B08F075F94FF6FF721EA9AA
:1015A00030460F94CDE91E59CDE9205408F08AF950
:1015B000284604F0C1F84FF6FF721EA93046CDE967
:1015C0001E89CDE9205408F07DF908234FF6FF72FB
:1015D0001EA93046CDE92034CDE91EB908F072F9D4
:1015E0004FF40C734FF6FF721EA90F9330460F9BFA
:1015F00020952193CDE91EA908F064F940F22A71E3
:1016000030465F4E08F07DF943F2D2024FF020439E
:1016100030461A6003F580533462C6E90035192359
:10162000C6E90299C6E90437C6E9064406F062FA3B
:101630003297662741F288322CA930462C97359490
:1016400031943994CDE93344CDE9374406F0A4FA16
:10165000002840F0BA80992441F288322CA9304603
:101660002C9406F099FA002840F0AF804FF4807374
:1016700041F288322CA9304632932C9706F08CFA2E
:10168000002840F0A28041F288322CA930462C94E8
:1016900006F082FA0446002840F097804FF47A70F2
:1016A00004F04AF84FF480031EAA2CA923934FF4A8
:1016B00080733046CDF88090329305232C934FF001
:1016C0008073359341F28833CDE91E45CDE921542D
:1016D00006F062FB002878D14FF48073319041F21C
:1016E00088322CA9329305232C934FF08073CDE9D7
:1016F0003300CDE93650CDE938003046359306F059
:101700004BFA002861D141F2883215A9304606F023
:10171000E3FA002859D14FF480733590319041F2AB
:1017200088323293062339902CA92C93CDE93300CB
:10173000CDE93700304606F02FFA002845D10023C6
:101740002C4621954FF0807522934FF480031EAAFA
:101750002CA9239305233046CDF880902C9341F299
:1017600088333595CDE91E8806F016FB68BB09E085
:10177000205800200068014094540020400100A03F
:10178000D45700204FF48073319041F288322CA955
:1017900032939DF854302C9443F040033595CDE9B5
:1017A0003300CDE93640CDE9380030468DF854306D
:1017B00006F0F2F948B941F2883215A9304606F030
:1017C0002FFA10B9282003F0B7FF4FF4807341F2CD
:1017D00088322CA9B848329335232C930023CDE9C5
:1017E0003333359331933993CDE9373306F0D4F958
:1017F000E0B941234FF0400C4FF0010E22901EAA99
:101800002CA9AD48CDE91EC31023CDE9203E4FF4ED
:10181000800323934FF44073329305232C934FF0AE
:101820004073359341F2883306F0B6FAB7234FF48C
:1018300040741E9300232494279323932B93CDE984
:101840002533CDE92933FFF73BFB18BB41F2883242
:101850001EA9994806F0A0F9E0B905233190399006
:1018600015AA2C934FF0407315902CA935930123A2
:1018700032941693CDE91830102317934FF4800358
:10188000CDE93300CDE937001A9341F288338A4815
:1018900006F082FA05234FF440764FF0407401259C
:1018A0002C93002341F288322CA983483296359438
:1018B0003193CDE93333CDE93653CDE9383306F0F2
:1018C0006BF900284FD141F288321EA97A4806F000
:1018D00003FA002847D11523319041F288322CA910
:1018E00032962C933594CDE93300CDE93650CDE9CD
:1018F0003800714806F050F9A8BB41F288320DF16A
:1019000079016D4806F0E8F968BBFFF7D9FA50BBDA
:101910000223C02232962C9535943190CDE93300C4
:10192000CDE93630CDE9380092FAA2F203219DF8D4
:101930007930B2FA82F2604803F03F0301FA02F212
:101940002CA9134341F288328DF8793006F024F93E
:1019500048B941F288321EA9574806F061F910B91A
:10196000282003F0E9FE05234FF440764FF0407441
:1019700001252C93002341F288322CA94E4832963F
:1019800035943193CDE93333CDE93653CDE938334E
:1019900006F002F900284BD141F288321EA94648D0
:1019A00006F09AF9002843D11523319041F288328C
:1019B0002CA932962C933594CDE93300CDE93650DD
:1019C000CDE938003C4806F0E7F888BB41F28832A0
:1019D0000DF17901384806F07FF948BBFFF770FA3E
:1019E00030BB0223072232962C9535943190CDE9F5
:1019F0003300CDE93630CDE9380092FAA2F2062163
:101A00009DF87930B2FA82F22B4823F0070301FAED
:101A100002F22CA9134341F288328DF8793006F096
:101A2000BBF828B941F288321EA9234806F0F8F81D
:101A30004FF440730024214D1EAA3293EC232CA9AD
:101A40001D482C934FF440633994402733934FF44F
:101A500040531B4E4FF0800B2F934FF040734FF0CD
:101A6000200A4FF480394FF00F08CDE934430A23A0
:101A7000CDE937443193CDE91E4406F0DEF9114B30
:101A80002846C5E90034C5E90244C5E90E44C5E964
:101A90001044C5E9124404F043FB01212846012506
:101AA00004F0FEFBFFF7AEFAFFF756F90648074BC6
:101AB000848003600CE000BFD45700203859002018
:101AC000C859002000B002401C5A002000300240DB
:101AD0000562C0E9054403F0EFFE524B524A9C6197
:101AE000C3E90024C3E90244C3E90444FEF7C4FF88
:101AF0004E4B30463581F461C6E90034C6E90875BD
:101B000003F0D8FF4A484B4B047103600223846002
:101B1000C0E90334C0E90544C0E90744C0E9094508
:101B2000C0E90B4403F050FF2A462946304604F032
:101B300033F84148414B0426046303604FF40053DB
:101B40004460C46384608561C460C4620764C0E9A2
:101B500004344AF64443C0E90DB4C361C0E9094402
:101B6000C0E911A9C0E91344C0E91544C0E91768E8
:101B700006F0B4FF3248334B046303600323C463AD
:101B8000436010238560C36204618561C460C0F84E
:101B90006080C0E90DB4C0E90944C0E9107AC0E929
:101BA0001294C0E91444C0E9164606F097FF00F00D
:101BB000AAFD00F0A7FD08F0E9FB234A21462846CC
:101BC00008F04AFD214B224A21461860284608F0B9
:101BD00043FD204B204A08211860304608F006FEDD
:101BE0001E4B1F4A214618601E4808F02DFC1E4B54
:101BF0001E4A214618601E4808F026FC1D4B1E4A4E
:101C0000214618601D4808F01FFC1D4B1D4A214647
:101C100018601D4808F018FC1C4B186008F0E0FB29
:101C2000FEE700BF88550020001C01400075014000
:101C30009059002000740140505700200458014082
:101C4000CC560020245801403C5903087C54002005
:101C50002C590308785400204C5903088054002064
:101C6000D0590308B50E000890540020AC59030861
:101C7000152700088C540020885903086547000880
:101C800088540020645903085D0D00088454002026
:101C90000268034B9A4201D103F03CBD704700BF7C
:101CA00000100040704700000D4B82B00F216FF014
:101CB00001001A6C42F080521A641A6C02F08052D1
:101CC0000092009A5A6C42F480425A6400225B6C83
:101CD00003F480430193019B02B003F051BD00BFA8
:101CE00000380240026882B0084B9A420BD1D3F808
:101CF000302803F5006342F480521A631B6B03F42F
:101D000080530193019B02B0704700BF0030024036
:101D100030B5ADB014220021244C03A82FF05AFE98
:101D20009022002108A82FF055FE2368002B3AD1FD
:101D30004FF0006308A8089306F07EFB08B1FFF798
:101D4000B1FF1B4A13680133012B136009D1194BF2
:101D50005A6C42F000525A645B6C03F000530193DA
:101D6000019B144B002503A913481A6B42F008028B
:101D70001A6318221B6B03F008030293029B0223D1
:101D8000CDE903230623CDE90555079304F0E8FECA
:101D90002A460521632003F0F3FC632003F022FDB3
:101DA0002368013323602DB030BD00BF485A0020A6
:101DB0004C5A002000380240000C024010B5ACB074
:101DC00014220021204C03A82FF004FE90220021B1
:101DD00008A82FF0FFFD2368002B32D14FF00063DD
:101DE00008A8089306F028FB08B1FFF75BFF174A25
:101DF00013680133012B136009D1154B5A6C42F063
:101E000000525A645B6C03F000530193019B104B2A
:101E100003A910481A6B42F008021A6318221B6BC0
:101E200003F008030293029B0223CDE9032300235E
:101E3000CDE905330623079304F092FE23680133AE
:101E400023602CB010BD00BF485A00204C5A00201F
:101E500000380240000C02400E4B07B502689A425F
:101E600015D1A3F5F04305215A201A6B42F4000264
:101E70001A6300221B6B03F400030193019B03F020
:101E80007FFC5A2003B05DF804EB03F0ABBC03B059
:101E90005DF804FB00B0024010B588B0044614227F
:101EA000002103A82FF096FD2268154B9A4225D1F8
:101EB00003F54C4303A913485A6C42F000625A647C
:101EC0005A6C02F000620192019A1A6B42F400729D
:101ED0001A6304221B6B03F400730293029B022318
:101EE000CDE903230D23079304F03AFE622000227C
:101EF000052103F045FC622003F074FC08B010BD1E
:101F0000006C014000240240F0B5ADB0044614223C
:101F1000002103A82FF05EFD9022002108A82FF0D9
:101F200059FD2268254B9A4246D14FF4003308A848
:101F3000089306F081FA08B1FFF7B4FE204C12278F
:101F400001260325236B03A91E4843F002032363E4
:101F5000236B03F002030093009B236B43F0080301
:101F60002363236B03F008030193019B8023CDE9D6
:101F700003370B23CDE90565079304F0F1FD4FF41A
:101F8000805303A91048CDE903370423CDE9056543
:101F9000079304F0E5FD236C5F200022052143F048
:101FA00080732364236C03F080730293029B03F01D
:101FB000E7FB5F2003F016FC2DB0F0BD0060004091
:101FC0000038024000040240000C0240026808B5DC
:101FD0000B4B9A4212D10B4A80210B48136C23F011
:101FE0008073136404F0A0FE08484FF4805104F09D
:101FF0009BFE5F20BDE8084003F002BC08BD00BFA7
:10200000006000400038024000040240000C024022
:1020100010B5A6B004469022002102A82FF0DAFCE9
:102020002268144B9A4222D10823072002934FF4CE
:10203000C07307930223CDE90830012302A80C9353
:1020400006F0FAF908B1FFF72DFE0B4B58200321DB
:102050005A6C42F080625A6400225B6C03F0806329
:102060000193019B03F08CFB582003F0BBFB26B0CF
:1020700010BD00BF0068014000380240142200215A
:102080002DE9F0418AB004460DEB02002FF0A2FCCE
:1020900022683A4B9A426ED1394B02250324092615
:1020A0009A694FF0040805A9364842F00202002759
:1020B0009A619A6922F002029A619A6B42F00202D6
:1020C0009A639A6B02F002020092009A1A6B42F035
:1020D00010021A631A6B02F010020192019A1A6B35
:1020E00042F002021A631A6B02F002020292029A92
:1020F0001A6B42F004021A631A6B02F00402039294
:10210000039A1A6B42F008021A631B6B03F0080370
:102110000493049BCDE90585CDE9084604F020FD34
:10212000402305A91848CDE905350123CDE9073439
:102130000A23099304F014FD4FF4C06305A9134862
:102140000996CDE90535CDE9077404F009FD05A927
:102150000D480996CDE90585CDE9077404F000FD29
:102160004FF4005305A90A480996CDE90535CDE994
:10217000077404F0F5FC0AB0BDE8F081001000A07F
:1021800000380240001002400004024000080240F3
:10219000000C02402DE9F041ACB0054614220021AC
:1021A00003A82FF017FC9022002108A82FF012FCA2
:1021B0002A684E4B9A4240F095804FF0846308A8FD
:1021C000089306F039F908B1FFF76CFD484B00267B
:1021D0004FF0020803275A6C0B2403A9454842F02C
:1021E00080025A645A6C02F080020092009A1A6BC4
:1021F00042F008021A631A6B02F008020192019A77
:102200001A6B42F040021A631B6B079403F0400301
:102210000293029BC023CDE90567CDE9033804F0A2
:102220009FFC4FF4007303A933480794334CCDE966
:102230000338CDE9056704F093FC4FF0B053DFF8A5
:10224000C8E04FF480684FF480424FF4000120460C
:102250002662C4E900E34FF48053C4E904832023D9
:10226000C4E906230423C4E909374FF40013C4E981
:102270000266C4E90B1303F087FD08B1FFF712FDF6
:102280001F4A4FF0B0532C644021A5634FF4806087
:102290001C4C04274FF480464FF4000CC4E9002383
:1022A00000234FF48052C4E9021323620323C4E9DC
:1022B0000402C4E9097320224FF400132046C4E944
:1022C0000662C4E90BC303F05FFD08B1FFF7EAFC47
:1022D000672000220521EC63A56303F051FA672013
:1022E00003F080FA2CB0BDE8F08100BF001C014073
:1022F00000380240000C024000180240285500201F
:1023000088640240C854002010640240F0B50023E5
:1023100087B003932A4B1E68002E4FD1012202275B
:1023200003250C241A6001A9264B27489A6B42F01A
:1023300001029A639B6B03F001030093009B4FF62D
:102340008373CDE90454CDE9013704F009FC48F268
:10235000331301A91D480594CDE90137CDE9036583
:1023600004F0FEFB4CF2037301A919480594CDE972
:102370000137CDE9036504F0F3FB40F2FF6301A9E7
:1023800014480594CDE90137CDE9036504F0E8FB75
:102390004FF63F0301A910480594CDE90137CDE977
:1023A000036504F0DDFB4FF62C7301A90B4805947F
:1023B000CDE90137CDE9036504F0D2FB07B0F0BDEC
:1023C000445A002000380240001002400018024029
:1023D000000C02400020024000140240001C024099
:1023E00002684A4B9A42F0B5054689B04AD148483E
:1023F00003684BB9474A516C41F480015164526CF7
:1024000002F480020192019A013300260624022779
:102410000360702303A940480794CDE90337CDE951
:10242000056604F09DFB80233C4803A907943C4CBF
:10243000CDE90337CDE9056604F092FB394B4FF443
:10244000806C4FF4804E4FF4003220462663C4E97E
:1024500000364023C4E902364FF40063C4E904C3E4
:102460004FF48073C4E906E30423C4E9082303237B
:10247000C4E90A3603F088FC08B1FFF713FC2C67A7
:10248000A563EC662A68284B9A423CD12048036831
:102490004BB9204A516C41F480015164526C02F4F2
:1024A00080020292029A01330822002603A90360E7
:1024B000022319484FF400571C4CCDE9032306238F
:1024C000CDE90566079304F04BFB4FF00073184904
:1024D0004FF48060C4E900134FF40063C4E90403BF
:1024E0004FF480732046C4E906734FF40033C4E907
:1024F0000266C4E9083603F047FC08B1FFF7D2FBD7
:102500002C67A563EC6609B0F0BD00BF045801401C
:10251000405A0020003802400010024000180240DB
:102520006C56002028640240245801400C560020BC
:1025300070640240214B1A6C42F0100270B588B0F2
:102540001A641B6C054601A903A803F0100302934B
:10255000029B05F053FF069B4BBB05F03FFF184E57
:10256000184B336040F2E733F360174BB0FBF3F3E3
:10257000013B3046736000233361B360B36107F001
:1025800013FB044680B9304607F0D4F9044658B925
:10259000362003F027F90F2D0DD822462946362084
:1025A00003F0EEF8094B1D60204608B070BD05F041
:1025B00015FF4000D3E70124F6E700BF00380240D2
:1025C000505A00200010004040420F004000002000
:1025D0007047FEE7FEE7FEE7FEE77047014807F0B9
:1025E000EBB900BF505A0020014803F0D9BC00BF2E
:1025F00028550020014803F0D3BC00BF6C560020D2
:10260000014803F0CDBC00BF0C560020014803F088
:10261000C7BC00BFC8540020014805F0CCB800BFBB
:1026200020580020014803F0B1BD00BF38590020F8
:10263000014804F081BF00BFC8580020014803F0E2
:10264000F8BF00BF1C590020014803F0C7BA00BF03
:10265000C8590020014807F013B800BF8855002072
:102660000120704708B52FF069FA162303604FF078
:10267000FF3008BD08B52FF061FA16230360FEE7AE
:1026800070B50D4614460E46731B9C4201DC204675
:1026900070BDAFF3008006F8010BF5E770B50D468D
:1026A00014460E46731B9C4201DC204670BD16F892
:1026B000010BAFF30080F5E74FF0FF3070474FF4A8
:1026C000005300204B607047012070470020704786
:1026D0000A4A116808B5034609B90949116010682A
:1026E000694603448B4206D92FF028FA0C23036075
:1026F0004FF0FF3008BD1360FCE700BF9C5A00207C
:1027000048CE0120704708B501F0A8FCBDE808409C
:1027100001F02CBC01F0A4BC174B1A6B42F0010273
:1027200010B586B01A631B6B03F001030093009B86
:1027300059B9012303911148CDE90131022301A9BF
:10274000049304F00DFA06B010BD0129FBD100245A
:102750000223019101A90948CDE903434FF48813ED
:10276000029304F0FDF922460F21062003F008F839
:10277000062003F037F8E6E7003802400000024088
:10278000002108B50846FFF7C7FF08BD0121024830
:1027900008B504F063FB08BD0000024008B5002046
:1027A000FFF7F4FF08BD40687047416070470000C4
:1027B0004FF0E022D2F8FC3D43F08073C2F8FC3DBC
:1027C000054B064AD3F8B01F0A43C3F8B02F1A6866
:1027D00042F001021A607047001000E055CEACC50F
:1027E000521A02EB5302B2FBF3F07047014B5868E8
:1027F000704700BF001000E0704710B504460C2180
:102800002EF0B1FA204610BD036810B51B690446CE
:1028100031B19847A26863689B1A0344636010BD96
:102820009847A060FBE770477047000008B5FFF7C6
:10283000A7FF024B00221A6008BD00BFA05A00206B
:1028400070B50D46FFF7AAFF0B4AC4B293785678CD
:10285000117813F00100D3709670517014700AD083
:1028600016F0010007D011F0010004D0E30756BFB5
:1028700001200020287070BDA05A002010B5044629
:1028800004212EF070FA204610BD704710B50446A2
:1028900004212EF068FA204610BD70477FB5012351
:1028A0008DF817204FF47A72CDE901320DF117023D
:1028B00000920A460146064804F086FC20B104480E
:1028C00004F068FCFEF79EFB07B05DF804FB00BF58
:1028D000C85800207FB500230A464FF47A718DF85E
:1028E00017300123CDE901310DF1170100910146A7
:1028F000064804F043FD20B1044804F04BFCFEF709
:1029000081FB9DF8170007B05DF804FBC858002054
:102910001FB54FF47A7400920A4601460748CDE984
:102920000134012304F02AFD044620B1034804F0D9
:1029300031FCFEF767FB204604B010BDC8580020EC
:10294000F8B5134D0646134C0F462B682078984770
:102950006B6854209847C0B2112809D06B6870206A
:1029600098477023C0B22370112803D00320F8BD0C
:1029700054232370084BBE422CBF0C26012620781E
:102980001E70AB6898472078EB6898470020EEE708
:1029900010000020B55A0020B65A002008B54FF4A8
:1029A000F0714FF44870FFF7CBFF074B10B90122CD
:1029B0001A7008BD1B78002BFBD1044B6A21044A16
:1029C00004482EF049FD00BFB45A00203529030801
:1029D00048290308722903082DE9F04F344A0546B7
:1029E000DFF8DCA085B01078DAF81030984728704E
:1029F00050B1304FA946304E03AC0DF1080B4FF0EB
:102A000000082B78984503D3002005B0BDE8F08F6F
:102A1000274822465946DAF81430007808F10108B0
:102A20009847264BBC46B6461B7804370436190730
:102A300041BFBBF8002021882280ABF800109A0724
:102A400041BFBBF80020C2F547720332ABF800204B
:102A50005B0757F8042C48BF23883BF8020B42BFA2
:102A6000C3F5EF730133238093B2904234F8021B15
:102A70008CBFC31A1B1A9BB2019356F8043C9AB23E
:102A80009942019B8CBF8A1A521A92B21344052BA9
:102A9000C8BF47F8040CDCF80030C8BF46F8041C77
:102AA00029F8023FDEF80030A9F80430A9E700BF9A
:102AB000B55A0020AC5A0020A45A0020B65A002073
:102AC000100000207FB50B4B0E4615461C781CB934
:102AD0000024204604B070BD01A8FFF77DFF9DF8DB
:102AE0000430002BF4D0BDF806303360BDF80A3056
:102AF0002B60EEE7B45A0020032823D8DFE800F06B
:102B0000020B121A104B40211A68B2FA82F25209D3
:102B10000E4804F0A9B90C4B80215A68B2FA82F22F
:102B20005209F5E7084B022109489A68B2FA82F285
:102B30005209EEE7044B40210648DA68B2FA82F205
:102B40005209E6E7704700BFB85A0020000802406B
:102B50000024024000140240032823D8DFE800F0DC
:102B6000020B121A104B40211A68003A18BF0122BA
:102B70000E4804F079B90C4B80215A68003A18BF0E
:102B80000122F5E7084B022109489A68003A18BF6C
:102B90000122EEE7044B40210648DA68003A18BFEC
:102BA0000122E6E7704700BFB85A00200008024043
:102BB000002402400014024003280FD8DFE800F090
:102BC0000206080B4021064804F053B98021FAE7B9
:102BD00002210448F8E740210348F5E7704700BFA9
:102BE00000080240002402400014024008B50328F7
:102BF00013D8DFE800F0020A0C0F4021084804F067
:102C00002DF9431E5842584108BD8021F6E70221A4
:102C10000448F4E740210448F1E70020F1E700BF51
:102C200000080240002402400014024070B5084D24
:102C300000240126E0B2FFF7D9FF18B12B68012B61
:102C400018BF2E6001340435052CF3D170BD00BFD0
:102C5000B85A0020012380F8781080F87930704746
:102C60000020704741640039024B18BF01211970E0
:102C7000704700BF07C1012000207047836B0BB174
:102C80000846184770474FF6FF7070474068036862
:102C90009B691847014B1868704700BFDC5A002039
:102CA00070470000F0B40023104CC4F88430BFF328
:102CB0004F8FD4F8803043F6E076C3F3C905C3F3F1
:102CC0004E335B0103EA060C2A464CEA8277013A4E
:102CD000C4F87472F9D2203B13F1200FF2D1BFF384
:102CE0004F8FBFF36F8FF0BC01F0D0BA00ED00E062
:102CF00008B501F04DFA024B0422DA6008BD00BFAE
:102D000000E100E010B5044601F0D0FB94F84B3030
:102D100013B1024B01221A7010BD00BF0500002044
:102D2000014B196001F03DBADC5A002010B5044691
:102D300017F016FF23682046D3F8AC30BDE81040EA
:102D4000184717F079B910B504467C212EF00BF81E
:102D5000204610BD024B00221A7017F0A9B900BF1F
:102D60000500002038B50446074D01F067FA00233E
:102D7000284684F84A30FFF71BFD0123256184F8BB
:102D80007030024B636138BDD05A0020CC5A00200D
:102D90000368044607B5D3F8803098472368204677
:102DA0009B6F984700F084FA236820461B6F984772
:102DB0000021292315220548009103F04AFE00F066
:102DC00077FA236820461B6F9847F8E71C590020C4
:102DD00008B501F0D5F9002207215A2002F0D0FCF5
:102DE000002207216220BDE8084002F0C9BC0000B3
:102DF00090F834100D4B10B590F878401A788C424A
:102E000009D03AB90A490B4A08881488108001226F
:102E10000C801A7010BD002AFCD0064A04491488A0
:102E200008880C8010800022F3E700BF00C1012059
:102E3000FEC00120FCC0012008B5094B1B888B4255
:102E400003D8084B1B88934205D9074B9E21074A9C
:102E500007482EF001FB074B1980074B1A8008BD6D
:102E6000FCC00120FEC00120BD290308202A030860
:102E7000632A030802C1012004C1012008B501F042
:102E800047FB044B0422C3F88C20BFF34F8FBFF3E2
:102E90006F8F08BD00E100E0034690F87A0018B19A
:102EA000586803681B6818477047000070B50D46E6
:102EB00019460B4B1D6035B90A4B40F2D2210A4A24
:102EC0000A482EF0C9FAC0E90F52003A084B18BF61
:102ED00001221A700368BDE87040D3F88C3018479F
:102EE000DC5A0020A82A0308E02A0308632A030802
:102EF00006C1012070B5C0E90112C3604FF48072B1
:102F00000023BDF81050BDF81460038580F82A3006
:102F1000B542C362038680F85830436680F870304B
:102F2000C0E91223144AC0E91A23144AC0E9043341
:102F3000C0E90633C0E90833C0E90E33C0E91033F5
:102F4000C0E91433C0E91733436782670C4A106045
:102F50000C4A15800C4A158028BF00250B4A38BF43
:102F6000012516800A4A80F834501680094A1370E9
:102F7000094B036070BD00BF0100000100000101AA
:102F800008C10120FCC0012002C10120FEC00120B7
:102F900004C1012000C10120585A030802F0CCBB33
:102FA0000128034607B50AD84B7815220848009334
:102FB0000B78002103F04DFD03B05DF804FB019197
:102FC0000A5C002102480092392203F053FDF3E726
:102FD0001C5900200C4B012213B51A70DF220B4C38
:102FE00000215A7039220193442320460093022382
:102FF00003F040FD0021352315222046009103F007
:1030000028FD02B010BD00BFC85A00201C59002086
:1030100010B50446FFF7DEFF0F4B022220461B6867
:10302000C3F810240122C3F81024D3F8082442F076
:103030000102C3F80824D3F8082442F00202C3F8BE
:103040000824064B1A68536B43F00303BDE8104095
:10305000536301F0A5B800BF1C5900202058002080
:10306000F0B589B0294B064604AA03F110071546AE
:103070001868083353F8041C1446BB4203C42246A4
:10308000F6D1234C05EB86052A2339220195002130
:103090000093204604234FF4C87503F0EBFC23682B
:1030A00000201C490290D3F80424096822F0080289
:1030B000C3F80424D3F8042402F008020292029A0E
:1030C000154A126805FB0211144AC2F8AC101449E3
:1030D000116101F1011151611249C2F888101249C0
:1030E000C2F8B0100121516203902046D3F80424A5
:1030F00042F00802C3F80424D3F8043403F00803B0
:103100000393039B03F095FC09B0F0BD6828030806
:103110001C590020DC5A0020E05A002000680140C1
:10312000E201CA000300CA009301400638B5124C00
:10313000226892F86A30013382F86A3000F0ACF805
:103140000E4B1A780E4B1AB92268197882F84A1079
:103150001B787BB10B4D287860B9FFF7CDFC206858
:1031600008B117F0FDFC084B00201860FFF778FF4E
:1031700001232B7038BD00BF08C1012006C101200A
:1031800005000020E45A0020E05A002008B50E4B4C
:103190001868022806DC01301860C0B2BDE808409B
:1031A000FFF75EBF094B00221A70094B186828B15F
:1031B000084B1B7813B903681B6A98470020BDE8C9
:1031C0000840FFF7C9BC00BFE05A0020E45A0020C5
:1031D00008C1012006C10120014608B5034B18684B
:1031E00001B1012117F0D6FC012008BD08C1012062
:1031F000054B002205485A609A60054A1A60054B43
:103200000360FFF713BB00BFD05A0020CC5A002048
:10321000FC590308245A03080121002208B5084676
:1032200007F01AFA0A4B186028B90A4B28210A4AF3
:103230000A482EF011F900220421012007F0D6FAE5
:10324000074B186018B9074B2C21034AF0E708BD5B
:10325000EC5A00202E2B0308772B0308A62B03081B
:10326000E85A0020F12B0308024B4FF0FF31186899
:1032700007F04ABAEC5A0020014B186807F080BAF0
:10328000EC5A0020024B0021186807F03DBA00BF3D
:10329000EC5A0020FFF7F0BF0023034803491A4609
:1032A000006807F0E9BA00BFE85A002008000020D3
:1032B00013B50023074C01A91A46206807F01EFB2E
:1032C0004FF0FF33002201A9206807F017FB02B07E
:1032D00010BD00BFE85A002003685B6C184701204E
:1032E000704703689B6A1847FEE700000E4B82B0E8
:1032F0001A6B42F400021A631A6B02F40002019284
:10330000019A1A6942F400021A611A6922F4000251
:103310001A61064B064A9A61064ADA614FF08062EA
:10332000054B9A6002B070470038024038590020BF
:10333000C5350008E932000800E100E040F2EF3056
:1033400070470000054B4FF080620360044BC3F8E8
:103350008820BFF34F8FBFF36F8F7047305B030838
:1033600000E100E010B504464FF45A61FFF7EAFFB0
:1033700020462DF0F8FC204610BD000008B50A28B4
:1033800009D8DFE800F006100E0808080810101031
:103390001000022008BD054B9021054A05482EF07B
:1033A0005BF80020F6E70120F4E700BF332C0308A8
:1033B0004E2C0308992C030838B50C46887FFFF77C
:1033C000DDFF174BA58AE28A586342EA054221696C
:1033D0005A64628BD963521B1A642568082D0ED17A
:1033E0009A611A6158620F4A207F42EA0062DA61EC
:1033F000E2681A620C4A5961D9601A6038BD00222D
:10340000D8611A61E1680A0A4809C1F3C40102F4EB
:10341000784200F4FC6002430A439A63034AECE7F3
:1034200000B0024009000100012302000123030053
:1034300008B50B280BD8DFE800F00612100A0A0ABC
:103440000A0808080808022008BD0520FCE7054B0B
:103450006F21054A05482DF0FFFF0020F4E7012009
:10346000F2E700BF332C0308E22C0308992C030871
:103470002DE9F04191F81D800C464046FFF7D8FF3A
:10348000A77F05463846FFF7D3FF06463846FFF7C5
:1034900075FFA18A628B434B521A1A649A61228B80
:1034A000521A1A61E28A586342EA014221695A6457
:1034B0006268D963DA602068802828D0227F0FD81C
:1034C000202866D0402864D004281AD045EA026536
:1034D000344BB84545F40035DD6160D0324A44E0F4
:1034E000B0F5807F04D0B0F5007FEFD12F4800E029
:1034F0002F4840EA0262DA61E2681A625E6259614C
:1035000032E045EA026242F40032DA61F6E7A0688E
:10351000021DDA62227F45EA026545F40035DD616D
:103520005E625961017841B1012921D0214B4FF4EC
:103530008D71214A21482DF08FFFDA69418822F4EC
:103540007F42013922F0100242EA01220121DA61B0
:10355000144BDA6942F02002DA61DA699206FCD48F
:1035600010229A600029B9D0154A1A60BDE8F0818E
:10357000B2F1FF01DA69408822F47F4218BF0121CD
:10358000013822F0100242EA002242F01002DA6111
:10359000DEE745EA0262034B42F40032B5E742F24D
:1035A0000132E2E700B002400123010009000200FD
:1035B0000A0002002C2D0308462D0308992C03084D
:1035C00001230200024B1B68586803685B691847B7
:1035D00008C1012070B504460A4B0C300026254670
:1035E000602260602672667245F8203B294617F01B
:1035F00027FC04F55A63EE6024359D42FBD120463A
:1036000070BD00BF305B0308034B1A68D207FCD4BF
:1036100023229A60704700BF00B00240094B5A69EC
:10362000D2030AD5BFF34F8F08440029A0EB010253
:1036300004DCBFF34F8FBFF36F8F70472039C3F89F
:103640006822F2E700ED00E030B5104C2568ED0788
:10365000FCD423250904FF2BA56041F001014FF0A4
:10366000020565636164E0630AD00949656241EA65
:103670000363E361074B22626061E060236030BD59
:10368000E561039BA363044BF8E700BF00B0024071
:1036900009000100010002000100030030B50F4CD9
:1036A0002568ED07FCD423251204FF2BA56042F00A
:1036B00001024FF0020565636264E063E16008D0D7
:1036C0001B0643F00213E361054B656260612360F2
:1036D00030BD044BE3610123F9E700BF00B00240B5
:1036E00001000200020002FF30B50B4C2568ED0717
:1036F000FCD4232512041B06A56042F0010202251A
:1037000043F4003365636264E063E160E361034BAB
:1037100065626061236030BD00B0024001000200BC
:103720004069704790F844007047036B23B9C06A42
:10373000003818BF0120704701207047806870472B
:10374000043010B50C460FC884E80F0010BD704758
:1037500008B5034A40F21221024B03482DF07CFECB
:10376000842D030885440308DF2D030810B50446A3
:1037700048212DF0F8FA204610BD00002DE9F04355
:103780001C46436BADF51F7D05460E461746002BC4
:1037900037D0002203A8DFF8A890CDE901320FF05E
:1037A0009FF94FF4F4725021249024A809F067F98E
:1037B0003A46314624A80AF0B1F8012124A809F0BC
:1037C00059FA022324A88DF8D83009F0F4FABDF88C
:1037D00098322B9ABDF89C629342A89F28BF13464B
:1037E000419A964203EB4308A7EB430728BF1646CE
:1037F000479B9E4209D824A809F05EFA24A809F044
:103800008BF90DF51F7DBDE8F083012201A924A8E5
:1038100009F01AFB6B6B03EB0800984201D83C449B
:10382000E6E759789A78C90009EA022201F4FC61B6
:103830000A4313F8031B42EAD10224F8022BECE7F7
:1038400000F8FFFF0A4A02600022C0E90522C0E931
:103850000722C0E90922C0E90B22C0E90D12C0E924
:103860000F2280F84420C0E90322C0E901227047FA
:10387000805B030810B40C4611461A46036B3BB13B
:10388000036C806BE41A20445DF8044B2EF0AAB858
:10389000C06AF8E7036B10B573B1036C826BC91A89
:1038A0005318525C98785C780004DB7840EA042076
:1038B000104340EA036010BDC36A5858FBE7036B2E
:1038C00043B1036CC91A836B5A18585C527840EAAA
:1038D00002207047C36A585A7047000070B504460A
:1038E000006B0D461646D8B1E36B934208D209230C
:1038F0000D4A65210D4884F844300D4B2DF0ACFD88
:103900000368DB689847206B3246A16B03681B692C
:10391000984710B90D2384F84430A06B256470BD1E
:10392000E06A0844FBE700BF472E0308DF2D0308C9
:10393000342E03082DE9F843436904462BB9234B81
:10394000AA21234A23482DF087FD08228169FFF729
:10395000C5FFA16943F2300646F2643704312046C0
:10396000FFF798FFA3691844A36A00F108029A427E
:1039700006D3012300206361236AA361BDE8F883B5
:10398000636909300822013320F001012046636198
:10399000A161FFF7A3FFD4F8189020464946FFF72E
:1039A0008EFF09F1020180462046FFF788FF09F1EA
:1039B000040105462046FFF76DFFB045D2D1BD4258
:1039C000D0D10028CED00120D8E700BF892E03082F
:1039D000D22E0308DF2D03082DE9F04F0446ADF584
:1039E0001F7D8A461646816908229846FFF776FFB2
:1039F000A7692046391DFFF74DFF07F10801024670
:103A000005462046FFF76AFF636B074633B93C4B18
:103A100040F2AB113B4A3C482DF01EFD002203A8AA
:103A2000CDE901320FF05CF84FF4F472502124908C
:103A300024A809F024F82A46394624A809F06EFF84
:103A4000012124A809F016F9022324A88DF8D83002
:103A500009F0B1F9BAF90250479BAB4229D3BAF940
:103A600000904FEA4808BAF804702B9B08FB0566E3
:103A70004F44BAF80250DFF894B03FB29F4228BFDB
:103A80001F46BAF8063009EB490A1D44419B2DB286
:103A90009D4228BF1D46479B9D4210D824A809F08F
:103AA0000BF924A809F038F801200DF51F7DBDE8B9
:103AB000F08F012201A924A809F0C6F9CCE7012260
:103AC00001A924A809F0C0F9626B49465244B942E1
:103AD00002F1030201D34644DDE712F8020C12F8AA
:103AE000013CC0000BEA032300F4FC60034312F81E
:103AF000030C43EAD00326F811300131E7E700BF99
:103B0000052F03085B2F0308DF2D030800F8FFFFD4
:103B10000129036838BF0121DB6A70B50D460446F0
:103B20009847A84204D223682046DB6A9847054696
:103B30006B1EE6691022204606EB031606F108010B
:103B4000FFF7CCFE06F110012046FFF7A3FE236A23
:103B5000043B0344C4E9055370BD00000021482222
:103B60002DE9F0410446816180F84410FFF7B6FE6C
:103B7000A6690423624A31462046FFF77BFE40B126
:103B80000323604AF22184F844305F4B5F482DF0F4
:103B900063FC06F1080104235D4A2046A161FFF79A
:103BA00069FE30B10423574AFA2184F84430594B56
:103BB000ECE706F10C010423574A2046A161FFF708
:103BC00059FE074638B105234E4A40F2011184F8E8
:103BD0004430524BDAE706F110012046FFF75AFE57
:103BE000054620B94E4B40F20711464ACEE706F192
:103BF000140804234B4A20464146FFF73BFE0028A9
:103C000049D0062384F844300423474A06F11801BA
:103C10002046FFF72FFE00283FD0072384F84430CA
:103C20004544424F0C2220462946FFF757FE05F136
:103C3000080604233A4620463146FFF71BFE94F857
:103C40004430002848D0002B48D1A36AAB4249D861
:103C500005F10C0304352046A3612946FFF71AFE3F
:103C60003044294660622046FFF714FE06440422D1
:103C700020463146FFF732FE04232D4A31462046C6
:103C8000FFF7F8FD002838D10123E6616361A369DD
:103C90002362BDE8F0810127B6E7002FC0D006F10E
:103CA00020012046FFF7F6FD4FF47A7306F130014C
:103CB000B0FBF3F060602046FFF7ECFD06F1400139
:103CC000A0602046FFF7E6FD06F14401E0602046D3
:103CD000FFF7E0FD2061A3E7002BB9D00A2384F8A9
:103CE0004430D6E7291D2046FFF7D4FD85190C2264
:103CF00020462946FFF7F2FD99E70B23EFE700BFC7
:103D0000B52F0308D32F0308BA2F0308DF2D0308AC
:103D100000300308053003081D3003082230030873
:103D20003830030844300308493003084E30030894
:103D300053300308C0E90A2100220263FFF70EBFD7
:103D400010B5002304460846E3620B6821639B68B4
:103D50009847A0622046BDE81040FFF7FFBEF0B4D0
:103D6000069FBDF81050BDF8146032B12BB1049518
:103D7000CDE90567F0BCFFF701BDF0BC704700005E
:103D80002DE9F04F9946436985B004460F469046A9
:103D90002BB9294B7721294A29482DF05DFB0822B0
:103DA0008169FFF79BFDA66920463146FFF787FD35
:103DB000B11C83462046FFF782FD311D8246204616
:103DC000FFF768FD06F10801A36A05460A189A4242
:103DD00026D243F230039B4517D146F264339A450D
:103DE00013D190B10246A1612046FFF777FD0E9BEB
:103DF00001462A462046CDF80080CDE901933B4696
:103E0000FFF7ADFF636901336361A3692B4405B913
:103E100008330133626A23F001039342A36109D19D
:103E2000012301206361236AA36180F0010005B0D2
:103E3000BDE8F08F0020F8E7892E0308583003080A
:103E4000DF2D0308012070470C2070470C2303FB73
:103E50000100083070470C2303FB01000830704755
:103E6000012070474FF4887070474FF4887303FB4C
:103E70000100083070474FF4887303FB01000830DD
:103E80007047012070471020704700EB0110083088
:103E9000704700EB011008307047084600F036BE4E
:103EA000034B10B50446036015F01CFE204610BD00
:103EB000285C030810B50446FFF7F2FF14212046E2
:103EC0002CF051FF204610BD034B10B50446036093
:103ED00015F008FE204610BDF45B030810B504463B
:103EE000FFF7F2FF4FF48C7120462CF03CFF204688
:103EF00010BD0000034B10B50446036015F0F2FD41
:103F0000204610BDC05B030810B50446FFF7F2FF62
:103F1000182120462CF027FF204610BD084B10B575
:103F20000446036000F5A270FFF7BAFF04F12C000D
:103F3000FFF7CAFF04F11400FFF7DCFF204610BDB5
:103F40005C5C030808B50248FFF7E8FF08BD00BF46
:103F5000C069002010B50446FFF7E0FF4FF42E7152
:103F600020462CF000FF204610BD00002DE9F34153
:103F700000F04EFC0024054600F04EFC23460146AE
:103F80002246284600941DF0D7FD274B274A20469D
:103F9000274D1A6001F014F8264B274A27489A60EB
:103FA0001DF032FD2B68BFF35B8FDB0735D428464D
:103FB0002CF0DBFE88B3224C224B04F5AE7604F1E4
:103FC000140004F12C0804F5A27723606060C4F8A3
:103FD0000880E760266115F087FD1B4B4046636152
:103FE00015F082FD194B3846E36215F07DFD184B44
:103FF00004F5AC70C4F8443101F058F8224604F5D9
:10400000AC71304601F048F8304600F07FFD1148B1
:104010002DF040FA28462CF0B4FE0F4802B0BDE85F
:10402000F041FEF79FBE00BF6CC101206C5B002019
:10403000BC6900208C5B0020705B00200C0000201D
:10404000C06900205C5C0308C05B0308F45B0308E4
:10405000285C0308453F0008F05A00207047000024
:104060000148FEF795BE00BFF05A002073B50E4C14
:104070000E4B0F4E20460F4D3360FFF7ABFA28462C
:1040800022F06CFE0C481BF0A5FE4FF448734FF471
:10409000F07221460948CDE9003233462A46FEF740
:1040A00029FF02B070BD00BF185C0020405A030811
:1040B000B86900208C5B0020705B0020F05A002063
:1040C0000148FFF73FB900BF185C0020002070478F
:1040D00081807047C180704701817047418170477E
:1040E0007047704770477047704710B4C4880368C2
:1040F000121B84885B6D091B12B25DF8044B09B278
:1041000018474FF6FF7383814FF0FF330362136844
:10411000C36110607047002070478B888380012046
:104120007047704780F82610704790F82600704757
:1041300010B50022B1F90840B1F90A10028042809E
:104140008480C18010BD0022028042808280C280B3
:1041500070470177704780ED080A704780F8241097
:10416000704780F8251070470120704798307047DD
:104170008C3070478430704770477047704700003C
:10418000024B902283F85A23704700BF00E100E001
:10419000024B4FF080629A60704700BF00E100E080
:1041A00070477047124A5369DB0370B51ED5002370
:1041B000C2F88430BFF34F8FD2F8803043F6E074FA
:1041C000C3F3C900C3F34E335B0103EA040601469F
:1041D00046EA81750139C2F87452F9D2203B13F1D5
:1041E000200FF2D1BFF34F8FBFF36F8F70BD00BFB1
:1041F00000ED00E00163C0E90D217047704700EB5E
:104200008100114640680368DB68184780F83C105D
:10421000704710B5044648212CF0A5FD204610BD7E
:1042200010B504462C212CF09EFD204610BD10B583
:104230000446BC212CF097FD204610BD38B504463D
:1042400015F04FFF23685D6E1AF096FC014620467C
:10425000A8472368074A2046D3F888500023064918
:10426000A847064B064A5A60064A1A639A63064AEA
:104270005A6338BD007017C000B80BC0386D0020FD
:10428000806D0020000000C000B80B0015F0DABE01
:1042900016F03BB838B504460D46406C4FF0FF3180
:1042A00006F07EF9606C06F0ABF9242303FB0545AC
:1042B000002385F8283094F828300BB9236BA363CA
:1042C00038BD90F8252012B103685B691847704724
:1042D00008B531B1044B4FF4B871044A04482DF0CD
:1042E000BBF890F8290008BDB3300308C7300308B5
:1042F0005132030810B531B1064B4FF4B571064A7F
:1043000006482DF0A9F8406811460368BDE8104042
:104310001B6B1847B330030894320308513203086B
:1043200008B529B1034B7921034A04482DF094F8CC
:10433000C06808BDB3300308423403085132030893
:1043400010B5044629B1194BA221194A19482DF07C
:1043500083F8052A15D8DFE802F0031115171C228F
:10436000406803681B69984758B1012384F82930D5
:1043700084F82C300023C4E9043302E0002380F8E1
:10438000293010BD0362F5E70362012380F82A306B
:10439000F0E7002380F8293001230362F1E7003BB6
:1043A00018BF012380F82D30EBE700BFB3300308BE
:1043B000F73503085132030810B50C4611461A466A
:1043C0002CB1064B9021064A06482DF045F8C460F2
:1043D00040680368BDE810409B681847B330030885
:1043E000CB3703085132030808B529B1054B8221A8
:1043F000054A06482DF030F8C0E90411C0E906323C
:1044000008BD00BFB3300308A639030851320308C2
:1044100090F83D3010B5044653B14FF0FF31406C79
:1044200006F0BEF8002384F83D30012384F83E30C6
:1044300010BD90F825201AB190F8242002B1186020
:104440007047000010B50446104629B1134BD02127
:10445000134A14482DF000F894F8293033B1124B68
:104460001B6893F86B2063691344636194F82B30E5
:104470000BB9012010BDA368036303685B6998470B
:10448000002394F82C0084F82B300028F1D194F804
:104490002D30002BEED184F82900EBE7B330030870
:1044A000623B03085132030808C1012010B5174CC4
:1044B00015F00AFE94F8293013B994F82A30ABB1FC
:1044C000E169D4E90532534322694A4393420DD34B
:1044D00094F83C0038B19B1AB3FBF1F2994298BFB3
:1044E00002F1FF326262012384F82E300123206C36
:1044F00084F83D3006F044F994F83E302BB1606CFE
:1045000006F07EF8002384F83E3010BD386D0020A0
:10451000044B4FF08062C3F88820BFF34F8FBFF386
:104520006F8F704700E100E0034690F8280070B5F7
:10453000D8B901229D6BD8609A624FF480721861DD
:104540009A8505F53B22586102F500629861D861B1
:104550001862586283F82E00D3E90C463444A24214
:104560000AD90B4B52210B4A03E00B4B40F2C51109
:104570000A4A0B482CF070FF9D609A634FF4487311
:1045800081F83400CB864FF4F07308630B8770BD5D
:10459000BA3E0308F53E0308033D0308333D030814
:1045A00051320308002370B5124E05468380124B2A
:1045B0000360336893F858200AB1D86C00B9986842
:1045C0000368DB6A98473368B0FA80F4D86C6409F2
:1045D00030B10368DB6A9847002808BF44F0010443
:1045E0002CB9064B2C21064A06482CF035FF2846EC
:1045F00070BD00BF08C10120705C0308984003082B
:10460000F64003082F41030870B5244E3568BFF308
:104610005B8F15F001053FD130462CF0A6FB00283A
:104620003AD01F4C1F4B04F134002561E584A5628C
:10463000A585C4E90035C4E902551BF02AFE04F142
:10464000580017F0FBFF184B2046A365174B40F8A6
:10465000843BFFF7A7FF164B1648C4F88430243379
:10466000C4F89050C4F88C306423C4F89C50C4F84B
:10467000A850C4E928350023C4F8AC30C4F8B030E1
:10468000C4F8B430C4F8B8300B4BC4F898302CF0F0
:1046900001FF30462CF075FB014870BD786C00209E
:1046A0007C6C0020EC700308905C0308085D030834
:1046B000A07003087D410008807003082DE9F743CE
:1046C000044601264FF4C8674FF0FF31206C06F016
:1046D0001BF84FF0FF31606C05F062FF94F82E304C
:1046E00043B36568D4F820802B6884F82B60B8F158
:1046F000000F23D05B6A4146284698470023236277
:104700002B684FF4487200972846D3F814804FF472
:10471000F073A168C047236984F82C00013323613A
:10472000F0B12B6828469B6A984701380023E06067
:1047300084F82E30606C05F063FFC5E7626A002ADA
:10474000DED02846D3E909939847616A0144284698
:10475000C8472369626AC4F8248013442361CFE701
:104760000120E3E7014808B5FFF7A8FF386D0020F6
:1047700038B5154900251548FFF764F8144C154B5A
:104780002A462946012023604FF48073A563A3873E
:10479000A38584F83E5084F82E50C4E90C55C4E932
:1047A0001055C4E90155C4E90355C4E90555C4E9E8
:1047B0000755C4E9095505F04FFF2064284605F068
:1047C000ABFE606438BD00BFC86D0020806D002066
:1047D000386D0020545D0308704710B5044604216D
:1047E0002CF0C1FA204610BD012908B506D00229D7
:1047F00008D059B900F022FC006808BD00F01EFC8A
:104800004068FAE700F01AFC8068F6E70020F4E759
:1048100000487047A45D03080320704713B50024C7
:1048200051B1036801AA01948DF803409C680DF111
:104830000303A04702B010BD0846FBE7C0897047DC
:10484000008A7047C088704780887047807A00F07F
:104850007F007047807AC0097047002070470000D1
:104860009FED010A704700BF0000000070477047CD
:1048700000F598730868496803C37047704770472C
:104880004160704770477047064BC0F84801C0F858
:104890004C310023C0F8503100F5A273C0F840310C
:1048A000704700BF494900080123037270477047F1
:1048B00010B441680346C2689B68541001EB620063
:1048C000D20748BF0A595DF8044B48BFD358184770
:1048D0000346406830B19A681AB9D86800F0010000
:1048E00070470120704710B504460C212CF03BFAAC
:1048F000204610BD10B5044610212CF034FA204695
:1049000010BD10B504464FF4AE712CF02CFA2046C1
:1049100010BD10B51AF030F90368BDE81040DB6B2C
:10492000184710B50446D0F8400158B10368DB6859
:10493000984738B1D4F8400103689B689847002332
:10494000C4F8403110BD00002DE9F14FD0E9556A9F
:104950000746B06803681B6A9847B0F5887F05D2A0
:10496000444BA321444A45482CF076FD7068036807
:104970001B6A98470F2803D8414BA4213E4AF2E70F
:10498000F06803681B6A98470B2803D83D4BA521A4
:10499000394AE8E7DFF8F4901AF0EEF804301AF03C
:1049A00010F9D9F8000010B10368DB689847D9F80E
:1049B000000010B103681B689847DFF8D480D8F86E
:1049C000000010B103685B699847D7F83C0110B14B
:1049D00003685B689847D8F8000010B103681B684B
:1049E0009847D7F83C0110B103689B689847F06876
:1049F00000214FF0000B03685B6A9847224B044686
:104A0000C0F804B080F808B059460360B068036885
:104A10005B6A9847054600F07DFB7068594603685D
:104A20005B6A98470646294600F052FB331DC7F8DB
:104A30003C612846C9F80040C8F80050CAF8003068
:104A40002B68C6F808A0DB68EE63984733683046E9
:104A50001B689847214628461CF0A0F8236820468A
:104A60001B699847236820465B6901B0BDE8F04F99
:104A7000184700BF914103081F420308F142030891
:104A800038430308DB430308545E030850C1012088
:104A90004CC10120044B1B6893F858200AB1D86C14
:104AA00000B99868704700BF08C1012070B516466C
:104AB00004460D461AF026F9104B00211C60104BDD
:104AC0002360104BC4E951310F4B1868C4E95311EE
:104AD0000368C4E94F119B68C4E955659847FFF71F
:104AE000D9FF23F08EFFFFF7D5FF24F005F8FFF77D
:104AF000D1FF24F00DF8204670BD00BF5CC101203D
:104B0000005E0308E85D030808C10120064BC0F8F9
:104B10004801C0F84C310023C0F8503100F5A273B1
:104B2000C0F84031704700BF49490008406A7047EB
:104B3000806A704770478B88C069DB0A0A6850F842
:104B400023001044704710B50446BAB1107B68B119
:104B5000537BD27A1B0203F4E0631A43236A03EB0C
:104B600082031A888A4202D193F9020010BD05D847
:104B70000138043380B20028F3D1F7E70020F5E7CD
:104B800010B504462C212CF0EEF8204610BD000094
:104B900030B58BB00446BDF860500895BDF85C5048
:104BA00007959DF8505006959DF84C5005959DF839
:104BB000485004959DF8445003959DF84050029547
:104BC0009DF83C500195BDF8385000951BF01EFC37
:104BD000064B20462360159BE361169B2362199BBD
:104BE00063621A9BA3620BB030BD00BF785E0308FE
:104BF000704770477047704770477047704710B5EF
:104C000004464FF488712CF0AEF8204610BD0368BE
:104C100070B504461B6B1546984723682046294605
:104C20005B6BBDE87040184770B504461D46BDF982
:104C30001060FFF7ECFF2368294620469B6B9847DE
:104C4000236831462046DB6BBDE870401847000002
:104C50002DE9F04F87B004461BF0F4FD4A4B0025C8
:104C600004F16C06236004F19809484B05A904F18E
:104C7000D408E56325663046A56604F1400B4FF481
:104C8000F07A271DC4E910354FF48073A4F864301E
:104C9000FF2384F866304FF6FF73C4E91255C4E968
:104CA0001455C4E91655ADF8143017F02FFD4846D9
:104CB00017F0EAFF404617F0E7FF2A462946584614
:104CC000CDF800A04FF44873FFF7AEFF4FF07F43DD
:104CD00059463846A36614F01BFF05A93046ADF8C7
:104CE000145017F0F8FF4FF448732A46294630460F
:104CF000CDF800A0FFF798FF29463046022517F0AF
:104D0000C0FC31463846012614F002FF4846C42252
:104D10009521FFF77CFF05AB4FF01E0A03AA02A9FD
:104D20004846009304ABADF80860ADF80C60ADF8F0
:104D30001050ADF8145017F002FF49463846C4F839
:104D4000D0A014F0E5FE4046C42240F20E21FFF749
:104D50005EFF05AB03AA02A94046009304ABADF881
:104D60000860ADF80C60ADF81050ADF8145017F0B5
:104D7000E6FE38464146C4F80CA114F0C9FE2046B0
:104D800007B0BDE8F08F00BFE05E0308247203089F
:104D90007047000030B5164D8FB02C68BFF35B8FA5
:104DA00014F0010420D128462BF0DFFFE0B13F23AF
:104DB000012210490993104B10480893104B0A9494
:104DC0000594CDE906430423CDE903320A23CDE956
:104DD0000B440093CDE90144FFF7DAFE09482CF0BB
:104DE00059FB28462BF0CDFF04480FB030BD00BF63
:104DF000487A002078360C903C7903084C7A0020E1
:104E000048790308914D00087047000030B5164DF1
:104E10008FB02C68BFF35B8F14F0010420D12846BB
:104E20002BF0A3FFE0B13F23012210490993104B5F
:104E300010480893104B0A940594CDE906430423C7
:104E4000CDE903321423CDE90B440093CDE90144AD
:104E5000FFF79EFE09482CF01DFB28462BF091FF22
:104E600004480FB030BD00BF787A002088360C901F
:104E7000407903087C7A00204C790308094E000829
:104E80007047000030B5164D8FB02C68BFF35B8FB4
:104E900014F0010420D128462BF067FFE0B13F2336
:104EA000012210490993104B10480893104B0A94A3
:104EB0000594CDE906430423CDE903322823CDE947
:104EC0000B440093CDE90144FFF762FE09482CF042
:104ED000E1FA28462BF055FF04480FB030BD00BF63
:104EE000A87A002098360C9044790308AC7A002008
:104EF00050790308814E0008002070470020704759
:104F00000EB403B503AB002153F8042B01931AF040
:104F100081FD02B05DF804EB03B070470CB407B537
:104F200004AB53F8042B01931AF074FD03B05DF841
:104F300004EB02B070470000436C10B5044673B335
:104F4000038F2BB9184BC521184A19482CF084FA45
:104F5000C38E00EB43035B8C0BB31CF019FB238F58
:104F6000012B03D8134BCB21134AEEE7E28E40F618
:104F70003F10531C9BB2092B194688BFA3F10A01AD
:104F800004EB4101498C814209D10A2B04EB420216
:104F900028BF0023508C04EB4303588451842046DF
:104FA000BDE810401CF0F6B97E44030887440308AE
:104FB000324503087C4503088A4503081CF0B3B951
:104FC00038B518BB124B13481C681349B4B122689A
:104FD00022440260626822440A60A26814440F4BB3
:104FE00000221A8000F02AF8054600F025F80C4B44
:104FF0001C600C4B1D600C4B188007E00B4B0360D2
:105000000B4B0B600B4B1C68002CE8D138BD00BF6C
:10501000E47A0020DC7A0020D87A0020E07A0020B0
:1050200060C1012068C1012064C10120AC360C9030
:10503000A8360C90B0360C9000207047004870479E
:10504000E87A002010B5054CFFF7E0FE2060FFF77E
:1050500019FF6060FFF79EFEA06010BDE87A002097
:1050600010B5002404600C6014601C6010BD704713
:1050700010B504464FF4AE712BF075FE204610BDFE
:1050800010B50446D0F8580100F013F82046BDE8EA
:10509000104019F0F3BD000010B50446FFF706FDFF
:1050A000014B2046236010BD145F030800220260FC
:1050B00070477047704704387047704710B5044612
:1050C00010212BF050FE204610BDA0F10400F5E7A2
:1050D0000022C1608260024A02601832426070475A
:1050E000685F030870470000034B10B50446036077
:1050F000FFF783FD204610BD905F030810B50446FE
:10510000FFF7F2FF4FF4887120462BF02CFE20466B
:1051100010BD000010B50446FFF79AFD014B204674
:10512000236010BD905F0308FFF768BD7047002043
:10513000704710B50446FDF7B0FBA821E0B2FDF7BB
:10514000C9FB10BD13B500240221C0B28DF8074081
:10515000FDF7C0FB8DF807009DF8073003F00F0343
:105160008DF807309DF80730022B01D98DF80740E4
:105170009DF80720034B9DF807005A7000229A7093
:1051800002B010BDF47A002073B5154C15460E46DA
:10519000A37862789A421FD903B3012B0CBF09216F
:1051A00000210423C0B20DEB0302FDF7B1FB9DF813
:1051B00004309DF805201B0203F4706313439DF82F
:1051C000072033809DF806301B0203F470631343FD
:1051D0002B80A3780133A37002B070BD0321E0E7F8
:1051E000F47A00200122A421C0B2FDF757BB0022AF
:1051F000A421C0B2FDF752BBFFF7F9BF7047000012
:10520000064A1378984208D05178884205D00BB1ED
:1052100019B90123D054FDF740BB7047F77A00203D
:1052200038B504460D460020C949FDF7B9FEC94905
:105230000320FDF7B5FEC8490020FDF7B1FEC749C0
:105240000220FDF7ADFEC4490020FDF7A9FEC449C8
:105250000020FDF7A5FE0A20FDF7A0FEC1490020B1
:10526000FDF79EFEC0490020FDF79AFE0A20FDF7DB
:1052700095FEBE490020FDF793FEBD490020FDF7D5
:105280008FFEBC490020FDF78BFEBB490020FDF7D7
:1052900087FEBA490020FDF783FEB9490020FDF7DB
:1052A0007FFEAB490020FDF77BFEB6490020FDF7ED
:1052B00077FEB5490020FDF773FEB4490020FDF7E5
:1052C0006FFEB3490020FDF76BFEB2490020FDF7E9
:1052D00067FEB1490020FDF763FEA7490020FDF7F6
:1052E0005FFE9B490020FDF75BFEAC490220FDF705
:1052F00057FEAB490020FDF753FEAA490020FDF7F9
:105300004FFEA9490020FDF74BFEA8490020FDF7FC
:1053100047FEA7490020FDF743FEA6490020FDF700
:105320003FFEA5490020FDF73BFEA4490020FDF704
:1053300037FE95490020FDF733FEA1490020FDF717
:105340002FFEA0490020FDF72BFE9F490220FDF70C
:1053500027FE81490020FDF723FE9C490620FDF72A
:105360001FFE9B490020FDF71BFE9A490E20FDF70A
:1053700017FE99490020FDF713FE98490E20FDF70E
:105380000FFE97490020FDF70BFE96490A20FDF716
:1053900007FE95490020FDF703FE94490020FDF724
:1053A000FFFD6D490020FDF7FBFD91490A20FDF747
:1053B000F7FD90490020FDF7F3FD8F490F20FDF721
:1053C000EFFD83490020FDF7EBFD8C490F20FDF731
:1053D000E7FD81490020FDF7E3FD89490A20FDF73B
:1053E000DFFD7F490020FDF7DBFD86490F20FDF73B
:1053F000D7FD7D490020FDF7D3FD83490F20FDF740
:10540000CFFD82490020FDF7CBFD81490A20FDF741
:10541000C7FD80490020FDF7C3FD7F490A20FDF745
:10542000BFFD4D490020FDF7BBFD7C490A20FDF77B
:10543000B7FD70490020FDF7B3FD79490F20FDF756
:10544000AFFD63490020FDF7ABFD76490F20FDF766
:10545000A7FD61490020FDF7A3FD73490A20FDF770
:105460009FFD5F490020FDF79BFD70490F20FDF770
:1054700097FD5D490020FDF793FD6D490F20FDF775
:105480008FFD4D490020FDF78BFD6A490020FDF797
:1054900087FD69490020FDF783FD68490020FDF77D
:1054A0007FFD67490020FDF77BFD66490020FDF781
:1054B00077FD27490020FDF773FD63490320FDF7C1
:1054C0006FFD23490020FDF76BFD21490020FDF70A
:1054D00067FD5E491020FDF763FD1D490020FDF7C3
:1054E0005FFD5B491020FDF75BFD00205949FDF78A
:1054F00057FD7820FDF752FD002C00F0C980022CEA
:1055000003D155490020FDF74BFD012D0BD1534927
:105510000020FDF745FD52490420FDF741FD5149AA
:105520000420FDF73DFD50490020FDF739FD4F49AE
:105530000020FDF735FD4E490020FDF731FD4D49B6
:105540000020FDF72DFD4C490020FDF729FD95E0D9
:105550001E6003084B6103081C60030848610308D0
:105560001A60030818600308166003081460030833
:1055700012600308106003080E6003080C60030843
:105580000A60030808600308046003080260030857
:1055900000600308FE5F0308FC5F03082361030843
:1055A000FA5F0308F85F0308F65F0308F45F030877
:1055B000F25F0308F05F030806600308EE5F03086C
:1055C000EC5F0308EA5F0308206103081961030820
:1055D000E85F03080A610308E65F0308FB6003084D
:1055E000E45F0308F0600308E25F0308C65F030896
:1055F000E5600308E05F0308D5600308C5600308A1
:10560000BA600308AA6003089A600308DE5F030813
:105610008F600308DC5F0308846003087960030877
:1056200069600308596003084E6003083E60030880
:105630002E600308C45F0308C25F0308C05F03084D
:10564000BE5F0308BC5F03082A60030837610308D4
:1056500026610308DA5F0308D85F0308D45F0308F4
:105660002560030820600308D25F0308D05F0308A9
:10567000CE5F0308CC5F0308CA5F03080649002019
:10568000FDF78EFC05490020FDF78AFC002038BD9F
:105690000349204637E700BF1E600308C85F0308C0
:1056A000D65F03080F490020D1F8883043F4700317
:1056B000C1F888300C4B1A6842F001021A609860F9
:1056C0001A6822F0847222F480321A60074A5A6003
:1056D0001A6822F480221A60D8604FF000638B6051
:1056E000704700BF00ED00E0003802401030002499
:1056F000074A032008B5136843F48073136000F071
:105700002DF80020FCF716FFFCF7CEFA002008BDAC
:10571000003C0240034A044B11681B780B441360A1
:10572000704700BFFC7A00203C000020014B186845
:10573000704700BFFC7A002038B50446FFF7F6FF3B
:105740000546631C1EBF044B1B78E418FFF7EEFFF1
:10575000431BA342FAD338BD3C0000200749030293
:10576000CA6803F4E06322F4E0621204120C1343EB
:1057700043F0BF6343F40033CB60704700ED00E0BB
:10578000164B30B5DC68C4F30224C4F10703251DB1
:10579000042B28BF0423062D4FF0FF358CBF033C9C
:1057A000002405FA03F3002805FA04F521EA0303AF
:1057B00022EA050203FA04F343EA02034FEA031361
:1057C000DBB206DB00F1604000F5614080F8003399
:1057D00030BD00F00F00024A1354F9E700ED00E07D
:1057E00014ED00E0002807DB4109012300F01F0051
:1057F000024A834042F82130704700BF00E100E0D8
:1058000000280CDB4309012200F01F00044920336B
:10581000824041F82320BFF34F8FBFF36F8F704753
:1058200000E100E0BFF35F8F044B5A6A22F480323C
:105830005A620022C3F89420704700BF00ED00E0D8
:10584000064B40F00100C3F894005A6A42F48032DB
:105850005A62BFF34F8FBFF36F8F704700ED00E0C8
:105860004378144AC2F89830D2F8A03023F00103EC
:10587000C2F8A0304368C2F89C30C37A017B1B0693
:1058800043EA017301780B43817A43EAC143417BC8
:1058900043EA8143817B43EA4143C17B43EA0143BD
:1058A000417A43EA0123017A43EA4103C2F8A03076
:1058B000704700BF00ED00E010B5044608B90120B4
:1058C00010BD437F03F0FF0213B90277FCF70AFA19
:1058D000022363772379E3B92368134A5A619A68EC
:1058E00022F018029A6062792368D2B94FF0FF3231
:1058F0001A6100209A68616922F060020A43A16976
:105900009A609A6822F080020A439A6001236377C2
:10591000D6E7D4E90212204600F008F80028E2D0C9
:10592000CDE72269E4E700BFB71DC104CB0710B57E
:105930000DD51F23013B1DD321FA03F4E407F9D54C
:10594000102A13D0102A04D83AB1082A10D0012006
:105950000BE0182AFBD1062BF9D800684161836857
:1059600023F0180313438360002010BD072BF3E7D7
:105970000F2BF1E7102AE5D1E9E70000114B98421F
:1059800014D02033984213D02033984212D02033C1
:10599000984211D02033984210D0203398420FD033
:1059A0002033984214BF072006207047002070471C
:1059B0000120704702207047032070470420704781
:1059C000052070470074014038B50446002867D0B0
:1059D000344D0068FFF7D2FF55F82030002B5FD11F
:1059E0002046FCF7EBF9304B1A6801321A601B684D
:1059F000012B19D12D4B1A6822F080421A601A68C7
:105A0000A1680A431A601A6822F47F021A60227998
:105A1000012A05D1E1681A68013942EA01421A6097
:105A20001A6842F000421A602068036823F4714348
:105A300003600268D4E904310B43A1690B431343AB
:105A40000360036823F00F0303600268D4E90731A1
:105A50000B43616A1343A26A0360013A836823F42B
:105A60005F03836083680B4343EA0243226B8360D6
:105A7000436803F007034360436843EAC203E26AF2
:105A800043EA02234360036843F080030360012379
:105A900084F83430FFF772FF45F82040002038BD0D
:105AA0000120FCE7007B0020207B002000740140E7
:105AB0007047704738B50446002869D00268354BF6
:105AC0009A4205D14068012861D0E06801285ED083
:105AD00000230122204623632365C4E91122FCF739
